{"abi":[{"type":"constructor","inputs":[{"name":"_tokenName","type":"string","internalType":"string"},{"name":"_tokenSymbol","type":"string","internalType":"string"},{"name":"_rewardToken","type":"address","internalType":"address"}],"stateMutability":"nonpayable"},{"type":"function","name":"acceptJobs","inputs":[{"name":"_jobId","type":"uint256","internalType":"uint256"}],"outputs":[{"name":"","type":"bool","internalType":"bool"}],"stateMutability":"nonpayable"},{"type":"function","name":"applyJobs","inputs":[{"name":"_jobId","type":"uint256","internalType":"uint256"}],"outputs":[{"name":"","type":"bool","internalType":"bool"}],"stateMutability":"nonpayable"},{"type":"function","name":"approve","inputs":[{"name":"to","type":"address","internalType":"address"},{"name":"tokenId","type":"uint256","internalType":"uint256"}],"outputs":[],"stateMutability":"nonpayable"},{"type":"function","name":"balanceOf","inputs":[{"name":"owner","type":"address","internalType":"address"}],"outputs":[{"name":"","type":"uint256","internalType":"uint256"}],"stateMutability":"view"},{"type":"function","name":"baseTokenURI","inputs":[],"outputs":[{"name":"","type":"string","internalType":"string"}],"stateMutability":"view"},{"type":"function","name":"cancelJobs","inputs":[{"name":"_jobId","type":"uint256","internalType":"uint256"}],"outputs":[{"name":"","type":"bool","internalType":"bool"}],"stateMutability":"nonpayable"},{"type":"function","name":"completeJobs","inputs":[{"name":"_jobId","type":"uint256","internalType":"uint256"}],"outputs":[{"name":"","type":"bool","internalType":"bool"}],"stateMutability":"nonpayable"},{"type":"function","name":"createJobs","inputs":[{"name":"budget","type":"uint256","internalType":"uint256"},{"name":"reward","type":"uint256","internalType":"uint256"},{"name":"detail","type":"string","internalType":"string"}],"outputs":[{"name":"job","type":"tuple","internalType":"struct IJobs.JobInfo","components":[{"name":"id","type":"uint256","internalType":"uint256"},{"name":"creator","type":"address","internalType":"address"},{"name":"budget","type":"uint256","internalType":"uint256"},{"name":"reward","type":"uint256","internalType":"uint256"},{"name":"isStart","type":"bool","internalType":"bool"},{"name":"isCompleted","type":"bool","internalType":"bool"},{"name":"detail","type":"string","internalType":"string"},{"name":"listApplicants","type":"address[]","internalType":"address[]"},{"name":"kol","type":"address","internalType":"address"},{"name":"listInvitationKols","type":"address[]","internalType":"address[]"},{"name":"cancelApproval","type":"bool[2]","internalType":"bool[2]"},{"name":"completedApproval","type":"bool[2]","internalType":"bool[2]"}]}],"stateMutability":"nonpayable"},{"type":"function","name":"createProfile","inputs":[{"name":"price","type":"uint256","internalType":"uint256"}],"outputs":[{"name":"kol","type":"tuple","internalType":"struct IJobs.KolsInfo","components":[{"name":"kolAddress","type":"address","internalType":"address"},{"name":"tokenIds","type":"uint256[]","internalType":"uint256[]"},{"name":"jobsIds","type":"uint256[]","internalType":"uint256[]"},{"name":"price","type":"uint256","internalType":"uint256"},{"name":"creditPoints","type":"uint256","internalType":"uint256"},{"name":"listAppliedJobs","type":"uint256[]","internalType":"uint256[]"},{"name":"listInvitationJobs","type":"uint256[]","internalType":"uint256[]"}]}],"stateMutability":"nonpayable"},{"type":"function","name":"getApproved","inputs":[{"name":"tokenId","type":"uint256","internalType":"uint256"}],"outputs":[{"name":"","type":"address","internalType":"address"}],"stateMutability":"view"},{"type":"function","name":"inviteKol","inputs":[{"name":"_jobId","type":"uint256","internalType":"uint256"},{"name":"kolAddress","type":"address","internalType":"address"}],"outputs":[{"name":"","type":"bool","internalType":"bool"}],"stateMutability":"nonpayable"},{"type":"function","name":"isApprovedForAll","inputs":[{"name":"owner","type":"address","internalType":"address"},{"name":"operator","type":"address","internalType":"address"}],"outputs":[{"name":"","type":"bool","internalType":"bool"}],"stateMutability":"view"},{"type":"function","name":"jobInfo","inputs":[{"name":"","type":"uint256","internalType":"uint256"}],"outputs":[{"name":"id","type":"uint256","internalType":"uint256"},{"name":"creator","type":"address","internalType":"address"},{"name":"budget","type":"uint256","internalType":"uint256"},{"name":"reward","type":"uint256","internalType":"uint256"},{"name":"isStart","type":"bool","internalType":"bool"},{"name":"isCompleted","type":"bool","internalType":"bool"},{"name":"detail","type":"string","internalType":"string"},{"name":"kol","type":"address","internalType":"address"}],"stateMutability":"view"},{"type":"function","name":"kolsInfo","inputs":[{"name":"","type":"address","internalType":"address"}],"outputs":[{"name":"kolAddress","type":"address","internalType":"address"},{"name":"price","type":"uint256","internalType":"uint256"},{"name":"creditPoints","type":"uint256","internalType":"uint256"}],"stateMutability":"view"},{"type":"function","name":"name","inputs":[],"outputs":[{"name":"","type":"string","internalType":"string"}],"stateMutability":"view"},{"type":"function","name":"owner","inputs":[],"outputs":[{"name":"","type":"address","internalType":"address"}],"stateMutability":"view"},{"type":"function","name":"ownerOf","inputs":[{"name":"tokenId","type":"uint256","internalType":"uint256"}],"outputs":[{"name":"","type":"address","internalType":"address"}],"stateMutability":"view"},{"type":"function","name":"renounceOwnership","inputs":[],"outputs":[],"stateMutability":"nonpayable"},{"type":"function","name":"safeTransferFrom","inputs":[{"name":"from","type":"address","internalType":"address"},{"name":"to","type":"address","internalType":"address"},{"name":"tokenId","type":"uint256","internalType":"uint256"}],"outputs":[],"stateMutability":"nonpayable"},{"type":"function","name":"safeTransferFrom","inputs":[{"name":"from","type":"address","internalType":"address"},{"name":"to","type":"address","internalType":"address"},{"name":"tokenId","type":"uint256","internalType":"uint256"},{"name":"data","type":"bytes","internalType":"bytes"}],"outputs":[],"stateMutability":"nonpayable"},{"type":"function","name":"setApprovalForAll","inputs":[{"name":"operator","type":"address","internalType":"address"},{"name":"approved","type":"bool","internalType":"bool"}],"outputs":[],"stateMutability":"nonpayable"},{"type":"function","name":"startJobs","inputs":[{"name":"_jobId","type":"uint256","internalType":"uint256"},{"name":"kolAddress","type":"address","internalType":"address"}],"outputs":[{"name":"","type":"bool","internalType":"bool"}],"stateMutability":"nonpayable"},{"type":"function","name":"supportsInterface","inputs":[{"name":"interfaceId","type":"bytes4","internalType":"bytes4"}],"outputs":[{"name":"","type":"bool","internalType":"bool"}],"stateMutability":"view"},{"type":"function","name":"symbol","inputs":[],"outputs":[{"name":"","type":"string","internalType":"string"}],"stateMutability":"view"},{"type":"function","name":"tokenURI","inputs":[{"name":"_tokenId","type":"uint256","internalType":"uint256"}],"outputs":[{"name":"","type":"string","internalType":"string"}],"stateMutability":"view"},{"type":"function","name":"transferFrom","inputs":[{"name":"from","type":"address","internalType":"address"},{"name":"to","type":"address","internalType":"address"},{"name":"tokenId","type":"uint256","internalType":"uint256"}],"outputs":[],"stateMutability":"nonpayable"},{"type":"function","name":"transferOwnership","inputs":[{"name":"newOwner","type":"address","internalType":"address"}],"outputs":[],"stateMutability":"nonpayable"},{"type":"event","name":"Approval","inputs":[{"name":"owner","type":"address","indexed":true,"internalType":"address"},{"name":"approved","type":"address","indexed":true,"internalType":"address"},{"name":"tokenId","type":"uint256","indexed":true,"internalType":"uint256"}],"anonymous":false},{"type":"event","name":"ApprovalForAll","inputs":[{"name":"owner","type":"address","indexed":true,"internalType":"address"},{"name":"operator","type":"address","indexed":true,"internalType":"address"},{"name":"approved","type":"bool","indexed":false,"internalType":"bool"}],"anonymous":false},{"type":"event","name":"CancelJob","inputs":[{"name":"jobId","type":"uint256","indexed":true,"internalType":"uint256"}],"anonymous":false},{"type":"event","name":"CompletedJob","inputs":[{"name":"jobId","type":"uint256","indexed":true,"internalType":"uint256"},{"name":"kolAddress","type":"address","indexed":true,"internalType":"address"}],"anonymous":false},{"type":"event","name":"CreateJob","inputs":[{"name":"creator","type":"address","indexed":true,"internalType":"address"},{"name":"budget","type":"uint256","indexed":false,"internalType":"uint256"},{"name":"reward","type":"uint256","indexed":false,"internalType":"uint256"},{"name":"jobId","type":"uint256","indexed":false,"internalType":"uint256"}],"anonymous":false},{"type":"event","name":"CreateProfile","inputs":[{"name":"kolAddress","type":"address","indexed":true,"internalType":"address"},{"name":"price","type":"uint256","indexed":true,"internalType":"uint256"}],"anonymous":false},{"type":"event","name":"InviteKol","inputs":[{"name":"jobId","type":"uint256","indexed":true,"internalType":"uint256"},{"name":"kolAddress","type":"address","indexed":true,"internalType":"address"}],"anonymous":false},{"type":"event","name":"JobApplied","inputs":[{"name":"kolAddress","type":"address","indexed":true,"internalType":"address"},{"name":"jobId","type":"uint256","indexed":true,"internalType":"uint256"}],"anonymous":false},{"type":"event","name":"OwnershipTransferred","inputs":[{"name":"previousOwner","type":"address","indexed":true,"internalType":"address"},{"name":"newOwner","type":"address","indexed":true,"internalType":"address"}],"anonymous":false},{"type":"event","name":"StartJob","inputs":[{"name":"jobId","type":"uint256","indexed":true,"internalType":"uint256"},{"name":"kolAddress","type":"address","indexed":true,"internalType":"address"}],"anonymous":false},{"type":"event","name":"Transfer","inputs":[{"name":"from","type":"address","indexed":true,"internalType":"address"},{"name":"to","type":"address","indexed":true,"internalType":"address"},{"name":"tokenId","type":"uint256","indexed":true,"internalType":"uint256"}],"anonymous":false}],"bytecode":{"object":"0x60806040523480156200001157600080fd5b50604051620038a4380380620038a48339810160408190526200003491620001bc565b82826000620000448382620002da565b506001620000538282620002da565b505050620000706200006a6200009e60201b60201c565b620000a2565b6001600755600b80546001600160a01b0319166001600160a01b039290921691909117905550620003a69050565b3390565b600680546001600160a01b038381166001600160a01b0319831681179093556040519116919082907f8be0079c531659141344cd1fd0a4f28419497f9722a3daafe3b4186f6b6457e090600090a35050565b634e487b7160e01b600052604160045260246000fd5b600082601f8301126200011c57600080fd5b81516001600160401b0380821115620001395762000139620000f4565b604051601f8301601f19908116603f01168101908282118183101715620001645762000164620000f4565b81604052838152602092508660208588010111156200018257600080fd5b600091505b83821015620001a6578582018301518183018401529082019062000187565b6000602085830101528094505050505092915050565b600080600060608486031215620001d257600080fd5b83516001600160401b0380821115620001ea57600080fd5b620001f8878388016200010a565b945060208601519150808211156200020f57600080fd5b506200021e868287016200010a565b604086015190935090506001600160a01b03811681146200023e57600080fd5b809150509250925092565b600181811c908216806200025e57607f821691505b6020821081036200027f57634e487b7160e01b600052602260045260246000fd5b50919050565b601f821115620002d5576000816000526020600020601f850160051c81016020861015620002b05750805b601f850160051c820191505b81811015620002d157828155600101620002bc565b5050505b505050565b81516001600160401b03811115620002f657620002f6620000f4565b6200030e8162000307845462000249565b8462000285565b602080601f8311600181146200034657600084156200032d5750858301515b600019600386901b1c1916600185901b178555620002d1565b600085815260208120601f198616915b82811015620003775788860151825594840194600190910190840162000356565b5085821015620003965787850151600019600388901b60f8161c191681555b5050505050600190811b01905550565b6134ee80620003b66000396000f3fe608060405234801561001057600080fd5b50600436106101a95760003560e01c80635ce5ee69116100f9578063a36b5fde11610097578063c87b56dd11610071578063c87b56dd14610403578063d547cfb714610416578063e985e9c51461041e578063f2fde38b1461045a57600080fd5b8063a36b5fde146103bd578063ad7b2c76146103dd578063b88d4fde146103f057600080fd5b8063715018a6116100d3578063715018a6146103895780638da5cb5b1461039157806395d89b41146103a2578063a22cb465146103aa57600080fd5b80635ce5ee691461032e5780636352211e1461035557806370a082311461036857600080fd5b80630adce2d0116101665780632474639c116101405780632474639c146102d55780632e80f70a146102e857806333bc3ccf146102fb57806342842e0e1461031b57600080fd5b80630adce2d01461029c57806323b872dd146102af57806323db9ded146102c257600080fd5b806301ffc9a7146101ae57806306fdde03146101d6578063080f404d146101eb578063081812fc146101fe578063081cc7ac14610229578063095ea7b314610287575b600080fd5b6101c16101bc366004612ba7565b61046d565b60405190151581526020015b60405180910390f35b6101de6104bf565b6040516101cd9190612c11565b6101c16101f9366004612c24565b610551565b61021161020c366004612c24565b61071d565b6040516001600160a01b0390911681526020016101cd565b610262610237366004612c59565b600c602052600090815260409020805460038201546004909201546001600160a01b03909116919083565b604080516001600160a01b0390941684526020840192909252908201526060016101cd565b61029a610295366004612c74565b610744565b005b6101c16102aa366004612c24565b610859565b61029a6102bd366004612c9e565b610e4e565b6101c16102d0366004612cda565b610e7f565b6101c16102e3366004612c24565b61107f565b6101c16102f6366004612c24565b6111e9565b61030e610309366004612c24565b611664565b6040516101cd9190612d42565b61029a610329366004612c9e565b611810565b61034161033c366004612c24565b61182b565b6040516101cd989796959493929190612de7565b610211610363366004612c24565b611912565b61037b610376366004612c59565b611972565b6040519081526020016101cd565b61029a6119f8565b6006546001600160a01b0316610211565b6101de611a0c565b61029a6103b8366004612e53565b611a1b565b6103d06103cb366004612e8a565b611a2a565b6040516101cd9190612f69565b6101c16103eb366004612cda565b611e37565b61029a6103fe366004613089565b611fff565b6101de610411366004612c24565b612037565b6101de6120ff565b6101c161042c366004613165565b6001600160a01b03918216600090815260056020908152604080832093909416825291909152205460ff1690565b61029a610468366004612c59565b61218d565b60006001600160e01b031982166380ac58cd60e01b148061049e57506001600160e01b03198216635b5e139f60e01b145b806104b957506301ffc9a760e01b6001600160e01b03198316145b92915050565b6060600080546104ce9061318f565b80601f01602080910402602001604051908101604052809291908181526020018280546104fa9061318f565b80156105475780601f1061051c57610100808354040283529160200191610547565b820191906000526020600020905b81548152906001019060200180831161052a57829003601f168201915b5050505050905090565b336000818152600c60205260408120549091906001600160a01b031681146105b85760405162461bcd60e51b8152602060048201526015602482015274129bd89cce88165bdd481b5d5cdd0818994812d3d3605a1b60448201526064015b60405180910390fd5b6000838152600d60205260409020600101546001600160a01b031661061a5760405162461bcd60e51b8152602060048201526018602482015277129bd89cce88129bd888191bd95cc81b9bdd08195e1a5cdd60421b60448201526064016105af565b6000838152600d602052604090206004015460ff16156106725760405162461bcd60e51b8152602060048201526013602482015272129bd88e88129bd8881899481cdd185c9d1959606a1b60448201526064016105af565b6001600160a01b0381166000818152600e602090815260408083208784528252808320805460ff19166001908117909155848452600c83528184206005018054808301825590855283852001889055878452600d835281842060060180549182018155845291832090910180546001600160a01b03191684179055518592917f580957e7f405bf54f358d95420cb5bd1f4f2d15602f7c4984fcfb0f9cf0e946d91a350600192915050565b600061072882612206565b506000908152600460205260409020546001600160a01b031690565b600061074f82611912565b9050806001600160a01b0316836001600160a01b0316036107bc5760405162461bcd60e51b815260206004820152602160248201527f4552433732313a20617070726f76616c20746f2063757272656e74206f776e656044820152603960f91b60648201526084016105af565b336001600160a01b03821614806107d857506107d8813361042c565b61084a5760405162461bcd60e51b815260206004820152603d60248201527f4552433732313a20617070726f76652063616c6c6572206973206e6f7420746f60448201527f6b656e206f776e6572206f7220617070726f76656420666f7220616c6c00000060648201526084016105af565b6108548383612265565b505050565b6000818152600d60205260408120600401548290610100900460ff16156108c25760405162461bcd60e51b815260206004820152601c60248201527f4a6f62733a204a6f62206d757374206e6f7420636f6d706c657465640000000060448201526064016105af565b6000838152600d602052604090206001015483906001600160a01b031633148061090557506000818152600d60205260409020600701546001600160a01b031633145b6109215760405162461bcd60e51b81526004016105af906131c3565b6002600754036109735760405162461bcd60e51b815260206004820152601f60248201527f5265656e7472616e637947756172643a207265656e7472616e742063616c6c0060448201526064016105af565b600260078190556000858152600d602090815260408083208151610180810183528154815260018201546001600160a01b031693810193909352938401549082015260038301546060820152600483015460ff8082161515608084015261010090910416151560a082015260058301805433949160c08401916109f59061318f565b80601f0160208091040260200160405190810160405280929190818152602001828054610a219061318f565b8015610a6e5780601f10610a4357610100808354040283529160200191610a6e565b820191906000526020600020905b815481529060010190602001808311610a5157829003601f168201915b5050505050815260200160068201805480602002602001604051908101604052809291908181526020018280548015610ad057602002820191906000526020600020905b81546001600160a01b03168152600190910190602001808311610ab2575b505050918352505060078201546001600160a01b03166020808301919091526008830180546040805182850281018501825282815294019392830182828015610b4257602002820191906000526020600020905b81546001600160a01b03168152600190910190602001808311610b24575b50505091835250506040805180820191829052602090920191906009840190600290826000855b825461010083900a900460ff161515815260206001928301818104948501949093039092029101808411610b6957505050928452505060408051808201918290526020909301929150600a840190600290826000855b825461010083900a900460ff161515815260206001928301818104948501949093039092029101808411610bbf5790505050505050815250509050806080015115156001151514610c4d5760405162461bcd60e51b8152602060048201526018602482015277129bd89cce88129bd8881a5cc81b9bdd081cdd185c9d195960421b60448201526064016105af565b80602001516001600160a01b0316826001600160a01b031603610c795761016081015160019052610ca6565b8061010001516001600160a01b0316826001600160a01b031603610ca65761016081015160016020909101525b610160810151518015610cbf5750610160810151602001515b15610e00576000868152600d602090815260408083206004908101805461ff0019166101009081179091558501516001600160a01b03168452600c909252822001805460019290610d11908490613213565b925050819055506001600a6000828254610d2b9190613213565b9091555050610100810180516001600160a01b03166000908152600c602090815260408220600a8054600192830180549384018155855292909320015590519054610d7691906122d3565b600b5461010082015160608301516040516323b872dd60e01b81523060048201526001600160a01b03928316602482015260448101919091529116906323b872dd906064016020604051808303816000875af1158015610dda573d6000803e3d6000fd5b505050506040513d601f19601f82011682018060405250810190610dfe9190613234565b505b8061010001516001600160a01b0316867fc78810a99b0991266cc67aacf9662fc123a1797dd46074ee5bfc801031a617bc60405160405180910390a360019450505050506001600755919050565b610e5833826122ed565b610e745760405162461bcd60e51b81526004016105af90613251565b61085483838361236c565b6000828152600d602052604081206001015483906001600160a01b0316610ee35760405162461bcd60e51b8152602060048201526018602482015277129bd89cce88129bd888191bd95cc81b9bdd08195e1a5cdd60421b60448201526064016105af565b6000848152600d6020526040902060040154849060ff1615610f475760405162461bcd60e51b815260206004820152601a60248201527f4a6f62733a204a6f62206d757374206e6f74207374617274656400000000000060448201526064016105af565b6000858152600d602052604090206001015433906001600160a01b03168114610fbc5760405162461bcd60e51b815260206004820152602160248201527f4a6f62733a204f6e6c792063726561746f722063616e20696e76697465206b6f6044820152601b60fa1b60648201526084016105af565b6001600160a01b0385166000818152600f602090815260408083208a84528252808320805460ff19166001908117909155848452600c808452828520600601805480840182558187528587209081018e90558d8752600d8652848720600801805480860182559088528688200180546001600160a01b0319168917905591909452835491820184559284529091018990555188917f7318a8c4124a0cfda064ad24f3756d19f253f9ad52ddec58efdfbac1eb147dd091a350600195945050505050565b6000818152600d6020526040812060040154829060ff16156110e35760405162461bcd60e51b815260206004820152601a60248201527f4a6f62733a204a6f62206d757374206e6f74207374617274656400000000000060448201526064016105af565b336000818152600f6020908152604080832087845290915290205460ff1615156001146111525760405162461bcd60e51b815260206004820152601e60248201527f4a6f623a207369676e6572206e6f7420696e766974656420746f206a6f62000060448201526064016105af565b6000848152600d6020908152604080832060048101805460ff19166001908117909155600790910180546001600160a01b0387166001600160a01b03199091168117909155808552600c84528285206002018054928301815585529284200187905551909186917f15534970b35940bba5cf89e4ac4162b21988099d0b43254fb4df27d9973fa1e19190a360019250505b50919050565b6000818152600d60205260408120600401548290610100900460ff16156112525760405162461bcd60e51b815260206004820152601c60248201527f4a6f62733a204a6f62206d757374206e6f7420636f6d706c657465640000000060448201526064016105af565b6000838152600d602052604090206001015483906001600160a01b031633148061129557506000818152600d60205260409020600701546001600160a01b031633145b6112b15760405162461bcd60e51b81526004016105af906131c3565b6000848152600d602090815260408083208151610180810183528154815260018201546001600160a01b03169381019390935260028101549183019190915260038101546060830152600481015460ff8082161515608085015261010090910416151560a0830152600581018054339493929160c08401916113329061318f565b80601f016020809104026020016040519081016040528092919081815260200182805461135e9061318f565b80156113ab5780601f10611380576101008083540402835291602001916113ab565b820191906000526020600020905b81548152906001019060200180831161138e57829003601f168201915b505050505081526020016006820180548060200260200160405190810160405280929190818152602001828054801561140d57602002820191906000526020600020905b81546001600160a01b031681526001909101906020018083116113ef575b505050918352505060078201546001600160a01b0316602080830191909152600883018054604080518285028101850182528281529401939283018282801561147f57602002820191906000526020600020905b81546001600160a01b03168152600190910190602001808311611461575b50505091835250506040805180820191829052602090920191906009840190600290826000855b825461010083900a900460ff1615158152602060019283018181049485019490930390920291018084116114a657505050928452505060408051808201918290526020909301929150600a840190600290826000855b825461010083900a900460ff1615158152602060019283018181049485019490930390920291018084116114fc579050505050505081525050905080608001511515600115151461158a5760405162461bcd60e51b8152602060048201526018602482015277129bd89cce88129bd8881a5cc81b9bdd081cdd185c9d195960421b60448201526064016105af565b80602001516001600160a01b0316826001600160a01b0316036115b657610140810151600190526115e3565b8061010001516001600160a01b0316826001600160a01b0316036115e35761014081015160016020909101525b6101408101515180156115fc5750610140810151602001515b1561162d576000868152600d6020526040902060048101805460ff1916905560070180546001600160a01b03191690555b60405186907fd65f1725b53d7bea5b4ad3d2efb749458dcf6eab615404a5c718b3573b6b1e5d90600090a250600195945050505050565b6116ad6040518060e0016040528060006001600160a01b031681526020016060815260200160608152602001600081526020016000815260200160608152602001606081525090565b336000818152600c60205260409020546001600160a01b0316156117135760405162461bcd60e51b815260206004820152601c60248201527f4a6f62733a2050726f66696c6520616c7265616479206578697374730000000060448201526064016105af565b6001600160a01b03818116808452606084018590526000908152600c60209081526040909120845181546001600160a01b03191693169290921782558084015180518593926117699260018501929101906129b3565b50604082015180516117859160028401916020909101906129b3565b50606082015160038201556080820151600482015560a082015180516117b59160058401916020909101906129b3565b5060c082015180516117d19160068401916020909101906129b3565b50506040518491506001600160a01b038316907fe4389ab9c67cce68e65561d8fc2fabf4d88b4c66a0874e1b7980682de416818990600090a350919050565b61085483838360405180602001604052806000815250611fff565b600d6020526000908152604090208054600182015460028301546003840154600485015460058601805495966001600160a01b03909516959394929360ff80841694610100909404169291906118809061318f565b80601f01602080910402602001604051908101604052809291908181526020018280546118ac9061318f565b80156118f95780601f106118ce576101008083540402835291602001916118f9565b820191906000526020600020905b8154815290600101906020018083116118dc57829003601f168201915b505050600790930154919250506001600160a01b031688565b6000818152600260205260408120546001600160a01b0316806104b95760405162461bcd60e51b8152602060048201526018602482015277115490cdcc8c4e881a5b9d985b1a59081d1bdad95b88125160421b60448201526064016105af565b60006001600160a01b0382166119dc5760405162461bcd60e51b815260206004820152602960248201527f4552433732313a2061646472657373207a65726f206973206e6f7420612076616044820152683634b21037bbb732b960b91b60648201526084016105af565b506001600160a01b031660009081526003602052604090205490565b611a006124dd565b611a0a6000612537565b565b6060600180546104ce9061318f565b611a26338383612589565b5050565b611a326129fe565b600260075403611a845760405162461bcd60e51b815260206004820152601f60248201527f5265656e7472616e637947756172643a207265656e7472616e742063616c6c0060448201526064016105af565b60026007558415801590611a985750600084115b8015611b185750600b546040516370a0823160e01b81523360048201526001600160a01b03909116906370a0823190602401602060405180830381865afa158015611ae7573d6000803e3d6000fd5b505050506040513d601f19601f82011682018060405250810190611b0b919061329e565b611b158587613213565b11155b611b5b5760405162461bcd60e51b81526020600482015260146024820152732537b1399d1024b73b30b634b210373ab6b132b960611b60448201526064016105af565b6009546000908152600d60205260409020600101546001600160a01b031615611bc65760405162461bcd60e51b815260206004820152601760248201527f4a6f62733a204a6f6220616c726561647920657869737400000000000000000060448201526064016105af565b600160096000828254611bd99190613213565b90915550506009548152336020808301919091526040808301879052606083018690528051601f8501839004830281018301909152838152908490849081908401838280828437600092018290525060c086019485526009548152600d602090815260409182902087518155908701516001820180546001600160a01b039092166001600160a01b031990921691909117905590860151600282015560608601516003820155608086015160048201805460a089015115156101000261ff00199315159390931661ffff1990911617919091179055935185949350600584019250611cc5915082613307565b5060e08201518051611ce1916006840191602090910190612a80565b506101008201516007820180546001600160a01b0319166001600160a01b039092169190911790556101208201518051611d25916008840191602090910190612a80565b50610140820151611d3c9060098301906002612ad5565b50610160820151611d5390600a8301906002612ad5565b5050600b546001600160a01b0316905063a9059cbb30611d738789613213565b6040516001600160e01b031960e085901b1681526001600160a01b03909216600483015260248201526044016020604051808303816000875af1158015611dbe573d6000803e3d6000fd5b505050506040513d601f19601f82011682018060405250810190611de29190613234565b5060095460408051878152602081018790529081019190915233907f4f9800e62c9b4277e866bd1064681b7a614cb058a97040fd71521f3268bdd7499060600160405180910390a26001600755949350505050565b6000828152600d60205260408120600101546001600160a01b03163314611ea05760405162461bcd60e51b815260206004820152601c60248201527f4a6f62733a204d7573742062652063726561746f72206f66206a6f620000000060448201526064016105af565b6001600160a01b0382166000908152600e6020908152604080832086845290915290205460ff16611f135760405162461bcd60e51b815260206004820152601e60248201527f4a6f623a204170706c6963616e742069736e2774206170706c79206a6f62000060448201526064016105af565b6000838152600d602052604090206004015460ff1615611f6b5760405162461bcd60e51b8152602060048201526013602482015272129bd88e88129bd8881899481cdd185c9d1959606a1b60448201526064016105af565b6000838152600d6020908152604080832060048101805460ff19166001908117909155600790910180546001600160a01b0388166001600160a01b03199091168117909155808552600c84528285206002018054928301815585529284200186905551909185917f15534970b35940bba5cf89e4ac4162b21988099d0b43254fb4df27d9973fa1e19190a350600192915050565b61200933836122ed565b6120255760405162461bcd60e51b81526004016105af90613251565b61203184848484612657565b50505050565b60606000600880546120489061318f565b90501161206e57604051806040016040528060018152602001600160fd1b8152506104b9565b6008805461207b9061318f565b80601f01602080910402602001604051908101604052809291908181526020018280546120a79061318f565b80156120f45780601f106120c9576101008083540402835291602001916120f4565b820191906000526020600020905b8154815290600101906020018083116120d757829003601f168201915b505050505092915050565b6008805461210c9061318f565b80601f01602080910402602001604051908101604052809291908181526020018280546121389061318f565b80156121855780601f1061215a57610100808354040283529160200191612185565b820191906000526020600020905b81548152906001019060200180831161216857829003601f168201915b505050505081565b6121956124dd565b6001600160a01b0381166121fa5760405162461bcd60e51b815260206004820152602660248201527f4f776e61626c653a206e6577206f776e657220697320746865207a65726f206160448201526564647265737360d01b60648201526084016105af565b61220381612537565b50565b6000818152600260205260409020546001600160a01b03166122035760405162461bcd60e51b8152602060048201526018602482015277115490cdcc8c4e881a5b9d985b1a59081d1bdad95b88125160421b60448201526064016105af565b600081815260046020526040902080546001600160a01b0319166001600160a01b038416908117909155819061229a82611912565b6001600160a01b03167f8c5be1e5ebec7d5bd14f71427d1e84f3dd0314c0f7b2291e5b200ac8c7c3b92560405160405180910390a45050565b611a2682826040518060200160405280600081525061268a565b6000806122f983611912565b9050806001600160a01b0316846001600160a01b0316148061234057506001600160a01b0380821660009081526005602090815260408083209388168352929052205460ff165b806123645750836001600160a01b03166123598461071d565b6001600160a01b0316145b949350505050565b826001600160a01b031661237f82611912565b6001600160a01b0316146123a55760405162461bcd60e51b81526004016105af906133c7565b6001600160a01b0382166124075760405162461bcd60e51b8152602060048201526024808201527f4552433732313a207472616e7366657220746f20746865207a65726f206164646044820152637265737360e01b60648201526084016105af565b61241483838360016126bd565b826001600160a01b031661242782611912565b6001600160a01b03161461244d5760405162461bcd60e51b81526004016105af906133c7565b600081815260046020908152604080832080546001600160a01b03199081169091556001600160a01b0387811680865260038552838620805460001901905590871680865283862080546001019055868652600290945282852080549092168417909155905184937fddf252ad1be2c89b69c2b068fc378daa952ba7f163c4a11628f55a4df523b3ef91a4505050565b6006546001600160a01b03163314611a0a5760405162461bcd60e51b815260206004820181905260248201527f4f776e61626c653a2063616c6c6572206973206e6f7420746865206f776e657260448201526064016105af565b600680546001600160a01b038381166001600160a01b0319831681179093556040519116919082907f8be0079c531659141344cd1fd0a4f28419497f9722a3daafe3b4186f6b6457e090600090a35050565b816001600160a01b0316836001600160a01b0316036125ea5760405162461bcd60e51b815260206004820152601960248201527f4552433732313a20617070726f766520746f2063616c6c65720000000000000060448201526064016105af565b6001600160a01b03838116600081815260056020908152604080832094871680845294825291829020805460ff191686151590811790915591519182527f17307eab39ab6107e8899845ad3d59bd9653f200f220920489ca2b5937696c31910160405180910390a3505050565b61266284848461236c565b61266e84848484612719565b6120315760405162461bcd60e51b81526004016105af9061340c565b612694838361281a565b6126a16000848484612719565b6108545760405162461bcd60e51b81526004016105af9061340c565b6001600160a01b038416156127145760405162461bcd60e51b815260206004820152601c60248201527f4a6f62733a20546f6b656e206e6f74207472616e7366657261626c650000000060448201526064016105af565b612031565b60006001600160a01b0384163b1561280f57604051630a85bd0160e11b81526001600160a01b0385169063150b7a029061275d90339089908890889060040161345e565b6020604051808303816000875af1925050508015612798575060408051601f3d908101601f191682019092526127959181019061349b565b60015b6127f5573d8080156127c6576040519150601f19603f3d011682016040523d82523d6000602084013e6127cb565b606091505b5080516000036127ed5760405162461bcd60e51b81526004016105af9061340c565b805181602001fd5b6001600160e01b031916630a85bd0160e11b149050612364565b506001949350505050565b6001600160a01b0382166128705760405162461bcd60e51b815260206004820181905260248201527f4552433732313a206d696e7420746f20746865207a65726f206164647265737360448201526064016105af565b6000818152600260205260409020546001600160a01b0316156128d55760405162461bcd60e51b815260206004820152601c60248201527f4552433732313a20746f6b656e20616c7265616479206d696e7465640000000060448201526064016105af565b6128e36000838360016126bd565b6000818152600260205260409020546001600160a01b0316156129485760405162461bcd60e51b815260206004820152601c60248201527f4552433732313a20746f6b656e20616c7265616479206d696e7465640000000060448201526064016105af565b6001600160a01b038216600081815260036020908152604080832080546001019055848352600290915280822080546001600160a01b0319168417905551839291907fddf252ad1be2c89b69c2b068fc378daa952ba7f163c4a11628f55a4df523b3ef908290a45050565b8280548282559060005260206000209081019282156129ee579160200282015b828111156129ee5782518255916020019190600101906129d3565b506129fa929150612b5e565b5090565b6040518061018001604052806000815260200160006001600160a01b031681526020016000815260200160008152602001600015158152602001600015158152602001606081526020016060815260200160006001600160a01b0316815260200160608152602001612a6e612b73565b8152602001612a7b612b73565b905290565b8280548282559060005260206000209081019282156129ee579160200282015b828111156129ee57825182546001600160a01b0319166001600160a01b03909116178255602090920191600190910190612aa0565b6001830191839082156129ee5791602002820160005b83821115612b2857835183826101000a81548160ff0219169083151502179055509260200192600101602081600001049283019260010302612aeb565b8015612b555782816101000a81549060ff0219169055600101602081600001049283019260010302612b28565b50506129fa9291505b5b808211156129fa5760008155600101612b5f565b60405180604001604052806002906020820280368337509192915050565b6001600160e01b03198116811461220357600080fd5b600060208284031215612bb957600080fd5b8135612bc481612b91565b9392505050565b6000815180845260005b81811015612bf157602081850181015186830182015201612bd5565b506000602082860101526020601f19601f83011685010191505092915050565b602081526000612bc46020830184612bcb565b600060208284031215612c3657600080fd5b5035919050565b80356001600160a01b0381168114612c5457600080fd5b919050565b600060208284031215612c6b57600080fd5b612bc482612c3d565b60008060408385031215612c8757600080fd5b612c9083612c3d565b946020939093013593505050565b600080600060608486031215612cb357600080fd5b612cbc84612c3d565b9250612cca60208501612c3d565b9150604084013590509250925092565b60008060408385031215612ced57600080fd5b82359150612cfd60208401612c3d565b90509250929050565b60008151808452602080850194506020840160005b83811015612d3757815187529582019590820190600101612d1b565b509495945050505050565b602080825282516001600160a01b03168282015282015160e06040830152600090612d71610100840182612d06565b90506040840151601f1980858403016060860152612d8f8383612d06565b925060608601516080860152608086015160a086015260a08601519150808584030160c0860152612dc08383612d06565b925060c08601519150808584030160e086015250612dde8282612d06565b95945050505050565b60006101008a835260018060a01b03808b166020850152896040850152886060850152871515608085015286151560a08501528160c0850152612e2c82850187612bcb565b925080851660e085015250509998505050505050505050565b801515811461220357600080fd5b60008060408385031215612e6657600080fd5b612e6f83612c3d565b91506020830135612e7f81612e45565b809150509250929050565b60008060008060608587031215612ea057600080fd5b8435935060208501359250604085013567ffffffffffffffff80821115612ec657600080fd5b818701915087601f830112612eda57600080fd5b813581811115612ee957600080fd5b886020828501011115612efb57600080fd5b95989497505060200194505050565b60008151808452602080850194506020840160005b83811015612d375781516001600160a01b031687529582019590820190600101612f1f565b8060005b60028110156120315781511515845260209384019390910190600101612f48565b602081528151602082015260006020830151612f9060408401826001600160a01b03169052565b5060408301516060830152606083015160808301526080830151612fb860a084018215159052565b5060a083015180151560c08401525060c08301516101c060e0840152612fe26101e0840182612bcb565b905060e0840151601f196101008186850301818701526130028484612f0a565b935080870151925050610120613022818701846001600160a01b03169052565b8087015192505061014081868503018187015261303f8484612f0a565b9350808701519250505061016061305881860183612f44565b850151905061306b6101a0850182612f44565b509392505050565b634e487b7160e01b600052604160045260246000fd5b6000806000806080858703121561309f57600080fd5b6130a885612c3d565b93506130b660208601612c3d565b925060408501359150606085013567ffffffffffffffff808211156130da57600080fd5b818701915087601f8301126130ee57600080fd5b81358181111561310057613100613073565b604051601f8201601f19908116603f0116810190838211818310171561312857613128613073565b816040528281528a602084870101111561314157600080fd5b82602086016020830137600060208483010152809550505050505092959194509250565b6000806040838503121561317857600080fd5b61318183612c3d565b9150612cfd60208401612c3d565b600181811c908216806131a357607f821691505b6020821081036111e357634e487b7160e01b600052602260045260246000fd5b60208082526030908201527f4a6f62733a204f6e6c792063726561746f72206f72204b4f4c2063616e20636f60408201526f373334b9369031b7b6b83632ba34b7b760811b606082015260800190565b808201808211156104b957634e487b7160e01b600052601160045260246000fd5b60006020828403121561324657600080fd5b8151612bc481612e45565b6020808252602d908201527f4552433732313a2063616c6c6572206973206e6f7420746f6b656e206f776e6560408201526c1c881bdc88185c1c1c9bdd9959609a1b606082015260800190565b6000602082840312156132b057600080fd5b5051919050565b601f821115610854576000816000526020600020601f850160051c810160208610156132e05750805b601f850160051c820191505b818110156132ff578281556001016132ec565b505050505050565b815167ffffffffffffffff81111561332157613321613073565b6133358161332f845461318f565b846132b7565b602080601f83116001811461336a57600084156133525750858301515b600019600386901b1c1916600185901b1785556132ff565b600085815260208120601f198616915b828110156133995788860151825594840194600190910190840161337a565b50858210156133b75787850151600019600388901b60f8161c191681555b5050505050600190811b01905550565b60208082526025908201527f4552433732313a207472616e736665722066726f6d20696e636f72726563742060408201526437bbb732b960d91b606082015260800190565b60208082526032908201527f4552433732313a207472616e7366657220746f206e6f6e20455243373231526560408201527131b2b4bb32b91034b6b83632b6b2b73a32b960711b606082015260800190565b6001600160a01b038581168252841660208201526040810183905260806060820181905260009061349190830184612bcb565b9695505050505050565b6000602082840312156134ad57600080fd5b8151612bc481612b9156fea26469706673582212205e1ad10e8f639d2db9f2503bdbcb7f3b95b05d74aa27a24f99de45a03625828664736f6c63430008180033","linkReferences":{}},"methodIdentifiers":{"acceptJobs(uint256)":"2474639c","applyJobs(uint256)":"080f404d","approve(address,uint256)":"095ea7b3","balanceOf(address)":"70a08231","baseTokenURI()":"d547cfb7","cancelJobs(uint256)":"2e80f70a","completeJobs(uint256)":"0adce2d0","createJobs(uint256,uint256,string)":"a36b5fde","createProfile(uint256)":"33bc3ccf","getApproved(uint256)":"081812fc","inviteKol(uint256,address)":"23db9ded","isApprovedForAll(address,address)":"e985e9c5","jobInfo(uint256)":"5ce5ee69","kolsInfo(address)":"081cc7ac","name()":"06fdde03","owner()":"8da5cb5b","ownerOf(uint256)":"6352211e","renounceOwnership()":"715018a6","safeTransferFrom(address,address,uint256)":"42842e0e","safeTransferFrom(address,address,uint256,bytes)":"b88d4fde","setApprovalForAll(address,bool)":"a22cb465","startJobs(uint256,address)":"ad7b2c76","supportsInterface(bytes4)":"01ffc9a7","symbol()":"95d89b41","tokenURI(uint256)":"c87b56dd","transferFrom(address,address,uint256)":"23b872dd","transferOwnership(address)":"f2fde38b"},"id":2}