{"abi":[{"type":"constructor","inputs":[],"stateMutability":"nonpayable"},{"type":"function","name":"allowance","inputs":[{"name":"","type":"address","internalType":"address"},{"name":"","type":"address","internalType":"address"}],"outputs":[{"name":"","type":"uint256","internalType":"uint256"}],"stateMutability":"view"},{"type":"function","name":"approve","inputs":[{"name":"spender","type":"address","internalType":"address"},{"name":"amountOrId","type":"uint256","internalType":"uint256"}],"outputs":[{"name":"","type":"bool","internalType":"bool"}],"stateMutability":"nonpayable"},{"type":"function","name":"balanceOf","inputs":[{"name":"","type":"address","internalType":"address"}],"outputs":[{"name":"","type":"uint256","internalType":"uint256"}],"stateMutability":"view"},{"type":"function","name":"baseTokenURI","inputs":[],"outputs":[{"name":"","type":"string","internalType":"string"}],"stateMutability":"view"},{"type":"function","name":"decimals","inputs":[],"outputs":[{"name":"","type":"uint8","internalType":"uint8"}],"stateMutability":"view"},{"type":"function","name":"getApproved","inputs":[{"name":"","type":"uint256","internalType":"uint256"}],"outputs":[{"name":"","type":"address","internalType":"address"}],"stateMutability":"view"},{"type":"function","name":"isApprovedForAll","inputs":[{"name":"","type":"address","internalType":"address"},{"name":"","type":"address","internalType":"address"}],"outputs":[{"name":"","type":"bool","internalType":"bool"}],"stateMutability":"view"},{"type":"function","name":"minted","inputs":[],"outputs":[{"name":"","type":"uint256","internalType":"uint256"}],"stateMutability":"view"},{"type":"function","name":"name","inputs":[],"outputs":[{"name":"","type":"string","internalType":"string"}],"stateMutability":"view"},{"type":"function","name":"owner","inputs":[],"outputs":[{"name":"","type":"address","internalType":"address"}],"stateMutability":"view"},{"type":"function","name":"ownerOf","inputs":[{"name":"id","type":"uint256","internalType":"uint256"}],"outputs":[{"name":"owner","type":"address","internalType":"address"}],"stateMutability":"view"},{"type":"function","name":"revokeOwnership","inputs":[],"outputs":[],"stateMutability":"nonpayable"},{"type":"function","name":"safeTransferFrom","inputs":[{"name":"from","type":"address","internalType":"address"},{"name":"to","type":"address","internalType":"address"},{"name":"id","type":"uint256","internalType":"uint256"}],"outputs":[],"stateMutability":"nonpayable"},{"type":"function","name":"safeTransferFrom","inputs":[{"name":"from","type":"address","internalType":"address"},{"name":"to","type":"address","internalType":"address"},{"name":"id","type":"uint256","internalType":"uint256"},{"name":"data","type":"bytes","internalType":"bytes"}],"outputs":[],"stateMutability":"nonpayable"},{"type":"function","name":"setApprovalForAll","inputs":[{"name":"operator","type":"address","internalType":"address"},{"name":"approved","type":"bool","internalType":"bool"}],"outputs":[],"stateMutability":"nonpayable"},{"type":"function","name":"setNameSymbol","inputs":[{"name":"_name","type":"string","internalType":"string"},{"name":"_symbol","type":"string","internalType":"string"}],"outputs":[],"stateMutability":"nonpayable"},{"type":"function","name":"setTokenURI","inputs":[{"name":"_tokenURI","type":"string","internalType":"string"}],"outputs":[],"stateMutability":"nonpayable"},{"type":"function","name":"setWhitelist","inputs":[{"name":"target","type":"address","internalType":"address"},{"name":"state","type":"bool","internalType":"bool"}],"outputs":[],"stateMutability":"nonpayable"},{"type":"function","name":"symbol","inputs":[],"outputs":[{"name":"","type":"string","internalType":"string"}],"stateMutability":"view"},{"type":"function","name":"tokenURI","inputs":[{"name":"id","type":"uint256","internalType":"uint256"}],"outputs":[{"name":"","type":"string","internalType":"string"}],"stateMutability":"view"},{"type":"function","name":"totalSupply","inputs":[],"outputs":[{"name":"","type":"uint256","internalType":"uint256"}],"stateMutability":"view"},{"type":"function","name":"transfer","inputs":[{"name":"to","type":"address","internalType":"address"},{"name":"amount","type":"uint256","internalType":"uint256"}],"outputs":[{"name":"","type":"bool","internalType":"bool"}],"stateMutability":"nonpayable"},{"type":"function","name":"transferFrom","inputs":[{"name":"from","type":"address","internalType":"address"},{"name":"to","type":"address","internalType":"address"},{"name":"amountOrId","type":"uint256","internalType":"uint256"}],"outputs":[],"stateMutability":"nonpayable"},{"type":"function","name":"transferOwnership","inputs":[{"name":"_owner","type":"address","internalType":"address"}],"outputs":[],"stateMutability":"nonpayable"},{"type":"function","name":"whitelist","inputs":[{"name":"","type":"address","internalType":"address"}],"outputs":[{"name":"","type":"bool","internalType":"bool"}],"stateMutability":"view"},{"type":"event","name":"Approval","inputs":[{"name":"owner","type":"address","indexed":true,"internalType":"address"},{"name":"spender","type":"address","indexed":true,"internalType":"address"},{"name":"amount","type":"uint256","indexed":false,"internalType":"uint256"}],"anonymous":false},{"type":"event","name":"ApprovalForAll","inputs":[{"name":"owner","type":"address","indexed":true,"internalType":"address"},{"name":"operator","type":"address","indexed":true,"internalType":"address"},{"name":"approved","type":"bool","indexed":false,"internalType":"bool"}],"anonymous":false},{"type":"event","name":"ERC20Transfer","inputs":[{"name":"from","type":"address","indexed":true,"internalType":"address"},{"name":"to","type":"address","indexed":true,"internalType":"address"},{"name":"amount","type":"uint256","indexed":false,"internalType":"uint256"}],"anonymous":false},{"type":"event","name":"ERC721Approval","inputs":[{"name":"owner","type":"address","indexed":true,"internalType":"address"},{"name":"spender","type":"address","indexed":true,"internalType":"address"},{"name":"id","type":"uint256","indexed":true,"internalType":"uint256"}],"anonymous":false},{"type":"event","name":"OwnershipTransferred","inputs":[{"name":"user","type":"address","indexed":true,"internalType":"address"},{"name":"newOwner","type":"address","indexed":true,"internalType":"address"}],"anonymous":false},{"type":"event","name":"Transfer","inputs":[{"name":"from","type":"address","indexed":true,"internalType":"address"},{"name":"to","type":"address","indexed":true,"internalType":"address"},{"name":"id","type":"uint256","indexed":true,"internalType":"uint256"}],"anonymous":false},{"type":"error","name":"AlreadyExists","inputs":[]},{"type":"error","name":"InvalidOwner","inputs":[]},{"type":"error","name":"InvalidRecipient","inputs":[]},{"type":"error","name":"InvalidSender","inputs":[]},{"type":"error","name":"NotFound","inputs":[]},{"type":"error","name":"Unauthorized","inputs":[]},{"type":"error","name":"UnsafeRecipient","inputs":[]}],"bytecode":{"object":"0x60c06040523480156200001157600080fd5b50604080518082018252600880825267151bdad95b8d0c0d60c21b6020808401919091528351808501909452908352671513d2d1538d0c0d60c21b9083015290601261271033808062000077576040516349e27cff60e01b815260040160405180910390fd5b600080546001600160a01b0319166001600160a01b03831690811782556040519091907f8be0079c531659141344cd1fd0a4f28419497f9722a3daafe3b4186f6b6457e0908290a3506001620000ce868262000236565b506002620000dd858262000236565b5060ff83166080819052620000f490600a62000417565b6200010090836200042f565b60a052505033600081815260046020526040902069021e19e0c9bab2400000905562000133935091506001905062000139565b62000449565b6000546001600160a01b0316331462000164576040516282b42960e81b815260040160405180910390fd5b6001600160a01b03919091166000908152600b60205260409020805460ff1916911515919091179055565b634e487b7160e01b600052604160045260246000fd5b600181811c90821680620001ba57607f821691505b602082108103620001db57634e487b7160e01b600052602260045260246000fd5b50919050565b601f82111562000231576000816000526020600020601f850160051c810160208610156200020c5750805b601f850160051c820191505b818110156200022d5782815560010162000218565b5050505b505050565b81516001600160401b038111156200025257620002526200018f565b6200026a81620002638454620001a5565b84620001e1565b602080601f831160018114620002a25760008415620002895750858301515b600019600386901b1c1916600185901b1785556200022d565b600085815260208120601f198616915b82811015620002d357888601518255948401946001909101908401620002b2565b5085821015620002f25787850151600019600388901b60f8161c191681555b5050505050600190811b01905550565b634e487b7160e01b600052601160045260246000fd5b600181815b80851115620003595781600019048211156200033d576200033d62000302565b808516156200034b57918102915b93841c93908002906200031d565b509250929050565b600082620003725750600162000411565b81620003815750600062000411565b81600181146200039a5760028114620003a557620003c5565b600191505062000411565b60ff841115620003b957620003b962000302565b50506001821b62000411565b5060208310610133831016604e8410600b8410161715620003ea575081810a62000411565b620003f6838362000318565b80600019048211156200040d576200040d62000302565b0290505b92915050565b60006200042860ff84168362000361565b9392505050565b808202811582820484141762000411576200041162000302565b60805160a051611e4f6200047660003960006101ff0152600081816102510152610fb60152611e4f6000f3fe608060405234801561001057600080fd5b50600436106101735760003560e01c806370a08231116100de578063b88d4fde11610097578063dd62ed3e11610071578063dd62ed3e1461038c578063e0df5b6f146103b7578063e985e9c5146103ca578063f2fde38b146103f857600080fd5b8063b88d4fde1461035e578063c87b56dd14610371578063d547cfb71461038457600080fd5b806370a08231146102da5780638da5cb5b146102fa57806395d89b411461030d5780639b19251a14610315578063a22cb46514610338578063a9059cbb1461034b57600080fd5b8063313ce56711610130578063313ce5671461024c57806342842e0e146102855780634f02c42014610298578063504334c2146102a157806353d6fd59146102b45780636352211e146102c757600080fd5b806306fdde0314610178578063081812fc14610196578063095ea7b3146101d757806318160ddd146101fa57806323b872dd1461022f5780632b96895814610244575b600080fd5b61018061040b565b60405161018d919061156a565b60405180910390f35b6101bf6101a436600461159d565b6006602052600090815260409020546001600160a01b031681565b6040516001600160a01b03909116815260200161018d565b6101ea6101e53660046115cd565b610499565b604051901515815260200161018d565b6102217f000000000000000000000000000000000000000000000000000000000000000081565b60405190815260200161018d565b61024261023d3660046115f7565b6105ea565b005b610242610973565b6102737f000000000000000000000000000000000000000000000000000000000000000081565b60405160ff909116815260200161018d565b6102426102933660046115f7565b6109d9565b61022160035481565b6102426102af3660046116d6565b610aae565b6102426102c236600461173a565b610ae6565b6101bf6102d536600461159d565b610b3b565b6102216102e8366004611776565b60046020526000908152604090205481565b6000546101bf906001600160a01b031681565b610180610b76565b6101ea610323366004611776565b600b6020526000908152604090205460ff1681565b61024261034636600461173a565b610b83565b6101ea6103593660046115cd565b610bef565b61024261036c366004611791565b610c03565b61018061037f36600461159d565b610cc6565b610180610ed0565b61022161039a36600461182c565b600560209081526000928352604080842090915290825290205481565b6102426103c536600461185f565b610edd565b6101ea6103d836600461182c565b600760209081526000928352604080842090915290825290205460ff1681565b610242610406366004611776565b610f13565b600180546104189061189c565b80601f01602080910402602001604051908101604052809291908181526020018280546104449061189c565b80156104915780601f1061046657610100808354040283529160200191610491565b820191906000526020600020905b81548152906001019060200180831161047457829003601f168201915b505050505081565b600060035482111580156104ad5750600082115b15610584576000828152600860205260409020546001600160a01b03163381148015906104fe57506001600160a01b038116600090815260076020908152604080832033845290915290205460ff16155b1561051b576040516282b42960e81b815260040160405180910390fd5b60008381526006602090815260409182902080546001600160a01b0319166001600160a01b038881169182179092559251868152908416917f8c5be1e5ebec7d5bd14f71427d1e84f3dd0314c0f7b2291e5b200ac8c7c3b925910160405180910390a3506105e0565b3360008181526005602090815260408083206001600160a01b03881680855290835292819020869055518581529192917f8c5be1e5ebec7d5bd14f71427d1e84f3dd0314c0f7b2291e5b200ac8c7c3b925910160405180910390a35b5060015b92915050565b6003548111610904576000818152600860205260409020546001600160a01b0384811691161461062d57604051636edaef2f60e11b815260040160405180910390fd5b6001600160a01b03821661065457604051634e46966960e11b815260040160405180910390fd5b336001600160a01b0384161480159061069157506001600160a01b038316600090815260076020908152604080832033845290915290205460ff16155b80156106b457506000818152600660205260409020546001600160a01b03163314155b156106d1576040516282b42960e81b815260040160405180910390fd5b6106d9610faf565b6001600160a01b038416600090815260046020526040812080549091906107019084906118ec565b9091555061070f9050610faf565b6001600160a01b03808416600081815260046020908152604080832080549096019095558582526008815284822080546001600160a01b031990811690941790556006815284822080549093169092559186168252600990529081208054610779906001906118ec565b81548110610789576107896118ff565b60009182526020808320909101546001600160a01b0387168352600982526040808420868552600a909352909220548154929350839281106107cd576107cd6118ff565b60009182526020808320909101929092556001600160a01b038616815260099091526040902080548061080257610802611915565b600082815260208082208301600019908101839055909201909255838252600a8152604080832054848452818420556001600160a01b03861680845260098352908320805460018181018355828652938520018690559252905461086691906118ec565b6000838152600a602052604080822092909255905183916001600160a01b0380871692908816917fddf252ad1be2c89b69c2b068fc378daa952ba7f163c4a11628f55a4df523b3ef91a4826001600160a01b0316846001600160a01b03167fe59fdd36d0d223c0c7d996db7ad796880f45e1936cb0bb7ac102e7082e0314876108ed610faf565b60405190815260200160405180910390a350505050565b6001600160a01b038316600090815260056020908152604080832033845290915290205460001981146109605761093b82826118ec565b6001600160a01b03851660009081526005602090815260408083203384529091529020555b61096b848484610fe1565b50505b505050565b6000546001600160a01b0316331461099d576040516282b42960e81b815260040160405180910390fd5b600080546001600160a01b031916815560405133907f8be0079c531659141344cd1fd0a4f28419497f9722a3daafe3b4186f6b6457e0908390a3565b6109e48383836105ea565b6001600160a01b0382163b15801590610a905750604051630a85bd0160e11b8082523360048301526001600160a01b03858116602484015260448301849052608060648401526000608484015290919084169063150b7a029060a4016020604051808303816000875af1158015610a5f573d6000803e3d6000fd5b505050506040513d601f19601f82011682018060405250810190610a83919061192b565b6001600160e01b03191614155b1561096e57604051633da6393160e01b815260040160405180910390fd5b6000546001600160a01b03163314610ad8576040516282b42960e81b815260040160405180910390fd5b610ae2828261118f565b5050565b6000546001600160a01b03163314610b10576040516282b42960e81b815260040160405180910390fd5b6001600160a01b03919091166000908152600b60205260409020805460ff1916911515919091179055565b6000818152600860205260409020546001600160a01b031680610b715760405163c5723b5160e01b815260040160405180910390fd5b919050565b600280546104189061189c565b3360008181526007602090815260408083206001600160a01b03871680855290835292819020805460ff191686151590811790915590519081529192917f17307eab39ab6107e8899845ad3d59bd9653f200f220920489ca2b5937696c31910160405180910390a35050565b6000610bfc338484610fe1565b9392505050565b610c0e8585856105ea565b6001600160a01b0384163b15801590610ca85750604051630a85bd0160e11b808252906001600160a01b0386169063150b7a0290610c589033908a90899089908990600401611955565b6020604051808303816000875af1158015610c77573d6000803e3d6000fd5b505050506040513d601f19601f82011682018060405250810190610c9b919061192b565b6001600160e01b03191614155b1561096b57604051633da6393160e01b815260040160405180910390fd5b60606000600c8054610cd79061189c565b90501115610d1157600c610cea836111a8565b604051602001610cfb9291906119a9565b6040516020818303038152906040529050919050565b600082604051602001610d2691815260200190565b6040516020818303038152906040528051906020012060f81c9050606080607f8360ff1611610d865750506040805160208082018352600082528251808401909352600c83526b27b930b733b2902a37b5b2b760a11b9083015290610dc3565b60ff8360ff1611610dc35750506040805160208082018352600082528251808401909352600b83526a23b932b2b7102a37b5b2b760a91b90830152905b6000610dce866111a8565b604051602001610dde9190611a30565b60408051601f1981840301815290829052610dfb91602001611a6d565b60408051601f1981840301815290829052610e1a918590602001611b2c565b6040516020818303038152906040529050600082604051602001610e3e9190611b52565b60408051601f1981840301815282820182526004835263227d5d7d60e01b6020848101919091529151909350610e78918591859101611b2c565b60408051601f1981840301815290829052610e97918390602001611b2c565b60408051601f1981840301815290829052610eb491602001611baf565b6040516020818303038152906040529650505050505050919050565b600c80546104189061189c565b6000546001600160a01b03163314610f07576040516282b42960e81b815260040160405180910390fd5b600c610ae28282611c44565b6000546001600160a01b03163314610f3d576040516282b42960e81b815260040160405180910390fd5b6001600160a01b038116610f64576040516349e27cff60e01b815260040160405180910390fd5b600080546001600160a01b0319166001600160a01b0383169081178255604051909133917f8be0079c531659141344cd1fd0a4f28419497f9722a3daafe3b4186f6b6457e09190a350565b6000610fdc7f0000000000000000000000000000000000000000000000000000000000000000600a611de8565b905090565b600080610fec610faf565b6001600160a01b038087166000818152600460205260408082208054948a168352908220549282529394509192909186919061102883866118ec565b90915550506001600160a01b03808716600090815260046020908152604080832080548a019055928a168252600b9052205460ff166110ba576001600160a01b038716600090815260046020526040812054611085908590611df7565b61108f8585611df7565b61109991906118ec565b905060005b818110156110b7576110af8961123b565b60010161109e565b50505b6001600160a01b0386166000908152600b602052604090205460ff166111355760006110e68483611df7565b6001600160a01b03881660009081526004602052604090205461110a908690611df7565b61111491906118ec565b905060005b818110156111325761112a88611363565b600101611119565b50505b856001600160a01b0316876001600160a01b03167fe59fdd36d0d223c0c7d996db7ad796880f45e1936cb0bb7ac102e7082e0314878760405161117a91815260200190565b60405180910390a35060019695505050505050565b600161119b8382611c44565b50600261096e8282611c44565b606060006111b58361146e565b600101905060008167ffffffffffffffff8111156111d5576111d5611633565b6040519080825280601f01601f1916602001820160405280156111ff576020820181803683370190505b5090508181016020015b600019016f181899199a1a9b1b9c1cb0b131b232b360811b600a86061a8153600a850494508461120957509392505050565b6001600160a01b03811661126257604051636edaef2f60e11b815260040160405180910390fd5b6001600160a01b03811660009081526009602052604081208054611288906001906118ec565b81548110611298576112986118ff565b9060005260206000200154905060096000836001600160a01b03166001600160a01b031681526020019081526020016000208054806112d9576112d9611915565b600082815260208082208301600019908101839055909201909255828252600a815260408083208390556008825280832080546001600160a01b031990811690915560069092528083208054909216909155518291906001600160a01b038516907fddf252ad1be2c89b69c2b068fc378daa952ba7f163c4a11628f55a4df523b3ef908390a45050565b6001600160a01b03811661138a57604051634e46966960e11b815260040160405180910390fd5b60038054600101908190556000818152600860205260409020546001600160a01b0316156113cb5760405163119b4fd360e11b815260040160405180910390fd5b600081815260086020908152604080832080546001600160a01b0319166001600160a01b03871690811790915580845260098352908320805460018181018355828652938520018590559252905461142391906118ec565b6000828152600a602052604080822092909255905182916001600160a01b038516917fddf252ad1be2c89b69c2b068fc378daa952ba7f163c4a11628f55a4df523b3ef908290a45050565b60008072184f03e93ff9f4daa797ed6e38ed64bf6a1f0160401b83106114ad5772184f03e93ff9f4daa797ed6e38ed64bf6a1f0160401b830492506040015b6d04ee2d6d415b85acef810000000083106114d9576d04ee2d6d415b85acef8100000000830492506020015b662386f26fc1000083106114f757662386f26fc10000830492506010015b6305f5e100831061150f576305f5e100830492506008015b612710831061152357612710830492506004015b60648310611535576064830492506002015b600a83106105e45760010192915050565b60005b83811015611561578181015183820152602001611549565b50506000910152565b6020815260008251806020840152611589816040850160208701611546565b601f01601f19169190910160400192915050565b6000602082840312156115af57600080fd5b5035919050565b80356001600160a01b0381168114610b7157600080fd5b600080604083850312156115e057600080fd5b6115e9836115b6565b946020939093013593505050565b60008060006060848603121561160c57600080fd5b611615846115b6565b9250611623602085016115b6565b9150604084013590509250925092565b634e487b7160e01b600052604160045260246000fd5b600082601f83011261165a57600080fd5b813567ffffffffffffffff8082111561167557611675611633565b604051601f8301601f19908116603f0116810190828211818310171561169d5761169d611633565b816040528381528660208588010111156116b657600080fd5b836020870160208301376000602085830101528094505050505092915050565b600080604083850312156116e957600080fd5b823567ffffffffffffffff8082111561170157600080fd5b61170d86838701611649565b9350602085013591508082111561172357600080fd5b5061173085828601611649565b9150509250929050565b6000806040838503121561174d57600080fd5b611756836115b6565b91506020830135801515811461176b57600080fd5b809150509250929050565b60006020828403121561178857600080fd5b610bfc826115b6565b6000806000806000608086880312156117a957600080fd5b6117b2866115b6565b94506117c0602087016115b6565b935060408601359250606086013567ffffffffffffffff808211156117e457600080fd5b818801915088601f8301126117f857600080fd5b81358181111561180757600080fd5b89602082850101111561181957600080fd5b9699959850939650602001949392505050565b6000806040838503121561183f57600080fd5b611848836115b6565b9150611856602084016115b6565b90509250929050565b60006020828403121561187157600080fd5b813567ffffffffffffffff81111561188857600080fd5b61189484828501611649565b949350505050565b600181811c908216806118b057607f821691505b6020821081036118d057634e487b7160e01b600052602260045260246000fd5b50919050565b634e487b7160e01b600052601160045260246000fd5b818103818111156105e4576105e46118d6565b634e487b7160e01b600052603260045260246000fd5b634e487b7160e01b600052603160045260246000fd5b60006020828403121561193d57600080fd5b81516001600160e01b031981168114610bfc57600080fd5b6001600160a01b038681168252851660208201526040810184905260806060820181905281018290526000828460a0840137600060a0848401015260a0601f19601f85011683010190509695505050505050565b60008084546119b78161189c565b600182811680156119cf57600181146119e457611a13565b60ff1984168752821515830287019450611a13565b8860005260208060002060005b85811015611a0a5781548a8201529084019082016119f1565b50505082870194505b505050508351611a27818360208801611546565b01949350505050565b737b226e616d65223a2022546f6b656e343034202360601b81528151600090611a60816014850160208701611546565b9190910160140192915050565b60008251611a7f818460208701611546565b7f222c226465736372697074696f6e223a224120636f6c6c656374696f6e206f669201918252507f2031302c303030205265706c6963616e747320656e61626c656420627920455260208201527f43343034202d20616e206578706572696d656e74616c20746f6b656e2073746160408201527f6e646172642e222c2265787465726e616c5f75726c223a22222c22696d616765606082015262111d1160e91b6080820152608301919050565b60008351611b3e818460208801611546565b835190830190611a27818360208801611546565b7f222c2261747472696275746573223a5b7b2274726169745f74797065223a224381526e37b637b91116113b30b63ab2911d1160891b602082015260008251611ba281602f850160208701611546565b91909101602f0192915050565b7f646174613a6170706c69636174696f6e2f6a736f6e3b757466382c0000000000815260008251611be781601b850160208701611546565b91909101601b0192915050565b601f82111561096e576000816000526020600020601f850160051c81016020861015611c1d5750805b601f850160051c820191505b81811015611c3c57828155600101611c29565b505050505050565b815167ffffffffffffffff811115611c5e57611c5e611633565b611c7281611c6c845461189c565b84611bf4565b602080601f831160018114611ca75760008415611c8f5750858301515b600019600386901b1c1916600185901b178555611c3c565b600085815260208120601f198616915b82811015611cd657888601518255948401946001909101908401611cb7565b5085821015611cf45787850151600019600388901b60f8161c191681555b5050505050600190811b01905550565b600181815b80851115611d3f578160001904821115611d2557611d256118d6565b80851615611d3257918102915b93841c9390800290611d09565b509250929050565b600082611d56575060016105e4565b81611d63575060006105e4565b8160018114611d795760028114611d8357611d9f565b60019150506105e4565b60ff841115611d9457611d946118d6565b50506001821b6105e4565b5060208310610133831016604e8410600b8410161715611dc2575081810a6105e4565b611dcc8383611d04565b8060001904821115611de057611de06118d6565b029392505050565b6000610bfc60ff841683611d47565b600082611e1457634e487b7160e01b600052601260045260246000fd5b50049056fea26469706673582212200612916afd27ec9d012186fc2163532d54e01f4b36fb58cf0ff8f6a6aeb8605264736f6c63430008180033","linkReferences":{}},"methodIdentifiers":{"allowance(address,address)":"dd62ed3e","approve(address,uint256)":"095ea7b3","balanceOf(address)":"70a08231","baseTokenURI()":"d547cfb7","decimals()":"313ce567","getApproved(uint256)":"081812fc","isApprovedForAll(address,address)":"e985e9c5","minted()":"4f02c420","name()":"06fdde03","owner()":"8da5cb5b","ownerOf(uint256)":"6352211e","revokeOwnership()":"2b968958","safeTransferFrom(address,address,uint256)":"42842e0e","safeTransferFrom(address,address,uint256,bytes)":"b88d4fde","setApprovalForAll(address,bool)":"a22cb465","setNameSymbol(string,string)":"504334c2","setTokenURI(string)":"e0df5b6f","setWhitelist(address,bool)":"53d6fd59","symbol()":"95d89b41","tokenURI(uint256)":"c87b56dd","totalSupply()":"18160ddd","transfer(address,uint256)":"a9059cbb","transferFrom(address,address,uint256)":"23b872dd","transferOwnership(address)":"f2fde38b","whitelist(address)":"9b19251a"},"id":4}