{
	"data": {
		"bytecode": {
			"linkReferences": {},
			"object": "608060405234801562000010575f80fd5b5060405162003c8438038062003c848339810160408190526200003391620001b2565b82825f620000428382620002c3565b506001620000518282620002c3565b5050506200006e620000686200009c60201b60201c565b620000a0565b6001600755600b80546001600160a01b0319166001600160a01b0392909216919091179055506200038f9050565b3390565b600680546001600160a01b038381166001600160a01b0319831681179093556040519116919082907f8be0079c531659141344cd1fd0a4f28419497f9722a3daafe3b4186f6b6457e0905f90a35050565b634e487b7160e01b5f52604160045260245ffd5b5f82601f83011262000115575f80fd5b81516001600160401b0380821115620001325762000132620000f1565b604051601f8301601f19908116603f011681019082821181831017156200015d576200015d620000f1565b81604052838152602092508660208588010111156200017a575f80fd5b5f91505b838210156200019d57858201830151818301840152908201906200017e565b5f602085830101528094505050505092915050565b5f805f60608486031215620001c5575f80fd5b83516001600160401b0380821115620001dc575f80fd5b620001ea8783880162000105565b9450602086015191508082111562000200575f80fd5b506200020f8682870162000105565b604086015190935090506001600160a01b03811681146200022e575f80fd5b809150509250925092565b600181811c908216806200024e57607f821691505b6020821081036200026d57634e487b7160e01b5f52602260045260245ffd5b50919050565b601f821115620002be57805f5260205f20601f840160051c810160208510156200029a5750805b601f840160051c820191505b81811015620002bb575f8155600101620002a6565b50505b505050565b81516001600160401b03811115620002df57620002df620000f1565b620002f781620002f0845462000239565b8462000273565b602080601f8311600181146200032d575f8415620003155750858301515b5f19600386901b1c1916600185901b17855562000387565b5f85815260208120601f198616915b828110156200035d578886015182559484019460019091019084016200033c565b50858210156200037b57878501515f19600388901b60f8161c191681555b505060018460011b0185555b505050505050565b6138e7806200039d5f395ff3fe608060405234801561000f575f80fd5b50600436106101c6575f3560e01c80636352211e116100fe578063a36b5fde1161009e578063d547cfb71161006e578063d547cfb714610444578063e985e9c51461044c578063ead6219614610487578063f2fde38b1461049a575f80fd5b8063a36b5fde146103f8578063ad7b2c761461040b578063b88d4fde1461041e578063c87b56dd14610431575f80fd5b80637f4497d8116100d95780637f4497d8146103ac5780638da5cb5b146103cc57806395d89b41146103dd578063a22cb465146103e5575f80fd5b80636352211e1461037057806370a0823114610383578063715018a6146103a4575f80fd5b806323b872dd116101695780632e80f70a116101445780632e80f70a1461030357806333bc3ccf1461031657806342842e0e146103365780635ce5ee6914610349575f80fd5b806323b872dd146102ca57806323db9ded146102dd5780632474639c146102f0575f80fd5b8063081812fc116101a4578063081812fc1461021a578063081cc7ac14610245578063095ea7b3146102a25780630adce2d0146102b7575f80fd5b806301ffc9a7146101ca57806306fdde03146101f2578063080f404d14610207575b5f80fd5b6101dd6101d8366004612fdf565b6104ad565b60405190151581526020015b60405180910390f35b6101fa6104fe565b6040516101e99190613044565b6101dd610215366004613056565b61058d565b61022d610228366004613056565b610755565b6040516001600160a01b0390911681526020016101e9565b61027d610253366004613088565b600c6020525f90815260409020805460038201546004909201546001600160a01b03909116919083565b604080516001600160a01b0390941684526020840192909252908201526060016101e9565b6102b56102b03660046130a1565b61077a565b005b6101dd6102c5366004613056565b61088e565b6102b56102d83660046130c9565b610ea0565b6101dd6102eb366004613102565b610ed1565b6101dd6102fe366004613056565b6110cd565b6101dd610311366004613056565b611234565b610329610324366004613056565b6116a1565b6040516101e99190613166565b6102b56103443660046130c9565b611809565b61035c610357366004613056565b611823565b6040516101e998979695949392919061320a565b61022d61037e366004613056565b611907565b610396610391366004613088565b611966565b6040519081526020016101e9565b6102b56119ea565b6103bf6103ba366004613056565b6119fd565b6040516101e991906132c3565b6006546001600160a01b031661022d565b6101fa611c88565b6102b56103f33660046133d9565b611c97565b6103bf61040636600461340e565b611ca6565b6101dd610419366004613102565b6120b4565b6102b561042c36600461349b565b612278565b6101fa61043f366004613056565b6122b0565b6101fa612375565b6101dd61045a366004613570565b6001600160a01b039182165f90815260056020908152604080832093909416825291909152205460ff1690565b610329610495366004613088565b612401565b6102b56104a8366004613088565b6125a4565b5f6001600160e01b031982166380ac58cd60e01b14806104dd57506001600160e01b03198216635b5e139f60e01b145b806104f857506301ffc9a760e01b6001600160e01b03198316145b92915050565b60605f805461050c90613598565b80601f016020809104026020016040519081016040528092919081815260200182805461053890613598565b80156105835780601f1061055a57610100808354040283529160200191610583565b820191905f5260205f20905b81548152906001019060200180831161056657829003601f168201915b5050505050905090565b335f818152600c60205260408120549091906001600160a01b031681146105f35760405162461bcd60e51b8152602060048201526015602482015274129bd89cce88165bdd481b5d5cdd0818994812d3d3605a1b60448201526064015b60405180910390fd5b5f838152600d60205260409020600101546001600160a01b03166106545760405162461bcd60e51b8152602060048201526018602482015277129bd89cce88129bd888191bd95cc81b9bdd08195e1a5cdd60421b60448201526064016105ea565b5f838152600d602052604090206004015460ff16156106ab5760405162461bcd60e51b8152602060048201526013602482015272129bd88e88129bd8881899481cdd185c9d1959606a1b60448201526064016105ea565b6001600160a01b0381165f818152600e602090815260408083208784528252808320805460ff19166001908117909155848452600c83528184206005018054808301825590855283852001889055878452600d835281842060060180549182018155845291832090910180546001600160a01b03191684179055518592917f580957e7f405bf54f358d95420cb5bd1f4f2d15602f7c4984fcfb0f9cf0e946d91a350600192915050565b5f61075f8261261d565b505f908152600460205260409020546001600160a01b031690565b5f61078482611907565b9050806001600160a01b0316836001600160a01b0316036107f15760405162461bcd60e51b815260206004820152602160248201527f4552433732313a20617070726f76616c20746f2063757272656e74206f776e656044820152603960f91b60648201526084016105ea565b336001600160a01b038216148061080d575061080d813361045a565b61087f5760405162461bcd60e51b815260206004820152603d60248201527f4552433732313a20617070726f76652063616c6c6572206973206e6f7420746f60448201527f6b656e206f776e6572206f7220617070726f76656420666f7220616c6c00000060648201526084016105ea565b610889838361267b565b505050565b5f818152600d60205260408120600401548290610100900460ff16156108f65760405162461bcd60e51b815260206004820152601c60248201527f4a6f62733a204a6f62206d757374206e6f7420636f6d706c657465640000000060448201526064016105ea565b5f838152600d602052604090206001015483906001600160a01b031633148061093757505f818152600d60205260409020600701546001600160a01b031633145b6109535760405162461bcd60e51b81526004016105ea906135ca565b6002600754036109a55760405162461bcd60e51b815260206004820152601f60248201527f5265656e7472616e637947756172643a207265656e7472616e742063616c6c0060448201526064016105ea565b600260078190555f858152600d602090815260408083208151610180810183528154815260018201546001600160a01b031693810193909352938401549082015260038301546060820152600483015460ff8082161515608084015261010090910416151560a082015260058301805433949160c0840191610a2690613598565b80601f0160208091040260200160405190810160405280929190818152602001828054610a5290613598565b8015610a9d5780601f10610a7457610100808354040283529160200191610a9d565b820191905f5260205f20905b815481529060010190602001808311610a8057829003601f168201915b5050505050815260200160068201805480602002602001604051908101604052809291908181526020018280548015610afd57602002820191905f5260205f20905b81546001600160a01b03168152600190910190602001808311610adf575b505050918352505060078201546001600160a01b03166020808301919091526008830180546040805182850281018501825282815294019392830182828015610b6d57602002820191905f5260205f20905b81546001600160a01b03168152600190910190602001808311610b4f575b50505091835250506040805180820191829052602090920191906009840190600290825f855b825461010083900a900460ff161515815260206001928301818104948501949093039092029101808411610b9357505050928452505060408051808201918290526020909301929150600a840190600290825f855b825461010083900a900460ff161515815260206001928301818104948501949093039092029101808411610be85790505050505050815250509050806080015115156001151514610c765760405162461bcd60e51b8152602060048201526018602482015277129bd89cce88129bd8881a5cc81b9bdd081cdd185c9d195960421b60448201526064016105ea565b80602001516001600160a01b0316826001600160a01b031603610cb3575f868152600d60205260409020600a01805460ff19166001179055610cef565b8061010001516001600160a01b0316826001600160a01b031603610cef575f868152600d60205260409020600a01805461ff0019166101001790555b5f868152600d60205260409020600a015460ff168015610d2457505f868152600d60205260409020600a0154610100900460ff165b15610e52575f868152600d602090815260408083206004908101805461ff0019166101009081179091558501516001600160a01b03168452600c909252822001805460019290610d7590849061361a565b925050819055506001600a5f828254610d8e919061361a565b9091555050610100810180516001600160a01b03165f908152600c602090815260408220600a8054600192830180549384018155855292909320015590519054610dd891906126e8565b600b54606082015160405163a9059cbb60e01b815233600482015260248101919091526001600160a01b039091169063a9059cbb906044016020604051808303815f875af1158015610e2c573d5f803e3d5ffd5b505050506040513d601f19601f82011682018060405250810190610e509190613639565b505b8061010001516001600160a01b0316867fc78810a99b0991266cc67aacf9662fc123a1797dd46074ee5bfc801031a617bc60405160405180910390a360019450505050506001600755919050565b610eaa3382612701565b610ec65760405162461bcd60e51b81526004016105ea90613654565b61088983838361277e565b5f828152600d602052604081206001015483906001600160a01b0316610f345760405162461bcd60e51b8152602060048201526018602482015277129bd89cce88129bd888191bd95cc81b9bdd08195e1a5cdd60421b60448201526064016105ea565b5f848152600d6020526040902060040154849060ff1615610f975760405162461bcd60e51b815260206004820152601a60248201527f4a6f62733a204a6f62206d757374206e6f74207374617274656400000000000060448201526064016105ea565b5f858152600d602052604090206001015433906001600160a01b0316811461100b5760405162461bcd60e51b815260206004820152602160248201527f4a6f62733a204f6e6c792063726561746f722063616e20696e76697465206b6f6044820152601b60fa1b60648201526084016105ea565b6001600160a01b0385165f818152600f602090815260408083208a84528252808320805460ff19166001908117909155848452600c808452828520600601805480840182558187528587209081018e90558d8752600d8652848720600801805480860182559088528688200180546001600160a01b0319168917905591909452835491820184559284529091018990555188917f7318a8c4124a0cfda064ad24f3756d19f253f9ad52ddec58efdfbac1eb147dd091a350600195945050505050565b5f818152600d6020526040812060040154829060ff16156111305760405162461bcd60e51b815260206004820152601a60248201527f4a6f62733a204a6f62206d757374206e6f74207374617274656400000000000060448201526064016105ea565b335f818152600f6020908152604080832087845290915290205460ff16151560011461119e5760405162461bcd60e51b815260206004820152601e60248201527f4a6f623a207369676e6572206e6f7420696e766974656420746f206a6f62000060448201526064016105ea565b5f848152600d6020908152604080832060048101805460ff19166001908117909155600790910180546001600160a01b0387166001600160a01b03199091168117909155808552600c84528285206002018054928301815585529284200187905551909186917f15534970b35940bba5cf89e4ac4162b21988099d0b43254fb4df27d9973fa1e19190a360019250505b50919050565b5f818152600d60205260408120600401548290610100900460ff161561129c5760405162461bcd60e51b815260206004820152601c60248201527f4a6f62733a204a6f62206d757374206e6f7420636f6d706c657465640000000060448201526064016105ea565b5f838152600d602052604090206001015483906001600160a01b03163314806112dd57505f818152600d60205260409020600701546001600160a01b031633145b6112f95760405162461bcd60e51b81526004016105ea906135ca565b5f848152600d602090815260408083208151610180810183528154815260018201546001600160a01b03169381019390935260028101549183019190915260038101546060830152600481015460ff8082161515608085015261010090910416151560a0830152600581018054339493929160c084019161137990613598565b80601f01602080910402602001604051908101604052809291908181526020018280546113a590613598565b80156113f05780601f106113c7576101008083540402835291602001916113f0565b820191905f5260205f20905b8154815290600101906020018083116113d357829003601f168201915b505050505081526020016006820180548060200260200160405190810160405280929190818152602001828054801561145057602002820191905f5260205f20905b81546001600160a01b03168152600190910190602001808311611432575b505050918352505060078201546001600160a01b031660208083019190915260088301805460408051828502810185018252828152940193928301828280156114c057602002820191905f5260205f20905b81546001600160a01b031681526001909101906020018083116114a2575b50505091835250506040805180820191829052602090920191906009840190600290825f855b825461010083900a900460ff1615158152602060019283018181049485019490930390920291018084116114e657505050928452505060408051808201918290526020909301929150600a840190600290825f855b825461010083900a900460ff16151581526020600192830181810494850194909303909202910180841161153b57905050505050508152505090508060800151151560011515146115c95760405162461bcd60e51b8152602060048201526018602482015277129bd89cce88129bd8881a5cc81b9bdd081cdd185c9d195960421b60448201526064016105ea565b80602001516001600160a01b0316826001600160a01b0316036115f55761014081015160019052611622565b8061010001516001600160a01b0316826001600160a01b0316036116225761014081015160016020909101525b61014081015151801561163b5750610140810151602001515b1561166b575f868152600d6020526040902060048101805460ff1916905560070180546001600160a01b03191690555b60405186907fd65f1725b53d7bea5b4ad3d2efb749458dcf6eab615404a5c718b3573b6b1e5d905f90a250600195945050505050565b6116a9612db8565b335f818152600c60205260409020546001600160a01b03161561170e5760405162461bcd60e51b815260206004820152601c60248201527f4a6f62733a2050726f66696c6520616c7265616479206578697374730000000060448201526064016105ea565b6001600160a01b03818116808452606084018590525f908152600c60209081526040909120845181546001600160a01b0319169316929092178255808401518051859392611763926001850192910190612dfb565b506040820151805161177f916002840191602090910190612dfb565b50606082015160038201556080820151600482015560a082015180516117af916005840191602090910190612dfb565b5060c082015180516117cb916006840191602090910190612dfb565b50506040518491506001600160a01b038316907fe4389ab9c67cce68e65561d8fc2fabf4d88b4c66a0874e1b7980682de4168189905f90a350919050565b61088983838360405180602001604052805f815250612278565b600d6020525f908152604090208054600182015460028301546003840154600485015460058601805495966001600160a01b03909516959394929360ff808416946101009094041692919061187790613598565b80601f01602080910402602001604051908101604052809291908181526020018280546118a390613598565b80156118ee5780601f106118c5576101008083540402835291602001916118ee565b820191905f5260205f20905b8154815290600101906020018083116118d157829003601f168201915b505050600790930154919250506001600160a01b031688565b5f818152600260205260408120546001600160a01b0316806104f85760405162461bcd60e51b8152602060048201526018602482015277115490cdcc8c4e881a5b9d985b1a59081d1bdad95b88125160421b60448201526064016105ea565b5f6001600160a01b0382166119cf5760405162461bcd60e51b815260206004820152602960248201527f4552433732313a2061646472657373207a65726f206973206e6f7420612076616044820152683634b21037bbb732b960b91b60648201526084016105ea565b506001600160a01b03165f9081526003602052604090205490565b6119f26128ed565b6119fb5f612947565b565b611a05612e44565b5f828152600d60209081526040918290208251610180810184528154815260018201546001600160a01b03169281019290925260028101549282019290925260038201546060820152600482015460ff8082161515608084015261010090910416151560a082015260058201805491929160c084019190611a8590613598565b80601f0160208091040260200160405190810160405280929190818152602001828054611ab190613598565b8015611afc5780601f10611ad357610100808354040283529160200191611afc565b820191905f5260205f20905b815481529060010190602001808311611adf57829003601f168201915b5050505050815260200160068201805480602002602001604051908101604052809291908181526020018280548015611b5c57602002820191905f5260205f20905b81546001600160a01b03168152600190910190602001808311611b3e575b505050918352505060078201546001600160a01b03166020808301919091526008830180546040805182850281018501825282815294019392830182828015611bcc57602002820191905f5260205f20905b81546001600160a01b03168152600190910190602001808311611bae575b50505091835250506040805180820191829052602090920191906009840190600290825f855b825461010083900a900460ff161515815260206001928301818104948501949093039092029101808411611bf257505050928452505060408051808201918290526020909301929150600a840190600290825f855b825461010083900a900460ff161515815260206001928301818104948501949093039092029101808411611c475790505b5050505050815250509050919050565b60606001805461050c90613598565b611ca2338383612998565b5050565b611cae612e44565b600260075403611d005760405162461bcd60e51b815260206004820152601f60248201527f5265656e7472616e637947756172643a207265656e7472616e742063616c6c0060448201526064016105ea565b60026007558415801590611d1357505f84115b8015611d915750600b546040516370a0823160e01b81523360048201526001600160a01b03909116906370a0823190602401602060405180830381865afa158015611d60573d5f803e3d5ffd5b505050506040513d601f19601f82011682018060405250810190611d8491906136a1565b611d8e858761361a565b11155b611dd45760405162461bcd60e51b81526020600482015260146024820152732537b1399d1024b73b30b634b210373ab6b132b960611b60448201526064016105ea565b6009545f908152600d60205260409020600101546001600160a01b031615611e3e5760405162461bcd60e51b815260206004820152601760248201527f4a6f62733a204a6f6220616c726561647920657869737400000000000000000060448201526064016105ea565b600160095f828254611e50919061361a565b90915550506009548152336020808301919091526040808301879052606083018690528051601f85018390048302810183019091528381529084908490819084018382808284375f92018290525060c086019485526009548152600d602090815260409182902087518155908701516001820180546001600160a01b039092166001600160a01b031990921691909117905590860151600282015560608601516003820155608086015160048201805460a089015115156101000261ff00199315159390931661ffff1990911617919091179055935185949350600584019250611f3b915082613703565b5060e08201518051611f57916006840191602090910190612ebf565b506101008201516007820180546001600160a01b0319166001600160a01b039092169190911790556101208201518051611f9b916008840191602090910190612ebf565b50610140820151611fb29060098301906002612f12565b50610160820151611fc990600a8301906002612f12565b5050600b546001600160a01b031690506323b872dd3330611fea888a61361a565b6040516001600160e01b031960e086901b1681526001600160a01b03938416600482015292909116602483015260448201526064016020604051808303815f875af115801561203b573d5f803e3d5ffd5b505050506040513d601f19601f8201168201806040525081019061205f9190613639565b5060095460408051878152602081018790529081019190915233907f4f9800e62c9b4277e866bd1064681b7a614cb058a97040fd71521f3268bdd7499060600160405180910390a26001600755949350505050565b5f828152600d60205260408120600101546001600160a01b0316331461211c5760405162461bcd60e51b815260206004820152601c60248201527f4a6f62733a204d7573742062652063726561746f72206f66206a6f620000000060448201526064016105ea565b6001600160a01b0382165f908152600e6020908152604080832086845290915290205460ff1661218e5760405162461bcd60e51b815260206004820152601e60248201527f4a6f623a204170706c6963616e742069736e2774206170706c79206a6f62000060448201526064016105ea565b5f838152600d602052604090206004015460ff16156121e55760405162461bcd60e51b8152602060048201526013602482015272129bd88e88129bd8881899481cdd185c9d1959606a1b60448201526064016105ea565b5f838152600d6020908152604080832060048101805460ff19166001908117909155600790910180546001600160a01b0388166001600160a01b03199091168117909155808552600c84528285206002018054928301815585529284200186905551909185917f15534970b35940bba5cf89e4ac4162b21988099d0b43254fb4df27d9973fa1e19190a350600192915050565b6122823383612701565b61229e5760405162461bcd60e51b81526004016105ea90613654565b6122aa84848484612a65565b50505050565b60605f600880546122c090613598565b9050116122e657604051806040016040528060018152602001600160fd1b8152506104f8565b600880546122f390613598565b80601f016020809104026020016040519081016040528092919081815260200182805461231f90613598565b801561236a5780601f106123415761010080835404028352916020019161236a565b820191905f5260205f20905b81548152906001019060200180831161234d57829003601f168201915b505050505092915050565b6008805461238290613598565b80601f01602080910402602001604051908101604052809291908181526020018280546123ae90613598565b80156123f95780601f106123d0576101008083540402835291602001916123f9565b820191905f5260205f20905b8154815290600101906020018083116123dc57829003601f168201915b505050505081565b612409612db8565b6001600160a01b038083165f908152600c6020908152604091829020825160e0810184528154909416845260018101805484518185028101850190955280855291938584019390929083018282801561247f57602002820191905f5260205f20905b81548152602001906001019080831161246b575b50505050508152602001600282018054806020026020016040519081016040528092919081815260200182805480156124d557602002820191905f5260205f20905b8154815260200190600101908083116124c1575b5050505050815260200160038201548152602001600482015481526020016005820180548060200260200160405190810160405280929190818152602001828054801561253f57602002820191905f5260205f20905b81548152602001906001019080831161252b575b5050505050815260200160068201805480602002602001604051908101604052809291908181526020018280548015611c7857602002820191905f5260205f20905b815481526020019060010190808311612581575050505050815250509050919050565b6125ac6128ed565b6001600160a01b0381166126115760405162461bcd60e51b815260206004820152602660248201527f4f776e61626c653a206e6577206f776e657220697320746865207a65726f206160448201526564647265737360d01b60648201526084016105ea565b61261a81612947565b50565b5f818152600260205260409020546001600160a01b031661261a5760405162461bcd60e51b8152602060048201526018602482015277115490cdcc8c4e881a5b9d985b1a59081d1bdad95b88125160421b60448201526064016105ea565b5f81815260046020526040902080546001600160a01b0319166001600160a01b03841690811790915581906126af82611907565b6001600160a01b03167f8c5be1e5ebec7d5bd14f71427d1e84f3dd0314c0f7b2291e5b200ac8c7c3b92560405160405180910390a45050565b611ca2828260405180602001604052805f815250612a98565b5f8061270c83611907565b9050806001600160a01b0316846001600160a01b0316148061275257506001600160a01b038082165f9081526005602090815260408083209388168352929052205460ff165b806127765750836001600160a01b031661276b84610755565b6001600160a01b0316145b949350505050565b826001600160a01b031661279182611907565b6001600160a01b0316146127b75760405162461bcd60e51b81526004016105ea906137c3565b6001600160a01b0382166128195760405162461bcd60e51b8152602060048201526024808201527f4552433732313a207472616e7366657220746f20746865207a65726f206164646044820152637265737360e01b60648201526084016105ea565b6128268383836001612aca565b826001600160a01b031661283982611907565b6001600160a01b03161461285f5760405162461bcd60e51b81526004016105ea906137c3565b5f81815260046020908152604080832080546001600160a01b03199081169091556001600160a01b038781168086526003855283862080545f1901905590871680865283862080546001019055868652600290945282852080549092168417909155905184937fddf252ad1be2c89b69c2b068fc378daa952ba7f163c4a11628f55a4df523b3ef91a4505050565b6006546001600160a01b031633146119fb5760405162461bcd60e51b815260206004820181905260248201527f4f776e61626c653a2063616c6c6572206973206e6f7420746865206f776e657260448201526064016105ea565b600680546001600160a01b038381166001600160a01b0319831681179093556040519116919082907f8be0079c531659141344cd1fd0a4f28419497f9722a3daafe3b4186f6b6457e0905f90a35050565b816001600160a01b0316836001600160a01b0316036129f95760405162461bcd60e51b815260206004820152601960248201527f4552433732313a20617070726f766520746f2063616c6c65720000000000000060448201526064016105ea565b6001600160a01b038381165f81815260056020908152604080832094871680845294825291829020805460ff191686151590811790915591519182527f17307eab39ab6107e8899845ad3d59bd9653f200f220920489ca2b5937696c31910160405180910390a3505050565b612a7084848461277e565b612a7c84848484612b26565b6122aa5760405162461bcd60e51b81526004016105ea90613808565b612aa28383612c23565b612aae5f848484612b26565b6108895760405162461bcd60e51b81526004016105ea90613808565b6001600160a01b03841615612b215760405162461bcd60e51b815260206004820152601c60248201527f4a6f62733a20546f6b656e206e6f74207472616e7366657261626c650000000060448201526064016105ea565b6122aa565b5f6001600160a01b0384163b15612c1857604051630a85bd0160e11b81526001600160a01b0385169063150b7a0290612b6990339089908890889060040161385a565b6020604051808303815f875af1925050508015612ba3575060408051601f3d908101601f19168201909252612ba091810190613896565b60015b612bfe573d808015612bd0576040519150601f19603f3d011682016040523d82523d5f602084013e612bd5565b606091505b5080515f03612bf65760405162461bcd60e51b81526004016105ea90613808565b805181602001fd5b6001600160e01b031916630a85bd0160e11b149050612776565b506001949350505050565b6001600160a01b038216612c795760405162461bcd60e51b815260206004820181905260248201527f4552433732313a206d696e7420746f20746865207a65726f206164647265737360448201526064016105ea565b5f818152600260205260409020546001600160a01b031615612cdd5760405162461bcd60e51b815260206004820152601c60248201527f4552433732313a20746f6b656e20616c7265616479206d696e7465640000000060448201526064016105ea565b612cea5f83836001612aca565b5f818152600260205260409020546001600160a01b031615612d4e5760405162461bcd60e51b815260206004820152601c60248201527f4552433732313a20746f6b656e20616c7265616479206d696e7465640000000060448201526064016105ea565b6001600160a01b0382165f81815260036020908152604080832080546001019055848352600290915280822080546001600160a01b0319168417905551839291907fddf252ad1be2c89b69c2b068fc378daa952ba7f163c4a11628f55a4df523b3ef908290a45050565b6040518060e001604052805f6001600160a01b0316815260200160608152602001606081526020015f81526020015f815260200160608152602001606081525090565b828054828255905f5260205f20908101928215612e34579160200282015b82811115612e34578251825591602001919060010190612e19565b50612e40929150612f98565b5090565b6040518061018001604052805f81526020015f6001600160a01b031681526020015f81526020015f81526020015f151581526020015f1515815260200160608152602001606081526020015f6001600160a01b0316815260200160608152602001612ead612fac565b8152602001612eba612fac565b905290565b828054828255905f5260205f20908101928215612e34579160200282015b82811115612e3457825182546001600160a01b0319166001600160a01b03909116178255602090920191600190910190612edd565b600183019183908215612e34579160200282015f5b83821115612f6357835183826101000a81548160ff02191690831515021790555092602001926001016020815f01049283019260010302612f27565b8015612f8f5782816101000a81549060ff02191690556001016020815f01049283019260010302612f63565b5050612e409291505b5b80821115612e40575f8155600101612f99565b60405180604001604052806002906020820280368337509192915050565b6001600160e01b03198116811461261a575f80fd5b5f60208284031215612fef575f80fd5b8135612ffa81612fca565b9392505050565b5f81518084525f5b8181101561302557602081850181015186830182015201613009565b505f602082860101526020601f19601f83011685010191505092915050565b602081525f612ffa6020830184613001565b5f60208284031215613066575f80fd5b5035919050565b80356001600160a01b0381168114613083575f80fd5b919050565b5f60208284031215613098575f80fd5b612ffa8261306d565b5f80604083850312156130b2575f80fd5b6130bb8361306d565b946020939093013593505050565b5f805f606084860312156130db575f80fd5b6130e48461306d565b92506130f26020850161306d565b9150604084013590509250925092565b5f8060408385031215613113575f80fd5b823591506131236020840161306d565b90509250929050565b5f815180845260208085019450602084015f5b8381101561315b5781518752958201959082019060010161313f565b509495945050505050565b602080825282516001600160a01b03168282015282015160e060408301525f9061319461010084018261312c565b90506040840151601f19808584030160608601526131b2838361312c565b925060608601516080860152608086015160a086015260a08601519150808584030160c08601526131e3838361312c565b925060c08601519150808584030160e086015250613201828261312c565b95945050505050565b5f6101008a835260018060a01b03808b166020850152896040850152886060850152871515608085015286151560a08501528160c085015261324e82850187613001565b925080851660e085015250509998505050505050505050565b5f815180845260208085019450602084015f5b8381101561315b5781516001600160a01b03168752958201959082019060010161327a565b805f5b60028110156122aa57815115158452602093840193909101906001016132a2565b60208152815160208201525f60208301516132e960408401826001600160a01b03169052565b506040830151606083015260608301516080830152608083015161331160a084018215159052565b5060a083015180151560c08401525060c08301516101c060e084015261333b6101e0840182613001565b905060e0840151601f1961010081868503018187015261335b8484613267565b93508087015192505061012061337b818701846001600160a01b03169052565b808701519250506101408186850301818701526133988484613267565b935080870151925050506101606133b18186018361329f565b85015190506133c46101a085018261329f565b509392505050565b801515811461261a575f80fd5b5f80604083850312156133ea575f80fd5b6133f38361306d565b91506020830135613403816133cc565b809150509250929050565b5f805f8060608587031215613421575f80fd5b8435935060208501359250604085013567ffffffffffffffff80821115613446575f80fd5b818701915087601f830112613459575f80fd5b813581811115613467575f80fd5b886020828501011115613478575f80fd5b95989497505060200194505050565b634e487b7160e01b5f52604160045260245ffd5b5f805f80608085870312156134ae575f80fd5b6134b78561306d565b93506134c56020860161306d565b925060408501359150606085013567ffffffffffffffff808211156134e8575f80fd5b818701915087601f8301126134fb575f80fd5b81358181111561350d5761350d613487565b604051601f8201601f19908116603f0116810190838211818310171561353557613535613487565b816040528281528a602084870101111561354d575f80fd5b826020860160208301375f60208483010152809550505050505092959194509250565b5f8060408385031215613581575f80fd5b61358a8361306d565b91506131236020840161306d565b600181811c908216806135ac57607f821691505b60208210810361122e57634e487b7160e01b5f52602260045260245ffd5b60208082526030908201527f4a6f62733a204f6e6c792063726561746f72206f72204b4f4c2063616e20636f60408201526f373334b9369031b7b6b83632ba34b7b760811b606082015260800190565b808201808211156104f857634e487b7160e01b5f52601160045260245ffd5b5f60208284031215613649575f80fd5b8151612ffa816133cc565b6020808252602d908201527f4552433732313a2063616c6c6572206973206e6f7420746f6b656e206f776e6560408201526c1c881bdc88185c1c1c9bdd9959609a1b606082015260800190565b5f602082840312156136b1575f80fd5b5051919050565b601f82111561088957805f5260205f20601f840160051c810160208510156136dd5750805b601f840160051c820191505b818110156136fc575f81556001016136e9565b5050505050565b815167ffffffffffffffff81111561371d5761371d613487565b6137318161372b8454613598565b846136b8565b602080601f831160018114613764575f841561374d5750858301515b5f19600386901b1c1916600185901b1785556137bb565b5f85815260208120601f198616915b8281101561379257888601518255948401946001909101908401613773565b50858210156137af57878501515f19600388901b60f8161c191681555b505060018460011b0185555b505050505050565b60208082526025908201527f4552433732313a207472616e736665722066726f6d20696e636f72726563742060408201526437bbb732b960d91b606082015260800190565b60208082526032908201527f4552433732313a207472616e7366657220746f206e6f6e20455243373231526560408201527131b2b4bb32b91034b6b83632b6b2b73a32b960711b606082015260800190565b6001600160a01b03858116825284166020820152604081018390526080606082018190525f9061388c90830184613001565b9695505050505050565b5f602082840312156138a6575f80fd5b8151612ffa81612fca56fea2646970667358221220357e14cff4f4718ac72ea6187d9c7b173e4ad31fb3280eb0f7fa3969f1e8a8df64736f6c63430008180033",
			"opcodes": "PUSH1 0x80 PUSH1 0x40 MSTORE CALLVALUE DUP1 ISZERO PUSH3 0x10 JUMPI PUSH0 DUP1 REVERT JUMPDEST POP PUSH1 0x40 MLOAD PUSH3 0x3C84 CODESIZE SUB DUP1 PUSH3 0x3C84 DUP4 CODECOPY DUP2 ADD PUSH1 0x40 DUP2 SWAP1 MSTORE PUSH3 0x33 SWAP2 PUSH3 0x1B2 JUMP JUMPDEST DUP3 DUP3 PUSH0 PUSH3 0x42 DUP4 DUP3 PUSH3 0x2C3 JUMP JUMPDEST POP PUSH1 0x1 PUSH3 0x51 DUP3 DUP3 PUSH3 0x2C3 JUMP JUMPDEST POP POP POP PUSH3 0x6E PUSH3 0x68 PUSH3 0x9C PUSH1 0x20 SHL PUSH1 0x20 SHR JUMP JUMPDEST PUSH3 0xA0 JUMP JUMPDEST PUSH1 0x1 PUSH1 0x7 SSTORE PUSH1 0xB DUP1 SLOAD PUSH1 0x1 PUSH1 0x1 PUSH1 0xA0 SHL SUB NOT AND PUSH1 0x1 PUSH1 0x1 PUSH1 0xA0 SHL SUB SWAP3 SWAP1 SWAP3 AND SWAP2 SWAP1 SWAP2 OR SWAP1 SSTORE POP PUSH3 0x38F SWAP1 POP JUMP JUMPDEST CALLER SWAP1 JUMP JUMPDEST PUSH1 0x6 DUP1 SLOAD PUSH1 0x1 PUSH1 0x1 PUSH1 0xA0 SHL SUB DUP4 DUP2 AND PUSH1 0x1 PUSH1 0x1 PUSH1 0xA0 SHL SUB NOT DUP4 AND DUP2 OR SWAP1 SWAP4 SSTORE PUSH1 0x40 MLOAD SWAP2 AND SWAP2 SWAP1 DUP3 SWAP1 PUSH32 0x8BE0079C531659141344CD1FD0A4F28419497F9722A3DAAFE3B4186F6B6457E0 SWAP1 PUSH0 SWAP1 LOG3 POP POP JUMP JUMPDEST PUSH4 0x4E487B71 PUSH1 0xE0 SHL PUSH0 MSTORE PUSH1 0x41 PUSH1 0x4 MSTORE PUSH1 0x24 PUSH0 REVERT JUMPDEST PUSH0 DUP3 PUSH1 0x1F DUP4 ADD SLT PUSH3 0x115 JUMPI PUSH0 DUP1 REVERT JUMPDEST DUP2 MLOAD PUSH1 0x1 PUSH1 0x1 PUSH1 0x40 SHL SUB DUP1 DUP3 GT ISZERO PUSH3 0x132 JUMPI PUSH3 0x132 PUSH3 0xF1 JUMP JUMPDEST PUSH1 0x40 MLOAD PUSH1 0x1F DUP4 ADD PUSH1 0x1F NOT SWAP1 DUP2 AND PUSH1 0x3F ADD AND DUP2 ADD SWAP1 DUP3 DUP3 GT DUP2 DUP4 LT OR ISZERO PUSH3 0x15D JUMPI PUSH3 0x15D PUSH3 0xF1 JUMP JUMPDEST DUP2 PUSH1 0x40 MSTORE DUP4 DUP2 MSTORE PUSH1 0x20 SWAP3 POP DUP7 PUSH1 0x20 DUP6 DUP9 ADD ADD GT ISZERO PUSH3 0x17A JUMPI PUSH0 DUP1 REVERT JUMPDEST PUSH0 SWAP2 POP JUMPDEST DUP4 DUP3 LT ISZERO PUSH3 0x19D JUMPI DUP6 DUP3 ADD DUP4 ADD MLOAD DUP2 DUP4 ADD DUP5 ADD MSTORE SWAP1 DUP3 ADD SWAP1 PUSH3 0x17E JUMP JUMPDEST PUSH0 PUSH1 0x20 DUP6 DUP4 ADD ADD MSTORE DUP1 SWAP5 POP POP POP POP POP SWAP3 SWAP2 POP POP JUMP JUMPDEST PUSH0 DUP1 PUSH0 PUSH1 0x60 DUP5 DUP7 SUB SLT ISZERO PUSH3 0x1C5 JUMPI PUSH0 DUP1 REVERT JUMPDEST DUP4 MLOAD PUSH1 0x1 PUSH1 0x1 PUSH1 0x40 SHL SUB DUP1 DUP3 GT ISZERO PUSH3 0x1DC JUMPI PUSH0 DUP1 REVERT JUMPDEST PUSH3 0x1EA DUP8 DUP4 DUP9 ADD PUSH3 0x105 JUMP JUMPDEST SWAP5 POP PUSH1 0x20 DUP7 ADD MLOAD SWAP2 POP DUP1 DUP3 GT ISZERO PUSH3 0x200 JUMPI PUSH0 DUP1 REVERT JUMPDEST POP PUSH3 0x20F DUP7 DUP3 DUP8 ADD PUSH3 0x105 JUMP JUMPDEST PUSH1 0x40 DUP7 ADD MLOAD SWAP1 SWAP4 POP SWAP1 POP PUSH1 0x1 PUSH1 0x1 PUSH1 0xA0 SHL SUB DUP2 AND DUP2 EQ PUSH3 0x22E JUMPI PUSH0 DUP1 REVERT JUMPDEST DUP1 SWAP2 POP POP SWAP3 POP SWAP3 POP SWAP3 JUMP JUMPDEST PUSH1 0x1 DUP2 DUP2 SHR SWAP1 DUP3 AND DUP1 PUSH3 0x24E JUMPI PUSH1 0x7F DUP3 AND SWAP2 POP JUMPDEST PUSH1 0x20 DUP3 LT DUP2 SUB PUSH3 0x26D JUMPI PUSH4 0x4E487B71 PUSH1 0xE0 SHL PUSH0 MSTORE PUSH1 0x22 PUSH1 0x4 MSTORE PUSH1 0x24 PUSH0 REVERT JUMPDEST POP SWAP2 SWAP1 POP JUMP JUMPDEST PUSH1 0x1F DUP3 GT ISZERO PUSH3 0x2BE JUMPI DUP1 PUSH0 MSTORE PUSH1 0x20 PUSH0 KECCAK256 PUSH1 0x1F DUP5 ADD PUSH1 0x5 SHR DUP2 ADD PUSH1 0x20 DUP6 LT ISZERO PUSH3 0x29A JUMPI POP DUP1 JUMPDEST PUSH1 0x1F DUP5 ADD PUSH1 0x5 SHR DUP3 ADD SWAP2 POP JUMPDEST DUP2 DUP2 LT ISZERO PUSH3 0x2BB JUMPI PUSH0 DUP2 SSTORE PUSH1 0x1 ADD PUSH3 0x2A6 JUMP JUMPDEST POP POP JUMPDEST POP POP POP JUMP JUMPDEST DUP2 MLOAD PUSH1 0x1 PUSH1 0x1 PUSH1 0x40 SHL SUB DUP2 GT ISZERO PUSH3 0x2DF JUMPI PUSH3 0x2DF PUSH3 0xF1 JUMP JUMPDEST PUSH3 0x2F7 DUP2 PUSH3 0x2F0 DUP5 SLOAD PUSH3 0x239 JUMP JUMPDEST DUP5 PUSH3 0x273 JUMP JUMPDEST PUSH1 0x20 DUP1 PUSH1 0x1F DUP4 GT PUSH1 0x1 DUP2 EQ PUSH3 0x32D JUMPI PUSH0 DUP5 ISZERO PUSH3 0x315 JUMPI POP DUP6 DUP4 ADD MLOAD JUMPDEST PUSH0 NOT PUSH1 0x3 DUP7 SWAP1 SHL SHR NOT AND PUSH1 0x1 DUP6 SWAP1 SHL OR DUP6 SSTORE PUSH3 0x387 JUMP JUMPDEST PUSH0 DUP6 DUP2 MSTORE PUSH1 0x20 DUP2 KECCAK256 PUSH1 0x1F NOT DUP7 AND SWAP2 JUMPDEST DUP3 DUP2 LT ISZERO PUSH3 0x35D JUMPI DUP9 DUP7 ADD MLOAD DUP3 SSTORE SWAP5 DUP5 ADD SWAP5 PUSH1 0x1 SWAP1 SWAP2 ADD SWAP1 DUP5 ADD PUSH3 0x33C JUMP JUMPDEST POP DUP6 DUP3 LT ISZERO PUSH3 0x37B JUMPI DUP8 DUP6 ADD MLOAD PUSH0 NOT PUSH1 0x3 DUP9 SWAP1 SHL PUSH1 0xF8 AND SHR NOT AND DUP2 SSTORE JUMPDEST POP POP PUSH1 0x1 DUP5 PUSH1 0x1 SHL ADD DUP6 SSTORE JUMPDEST POP POP POP POP POP POP JUMP JUMPDEST PUSH2 0x38E7 DUP1 PUSH3 0x39D PUSH0 CODECOPY PUSH0 RETURN INVALID PUSH1 0x80 PUSH1 0x40 MSTORE CALLVALUE DUP1 ISZERO PUSH2 0xF JUMPI PUSH0 DUP1 REVERT JUMPDEST POP PUSH1 0x4 CALLDATASIZE LT PUSH2 0x1C6 JUMPI PUSH0 CALLDATALOAD PUSH1 0xE0 SHR DUP1 PUSH4 0x6352211E GT PUSH2 0xFE JUMPI DUP1 PUSH4 0xA36B5FDE GT PUSH2 0x9E JUMPI DUP1 PUSH4 0xD547CFB7 GT PUSH2 0x6E JUMPI DUP1 PUSH4 0xD547CFB7 EQ PUSH2 0x444 JUMPI DUP1 PUSH4 0xE985E9C5 EQ PUSH2 0x44C JUMPI DUP1 PUSH4 0xEAD62196 EQ PUSH2 0x487 JUMPI DUP1 PUSH4 0xF2FDE38B EQ PUSH2 0x49A JUMPI PUSH0 DUP1 REVERT JUMPDEST DUP1 PUSH4 0xA36B5FDE EQ PUSH2 0x3F8 JUMPI DUP1 PUSH4 0xAD7B2C76 EQ PUSH2 0x40B JUMPI DUP1 PUSH4 0xB88D4FDE EQ PUSH2 0x41E JUMPI DUP1 PUSH4 0xC87B56DD EQ PUSH2 0x431 JUMPI PUSH0 DUP1 REVERT JUMPDEST DUP1 PUSH4 0x7F4497D8 GT PUSH2 0xD9 JUMPI DUP1 PUSH4 0x7F4497D8 EQ PUSH2 0x3AC JUMPI DUP1 PUSH4 0x8DA5CB5B EQ PUSH2 0x3CC JUMPI DUP1 PUSH4 0x95D89B41 EQ PUSH2 0x3DD JUMPI DUP1 PUSH4 0xA22CB465 EQ PUSH2 0x3E5 JUMPI PUSH0 DUP1 REVERT JUMPDEST DUP1 PUSH4 0x6352211E EQ PUSH2 0x370 JUMPI DUP1 PUSH4 0x70A08231 EQ PUSH2 0x383 JUMPI DUP1 PUSH4 0x715018A6 EQ PUSH2 0x3A4 JUMPI PUSH0 DUP1 REVERT JUMPDEST DUP1 PUSH4 0x23B872DD GT PUSH2 0x169 JUMPI DUP1 PUSH4 0x2E80F70A GT PUSH2 0x144 JUMPI DUP1 PUSH4 0x2E80F70A EQ PUSH2 0x303 JUMPI DUP1 PUSH4 0x33BC3CCF EQ PUSH2 0x316 JUMPI DUP1 PUSH4 0x42842E0E EQ PUSH2 0x336 JUMPI DUP1 PUSH4 0x5CE5EE69 EQ PUSH2 0x349 JUMPI PUSH0 DUP1 REVERT JUMPDEST DUP1 PUSH4 0x23B872DD EQ PUSH2 0x2CA JUMPI DUP1 PUSH4 0x23DB9DED EQ PUSH2 0x2DD JUMPI DUP1 PUSH4 0x2474639C EQ PUSH2 0x2F0 JUMPI PUSH0 DUP1 REVERT JUMPDEST DUP1 PUSH4 0x81812FC GT PUSH2 0x1A4 JUMPI DUP1 PUSH4 0x81812FC EQ PUSH2 0x21A JUMPI DUP1 PUSH4 0x81CC7AC EQ PUSH2 0x245 JUMPI DUP1 PUSH4 0x95EA7B3 EQ PUSH2 0x2A2 JUMPI DUP1 PUSH4 0xADCE2D0 EQ PUSH2 0x2B7 JUMPI PUSH0 DUP1 REVERT JUMPDEST DUP1 PUSH4 0x1FFC9A7 EQ PUSH2 0x1CA JUMPI DUP1 PUSH4 0x6FDDE03 EQ PUSH2 0x1F2 JUMPI DUP1 PUSH4 0x80F404D EQ PUSH2 0x207 JUMPI JUMPDEST PUSH0 DUP1 REVERT JUMPDEST PUSH2 0x1DD PUSH2 0x1D8 CALLDATASIZE PUSH1 0x4 PUSH2 0x2FDF JUMP JUMPDEST PUSH2 0x4AD JUMP JUMPDEST PUSH1 0x40 MLOAD SWAP1 ISZERO ISZERO DUP2 MSTORE PUSH1 0x20 ADD JUMPDEST PUSH1 0x40 MLOAD DUP1 SWAP2 SUB SWAP1 RETURN JUMPDEST PUSH2 0x1FA PUSH2 0x4FE JUMP JUMPDEST PUSH1 0x40 MLOAD PUSH2 0x1E9 SWAP2 SWAP1 PUSH2 0x3044 JUMP JUMPDEST PUSH2 0x1DD PUSH2 0x215 CALLDATASIZE PUSH1 0x4 PUSH2 0x3056 JUMP JUMPDEST PUSH2 0x58D JUMP JUMPDEST PUSH2 0x22D PUSH2 0x228 CALLDATASIZE PUSH1 0x4 PUSH2 0x3056 JUMP JUMPDEST PUSH2 0x755 JUMP JUMPDEST PUSH1 0x40 MLOAD PUSH1 0x1 PUSH1 0x1 PUSH1 0xA0 SHL SUB SWAP1 SWAP2 AND DUP2 MSTORE PUSH1 0x20 ADD PUSH2 0x1E9 JUMP JUMPDEST PUSH2 0x27D PUSH2 0x253 CALLDATASIZE PUSH1 0x4 PUSH2 0x3088 JUMP JUMPDEST PUSH1 0xC PUSH1 0x20 MSTORE PUSH0 SWAP1 DUP2 MSTORE PUSH1 0x40 SWAP1 KECCAK256 DUP1 SLOAD PUSH1 0x3 DUP3 ADD SLOAD PUSH1 0x4 SWAP1 SWAP3 ADD SLOAD PUSH1 0x1 PUSH1 0x1 PUSH1 0xA0 SHL SUB SWAP1 SWAP2 AND SWAP2 SWAP1 DUP4 JUMP JUMPDEST PUSH1 0x40 DUP1 MLOAD PUSH1 0x1 PUSH1 0x1 PUSH1 0xA0 SHL SUB SWAP1 SWAP5 AND DUP5 MSTORE PUSH1 0x20 DUP5 ADD SWAP3 SWAP1 SWAP3 MSTORE SWAP1 DUP3 ADD MSTORE PUSH1 0x60 ADD PUSH2 0x1E9 JUMP JUMPDEST PUSH2 0x2B5 PUSH2 0x2B0 CALLDATASIZE PUSH1 0x4 PUSH2 0x30A1 JUMP JUMPDEST PUSH2 0x77A JUMP JUMPDEST STOP JUMPDEST PUSH2 0x1DD PUSH2 0x2C5 CALLDATASIZE PUSH1 0x4 PUSH2 0x3056 JUMP JUMPDEST PUSH2 0x88E JUMP JUMPDEST PUSH2 0x2B5 PUSH2 0x2D8 CALLDATASIZE PUSH1 0x4 PUSH2 0x30C9 JUMP JUMPDEST PUSH2 0xEA0 JUMP JUMPDEST PUSH2 0x1DD PUSH2 0x2EB CALLDATASIZE PUSH1 0x4 PUSH2 0x3102 JUMP JUMPDEST PUSH2 0xED1 JUMP JUMPDEST PUSH2 0x1DD PUSH2 0x2FE CALLDATASIZE PUSH1 0x4 PUSH2 0x3056 JUMP JUMPDEST PUSH2 0x10CD JUMP JUMPDEST PUSH2 0x1DD PUSH2 0x311 CALLDATASIZE PUSH1 0x4 PUSH2 0x3056 JUMP JUMPDEST PUSH2 0x1234 JUMP JUMPDEST PUSH2 0x329 PUSH2 0x324 CALLDATASIZE PUSH1 0x4 PUSH2 0x3056 JUMP JUMPDEST PUSH2 0x16A1 JUMP JUMPDEST PUSH1 0x40 MLOAD PUSH2 0x1E9 SWAP2 SWAP1 PUSH2 0x3166 JUMP JUMPDEST PUSH2 0x2B5 PUSH2 0x344 CALLDATASIZE PUSH1 0x4 PUSH2 0x30C9 JUMP JUMPDEST PUSH2 0x1809 JUMP JUMPDEST PUSH2 0x35C PUSH2 0x357 CALLDATASIZE PUSH1 0x4 PUSH2 0x3056 JUMP JUMPDEST PUSH2 0x1823 JUMP JUMPDEST PUSH1 0x40 MLOAD PUSH2 0x1E9 SWAP9 SWAP8 SWAP7 SWAP6 SWAP5 SWAP4 SWAP3 SWAP2 SWAP1 PUSH2 0x320A JUMP JUMPDEST PUSH2 0x22D PUSH2 0x37E CALLDATASIZE PUSH1 0x4 PUSH2 0x3056 JUMP JUMPDEST PUSH2 0x1907 JUMP JUMPDEST PUSH2 0x396 PUSH2 0x391 CALLDATASIZE PUSH1 0x4 PUSH2 0x3088 JUMP JUMPDEST PUSH2 0x1966 JUMP JUMPDEST PUSH1 0x40 MLOAD SWAP1 DUP2 MSTORE PUSH1 0x20 ADD PUSH2 0x1E9 JUMP JUMPDEST PUSH2 0x2B5 PUSH2 0x19EA JUMP JUMPDEST PUSH2 0x3BF PUSH2 0x3BA CALLDATASIZE PUSH1 0x4 PUSH2 0x3056 JUMP JUMPDEST PUSH2 0x19FD JUMP JUMPDEST PUSH1 0x40 MLOAD PUSH2 0x1E9 SWAP2 SWAP1 PUSH2 0x32C3 JUMP JUMPDEST PUSH1 0x6 SLOAD PUSH1 0x1 PUSH1 0x1 PUSH1 0xA0 SHL SUB AND PUSH2 0x22D JUMP JUMPDEST PUSH2 0x1FA PUSH2 0x1C88 JUMP JUMPDEST PUSH2 0x2B5 PUSH2 0x3F3 CALLDATASIZE PUSH1 0x4 PUSH2 0x33D9 JUMP JUMPDEST PUSH2 0x1C97 JUMP JUMPDEST PUSH2 0x3BF PUSH2 0x406 CALLDATASIZE PUSH1 0x4 PUSH2 0x340E JUMP JUMPDEST PUSH2 0x1CA6 JUMP JUMPDEST PUSH2 0x1DD PUSH2 0x419 CALLDATASIZE PUSH1 0x4 PUSH2 0x3102 JUMP JUMPDEST PUSH2 0x20B4 JUMP JUMPDEST PUSH2 0x2B5 PUSH2 0x42C CALLDATASIZE PUSH1 0x4 PUSH2 0x349B JUMP JUMPDEST PUSH2 0x2278 JUMP JUMPDEST PUSH2 0x1FA PUSH2 0x43F CALLDATASIZE PUSH1 0x4 PUSH2 0x3056 JUMP JUMPDEST PUSH2 0x22B0 JUMP JUMPDEST PUSH2 0x1FA PUSH2 0x2375 JUMP JUMPDEST PUSH2 0x1DD PUSH2 0x45A CALLDATASIZE PUSH1 0x4 PUSH2 0x3570 JUMP JUMPDEST PUSH1 0x1 PUSH1 0x1 PUSH1 0xA0 SHL SUB SWAP2 DUP3 AND PUSH0 SWAP1 DUP2 MSTORE PUSH1 0x5 PUSH1 0x20 SWAP1 DUP2 MSTORE PUSH1 0x40 DUP1 DUP4 KECCAK256 SWAP4 SWAP1 SWAP5 AND DUP3 MSTORE SWAP2 SWAP1 SWAP2 MSTORE KECCAK256 SLOAD PUSH1 0xFF AND SWAP1 JUMP JUMPDEST PUSH2 0x329 PUSH2 0x495 CALLDATASIZE PUSH1 0x4 PUSH2 0x3088 JUMP JUMPDEST PUSH2 0x2401 JUMP JUMPDEST PUSH2 0x2B5 PUSH2 0x4A8 CALLDATASIZE PUSH1 0x4 PUSH2 0x3088 JUMP JUMPDEST PUSH2 0x25A4 JUMP JUMPDEST PUSH0 PUSH1 0x1 PUSH1 0x1 PUSH1 0xE0 SHL SUB NOT DUP3 AND PUSH4 0x80AC58CD PUSH1 0xE0 SHL EQ DUP1 PUSH2 0x4DD JUMPI POP PUSH1 0x1 PUSH1 0x1 PUSH1 0xE0 SHL SUB NOT DUP3 AND PUSH4 0x5B5E139F PUSH1 0xE0 SHL EQ JUMPDEST DUP1 PUSH2 0x4F8 JUMPI POP PUSH4 0x1FFC9A7 PUSH1 0xE0 SHL PUSH1 0x1 PUSH1 0x1 PUSH1 0xE0 SHL SUB NOT DUP4 AND EQ JUMPDEST SWAP3 SWAP2 POP POP JUMP JUMPDEST PUSH1 0x60 PUSH0 DUP1 SLOAD PUSH2 0x50C SWAP1 PUSH2 0x3598 JUMP JUMPDEST DUP1 PUSH1 0x1F ADD PUSH1 0x20 DUP1 SWAP2 DIV MUL PUSH1 0x20 ADD PUSH1 0x40 MLOAD SWAP1 DUP2 ADD PUSH1 0x40 MSTORE DUP1 SWAP3 SWAP2 SWAP1 DUP2 DUP2 MSTORE PUSH1 0x20 ADD DUP3 DUP1 SLOAD PUSH2 0x538 SWAP1 PUSH2 0x3598 JUMP JUMPDEST DUP1 ISZERO PUSH2 0x583 JUMPI DUP1 PUSH1 0x1F LT PUSH2 0x55A JUMPI PUSH2 0x100 DUP1 DUP4 SLOAD DIV MUL DUP4 MSTORE SWAP2 PUSH1 0x20 ADD SWAP2 PUSH2 0x583 JUMP JUMPDEST DUP3 ADD SWAP2 SWAP1 PUSH0 MSTORE PUSH1 0x20 PUSH0 KECCAK256 SWAP1 JUMPDEST DUP2 SLOAD DUP2 MSTORE SWAP1 PUSH1 0x1 ADD SWAP1 PUSH1 0x20 ADD DUP1 DUP4 GT PUSH2 0x566 JUMPI DUP3 SWAP1 SUB PUSH1 0x1F AND DUP3 ADD SWAP2 JUMPDEST POP POP POP POP POP SWAP1 POP SWAP1 JUMP JUMPDEST CALLER PUSH0 DUP2 DUP2 MSTORE PUSH1 0xC PUSH1 0x20 MSTORE PUSH1 0x40 DUP2 KECCAK256 SLOAD SWAP1 SWAP2 SWAP1 PUSH1 0x1 PUSH1 0x1 PUSH1 0xA0 SHL SUB AND DUP2 EQ PUSH2 0x5F3 JUMPI PUSH1 0x40 MLOAD PUSH3 0x461BCD PUSH1 0xE5 SHL DUP2 MSTORE PUSH1 0x20 PUSH1 0x4 DUP3 ADD MSTORE PUSH1 0x15 PUSH1 0x24 DUP3 ADD MSTORE PUSH21 0x129BD89CCE88165BDD481B5D5CDD0818994812D3D3 PUSH1 0x5A SHL PUSH1 0x44 DUP3 ADD MSTORE PUSH1 0x64 ADD JUMPDEST PUSH1 0x40 MLOAD DUP1 SWAP2 SUB SWAP1 REVERT JUMPDEST PUSH0 DUP4 DUP2 MSTORE PUSH1 0xD PUSH1 0x20 MSTORE PUSH1 0x40 SWAP1 KECCAK256 PUSH1 0x1 ADD SLOAD PUSH1 0x1 PUSH1 0x1 PUSH1 0xA0 SHL SUB AND PUSH2 0x654 JUMPI PUSH1 0x40 MLOAD PUSH3 0x461BCD PUSH1 0xE5 SHL DUP2 MSTORE PUSH1 0x20 PUSH1 0x4 DUP3 ADD MSTORE PUSH1 0x18 PUSH1 0x24 DUP3 ADD MSTORE PUSH24 0x129BD89CCE88129BD888191BD95CC81B9BDD08195E1A5CDD PUSH1 0x42 SHL PUSH1 0x44 DUP3 ADD MSTORE PUSH1 0x64 ADD PUSH2 0x5EA JUMP JUMPDEST PUSH0 DUP4 DUP2 MSTORE PUSH1 0xD PUSH1 0x20 MSTORE PUSH1 0x40 SWAP1 KECCAK256 PUSH1 0x4 ADD SLOAD PUSH1 0xFF AND ISZERO PUSH2 0x6AB JUMPI PUSH1 0x40 MLOAD PUSH3 0x461BCD PUSH1 0xE5 SHL DUP2 MSTORE PUSH1 0x20 PUSH1 0x4 DUP3 ADD MSTORE PUSH1 0x13 PUSH1 0x24 DUP3 ADD MSTORE PUSH19 0x129BD88E88129BD8881899481CDD185C9D1959 PUSH1 0x6A SHL PUSH1 0x44 DUP3 ADD MSTORE PUSH1 0x64 ADD PUSH2 0x5EA JUMP JUMPDEST PUSH1 0x1 PUSH1 0x1 PUSH1 0xA0 SHL SUB DUP2 AND PUSH0 DUP2 DUP2 MSTORE PUSH1 0xE PUSH1 0x20 SWAP1 DUP2 MSTORE PUSH1 0x40 DUP1 DUP4 KECCAK256 DUP8 DUP5 MSTORE DUP3 MSTORE DUP1 DUP4 KECCAK256 DUP1 SLOAD PUSH1 0xFF NOT AND PUSH1 0x1 SWAP1 DUP2 OR SWAP1 SWAP2 SSTORE DUP5 DUP5 MSTORE PUSH1 0xC DUP4 MSTORE DUP2 DUP5 KECCAK256 PUSH1 0x5 ADD DUP1 SLOAD DUP1 DUP4 ADD DUP3 SSTORE SWAP1 DUP6 MSTORE DUP4 DUP6 KECCAK256 ADD DUP9 SWAP1 SSTORE DUP8 DUP5 MSTORE PUSH1 0xD DUP4 MSTORE DUP2 DUP5 KECCAK256 PUSH1 0x6 ADD DUP1 SLOAD SWAP2 DUP3 ADD DUP2 SSTORE DUP5 MSTORE SWAP2 DUP4 KECCAK256 SWAP1 SWAP2 ADD DUP1 SLOAD PUSH1 0x1 PUSH1 0x1 PUSH1 0xA0 SHL SUB NOT AND DUP5 OR SWAP1 SSTORE MLOAD DUP6 SWAP3 SWAP2 PUSH32 0x580957E7F405BF54F358D95420CB5BD1F4F2D15602F7C4984FCFB0F9CF0E946D SWAP2 LOG3 POP PUSH1 0x1 SWAP3 SWAP2 POP POP JUMP JUMPDEST PUSH0 PUSH2 0x75F DUP3 PUSH2 0x261D JUMP JUMPDEST POP PUSH0 SWAP1 DUP2 MSTORE PUSH1 0x4 PUSH1 0x20 MSTORE PUSH1 0x40 SWAP1 KECCAK256 SLOAD PUSH1 0x1 PUSH1 0x1 PUSH1 0xA0 SHL SUB AND SWAP1 JUMP JUMPDEST PUSH0 PUSH2 0x784 DUP3 PUSH2 0x1907 JUMP JUMPDEST SWAP1 POP DUP1 PUSH1 0x1 PUSH1 0x1 PUSH1 0xA0 SHL SUB AND DUP4 PUSH1 0x1 PUSH1 0x1 PUSH1 0xA0 SHL SUB AND SUB PUSH2 0x7F1 JUMPI PUSH1 0x40 MLOAD PUSH3 0x461BCD PUSH1 0xE5 SHL DUP2 MSTORE PUSH1 0x20 PUSH1 0x4 DUP3 ADD MSTORE PUSH1 0x21 PUSH1 0x24 DUP3 ADD MSTORE PUSH32 0x4552433732313A20617070726F76616C20746F2063757272656E74206F776E65 PUSH1 0x44 DUP3 ADD MSTORE PUSH1 0x39 PUSH1 0xF9 SHL PUSH1 0x64 DUP3 ADD MSTORE PUSH1 0x84 ADD PUSH2 0x5EA JUMP JUMPDEST CALLER PUSH1 0x1 PUSH1 0x1 PUSH1 0xA0 SHL SUB DUP3 AND EQ DUP1 PUSH2 0x80D JUMPI POP PUSH2 0x80D DUP2 CALLER PUSH2 0x45A JUMP JUMPDEST PUSH2 0x87F JUMPI PUSH1 0x40 MLOAD PUSH3 0x461BCD PUSH1 0xE5 SHL DUP2 MSTORE PUSH1 0x20 PUSH1 0x4 DUP3 ADD MSTORE PUSH1 0x3D PUSH1 0x24 DUP3 ADD MSTORE PUSH32 0x4552433732313A20617070726F76652063616C6C6572206973206E6F7420746F PUSH1 0x44 DUP3 ADD MSTORE PUSH32 0x6B656E206F776E6572206F7220617070726F76656420666F7220616C6C000000 PUSH1 0x64 DUP3 ADD MSTORE PUSH1 0x84 ADD PUSH2 0x5EA JUMP JUMPDEST PUSH2 0x889 DUP4 DUP4 PUSH2 0x267B JUMP JUMPDEST POP POP POP JUMP JUMPDEST PUSH0 DUP2 DUP2 MSTORE PUSH1 0xD PUSH1 0x20 MSTORE PUSH1 0x40 DUP2 KECCAK256 PUSH1 0x4 ADD SLOAD DUP3 SWAP1 PUSH2 0x100 SWAP1 DIV PUSH1 0xFF AND ISZERO PUSH2 0x8F6 JUMPI PUSH1 0x40 MLOAD PUSH3 0x461BCD PUSH1 0xE5 SHL DUP2 MSTORE PUSH1 0x20 PUSH1 0x4 DUP3 ADD MSTORE PUSH1 0x1C PUSH1 0x24 DUP3 ADD MSTORE PUSH32 0x4A6F62733A204A6F62206D757374206E6F7420636F6D706C6574656400000000 PUSH1 0x44 DUP3 ADD MSTORE PUSH1 0x64 ADD PUSH2 0x5EA JUMP JUMPDEST PUSH0 DUP4 DUP2 MSTORE PUSH1 0xD PUSH1 0x20 MSTORE PUSH1 0x40 SWAP1 KECCAK256 PUSH1 0x1 ADD SLOAD DUP4 SWAP1 PUSH1 0x1 PUSH1 0x1 PUSH1 0xA0 SHL SUB AND CALLER EQ DUP1 PUSH2 0x937 JUMPI POP PUSH0 DUP2 DUP2 MSTORE PUSH1 0xD PUSH1 0x20 MSTORE PUSH1 0x40 SWAP1 KECCAK256 PUSH1 0x7 ADD SLOAD PUSH1 0x1 PUSH1 0x1 PUSH1 0xA0 SHL SUB AND CALLER EQ JUMPDEST PUSH2 0x953 JUMPI PUSH1 0x40 MLOAD PUSH3 0x461BCD PUSH1 0xE5 SHL DUP2 MSTORE PUSH1 0x4 ADD PUSH2 0x5EA SWAP1 PUSH2 0x35CA JUMP JUMPDEST PUSH1 0x2 PUSH1 0x7 SLOAD SUB PUSH2 0x9A5 JUMPI PUSH1 0x40 MLOAD PUSH3 0x461BCD PUSH1 0xE5 SHL DUP2 MSTORE PUSH1 0x20 PUSH1 0x4 DUP3 ADD MSTORE PUSH1 0x1F PUSH1 0x24 DUP3 ADD MSTORE PUSH32 0x5265656E7472616E637947756172643A207265656E7472616E742063616C6C00 PUSH1 0x44 DUP3 ADD MSTORE PUSH1 0x64 ADD PUSH2 0x5EA JUMP JUMPDEST PUSH1 0x2 PUSH1 0x7 DUP2 SWAP1 SSTORE PUSH0 DUP6 DUP2 MSTORE PUSH1 0xD PUSH1 0x20 SWAP1 DUP2 MSTORE PUSH1 0x40 DUP1 DUP4 KECCAK256 DUP2 MLOAD PUSH2 0x180 DUP2 ADD DUP4 MSTORE DUP2 SLOAD DUP2 MSTORE PUSH1 0x1 DUP3 ADD SLOAD PUSH1 0x1 PUSH1 0x1 PUSH1 0xA0 SHL SUB AND SWAP4 DUP2 ADD SWAP4 SWAP1 SWAP4 MSTORE SWAP4 DUP5 ADD SLOAD SWAP1 DUP3 ADD MSTORE PUSH1 0x3 DUP4 ADD SLOAD PUSH1 0x60 DUP3 ADD MSTORE PUSH1 0x4 DUP4 ADD SLOAD PUSH1 0xFF DUP1 DUP3 AND ISZERO ISZERO PUSH1 0x80 DUP5 ADD MSTORE PUSH2 0x100 SWAP1 SWAP2 DIV AND ISZERO ISZERO PUSH1 0xA0 DUP3 ADD MSTORE PUSH1 0x5 DUP4 ADD DUP1 SLOAD CALLER SWAP5 SWAP2 PUSH1 0xC0 DUP5 ADD SWAP2 PUSH2 0xA26 SWAP1 PUSH2 0x3598 JUMP JUMPDEST DUP1 PUSH1 0x1F ADD PUSH1 0x20 DUP1 SWAP2 DIV MUL PUSH1 0x20 ADD PUSH1 0x40 MLOAD SWAP1 DUP2 ADD PUSH1 0x40 MSTORE DUP1 SWAP3 SWAP2 SWAP1 DUP2 DUP2 MSTORE PUSH1 0x20 ADD DUP3 DUP1 SLOAD PUSH2 0xA52 SWAP1 PUSH2 0x3598 JUMP JUMPDEST DUP1 ISZERO PUSH2 0xA9D JUMPI DUP1 PUSH1 0x1F LT PUSH2 0xA74 JUMPI PUSH2 0x100 DUP1 DUP4 SLOAD DIV MUL DUP4 MSTORE SWAP2 PUSH1 0x20 ADD SWAP2 PUSH2 0xA9D JUMP JUMPDEST DUP3 ADD SWAP2 SWAP1 PUSH0 MSTORE PUSH1 0x20 PUSH0 KECCAK256 SWAP1 JUMPDEST DUP2 SLOAD DUP2 MSTORE SWAP1 PUSH1 0x1 ADD SWAP1 PUSH1 0x20 ADD DUP1 DUP4 GT PUSH2 0xA80 JUMPI DUP3 SWAP1 SUB PUSH1 0x1F AND DUP3 ADD SWAP2 JUMPDEST POP POP POP POP POP DUP2 MSTORE PUSH1 0x20 ADD PUSH1 0x6 DUP3 ADD DUP1 SLOAD DUP1 PUSH1 0x20 MUL PUSH1 0x20 ADD PUSH1 0x40 MLOAD SWAP1 DUP2 ADD PUSH1 0x40 MSTORE DUP1 SWAP3 SWAP2 SWAP1 DUP2 DUP2 MSTORE PUSH1 0x20 ADD DUP3 DUP1 SLOAD DUP1 ISZERO PUSH2 0xAFD JUMPI PUSH1 0x20 MUL DUP3 ADD SWAP2 SWAP1 PUSH0 MSTORE PUSH1 0x20 PUSH0 KECCAK256 SWAP1 JUMPDEST DUP2 SLOAD PUSH1 0x1 PUSH1 0x1 PUSH1 0xA0 SHL SUB AND DUP2 MSTORE PUSH1 0x1 SWAP1 SWAP2 ADD SWAP1 PUSH1 0x20 ADD DUP1 DUP4 GT PUSH2 0xADF JUMPI JUMPDEST POP POP POP SWAP2 DUP4 MSTORE POP POP PUSH1 0x7 DUP3 ADD SLOAD PUSH1 0x1 PUSH1 0x1 PUSH1 0xA0 SHL SUB AND PUSH1 0x20 DUP1 DUP4 ADD SWAP2 SWAP1 SWAP2 MSTORE PUSH1 0x8 DUP4 ADD DUP1 SLOAD PUSH1 0x40 DUP1 MLOAD DUP3 DUP6 MUL DUP2 ADD DUP6 ADD DUP3 MSTORE DUP3 DUP2 MSTORE SWAP5 ADD SWAP4 SWAP3 DUP4 ADD DUP3 DUP3 DUP1 ISZERO PUSH2 0xB6D JUMPI PUSH1 0x20 MUL DUP3 ADD SWAP2 SWAP1 PUSH0 MSTORE PUSH1 0x20 PUSH0 KECCAK256 SWAP1 JUMPDEST DUP2 SLOAD PUSH1 0x1 PUSH1 0x1 PUSH1 0xA0 SHL SUB AND DUP2 MSTORE PUSH1 0x1 SWAP1 SWAP2 ADD SWAP1 PUSH1 0x20 ADD DUP1 DUP4 GT PUSH2 0xB4F JUMPI JUMPDEST POP POP POP SWAP2 DUP4 MSTORE POP POP PUSH1 0x40 DUP1 MLOAD DUP1 DUP3 ADD SWAP2 DUP3 SWAP1 MSTORE PUSH1 0x20 SWAP1 SWAP3 ADD SWAP2 SWAP1 PUSH1 0x9 DUP5 ADD SWAP1 PUSH1 0x2 SWAP1 DUP3 PUSH0 DUP6 JUMPDEST DUP3 SLOAD PUSH2 0x100 DUP4 SWAP1 EXP SWAP1 DIV PUSH1 0xFF AND ISZERO ISZERO DUP2 MSTORE PUSH1 0x20 PUSH1 0x1 SWAP3 DUP4 ADD DUP2 DUP2 DIV SWAP5 DUP6 ADD SWAP5 SWAP1 SWAP4 SUB SWAP1 SWAP3 MUL SWAP2 ADD DUP1 DUP5 GT PUSH2 0xB93 JUMPI POP POP POP SWAP3 DUP5 MSTORE POP POP PUSH1 0x40 DUP1 MLOAD DUP1 DUP3 ADD SWAP2 DUP3 SWAP1 MSTORE PUSH1 0x20 SWAP1 SWAP4 ADD SWAP3 SWAP2 POP PUSH1 0xA DUP5 ADD SWAP1 PUSH1 0x2 SWAP1 DUP3 PUSH0 DUP6 JUMPDEST DUP3 SLOAD PUSH2 0x100 DUP4 SWAP1 EXP SWAP1 DIV PUSH1 0xFF AND ISZERO ISZERO DUP2 MSTORE PUSH1 0x20 PUSH1 0x1 SWAP3 DUP4 ADD DUP2 DUP2 DIV SWAP5 DUP6 ADD SWAP5 SWAP1 SWAP4 SUB SWAP1 SWAP3 MUL SWAP2 ADD DUP1 DUP5 GT PUSH2 0xBE8 JUMPI SWAP1 POP POP POP POP POP POP DUP2 MSTORE POP POP SWAP1 POP DUP1 PUSH1 0x80 ADD MLOAD ISZERO ISZERO PUSH1 0x1 ISZERO ISZERO EQ PUSH2 0xC76 JUMPI PUSH1 0x40 MLOAD PUSH3 0x461BCD PUSH1 0xE5 SHL DUP2 MSTORE PUSH1 0x20 PUSH1 0x4 DUP3 ADD MSTORE PUSH1 0x18 PUSH1 0x24 DUP3 ADD MSTORE PUSH24 0x129BD89CCE88129BD8881A5CC81B9BDD081CDD185C9D1959 PUSH1 0x42 SHL PUSH1 0x44 DUP3 ADD MSTORE PUSH1 0x64 ADD PUSH2 0x5EA JUMP JUMPDEST DUP1 PUSH1 0x20 ADD MLOAD PUSH1 0x1 PUSH1 0x1 PUSH1 0xA0 SHL SUB AND DUP3 PUSH1 0x1 PUSH1 0x1 PUSH1 0xA0 SHL SUB AND SUB PUSH2 0xCB3 JUMPI PUSH0 DUP7 DUP2 MSTORE PUSH1 0xD PUSH1 0x20 MSTORE PUSH1 0x40 SWAP1 KECCAK256 PUSH1 0xA ADD DUP1 SLOAD PUSH1 0xFF NOT AND PUSH1 0x1 OR SWAP1 SSTORE PUSH2 0xCEF JUMP JUMPDEST DUP1 PUSH2 0x100 ADD MLOAD PUSH1 0x1 PUSH1 0x1 PUSH1 0xA0 SHL SUB AND DUP3 PUSH1 0x1 PUSH1 0x1 PUSH1 0xA0 SHL SUB AND SUB PUSH2 0xCEF JUMPI PUSH0 DUP7 DUP2 MSTORE PUSH1 0xD PUSH1 0x20 MSTORE PUSH1 0x40 SWAP1 KECCAK256 PUSH1 0xA ADD DUP1 SLOAD PUSH2 0xFF00 NOT AND PUSH2 0x100 OR SWAP1 SSTORE JUMPDEST PUSH0 DUP7 DUP2 MSTORE PUSH1 0xD PUSH1 0x20 MSTORE PUSH1 0x40 SWAP1 KECCAK256 PUSH1 0xA ADD SLOAD PUSH1 0xFF AND DUP1 ISZERO PUSH2 0xD24 JUMPI POP PUSH0 DUP7 DUP2 MSTORE PUSH1 0xD PUSH1 0x20 MSTORE PUSH1 0x40 SWAP1 KECCAK256 PUSH1 0xA ADD SLOAD PUSH2 0x100 SWAP1 DIV PUSH1 0xFF AND JUMPDEST ISZERO PUSH2 0xE52 JUMPI PUSH0 DUP7 DUP2 MSTORE PUSH1 0xD PUSH1 0x20 SWAP1 DUP2 MSTORE PUSH1 0x40 DUP1 DUP4 KECCAK256 PUSH1 0x4 SWAP1 DUP2 ADD DUP1 SLOAD PUSH2 0xFF00 NOT AND PUSH2 0x100 SWAP1 DUP2 OR SWAP1 SWAP2 SSTORE DUP6 ADD MLOAD PUSH1 0x1 PUSH1 0x1 PUSH1 0xA0 SHL SUB AND DUP5 MSTORE PUSH1 0xC SWAP1 SWAP3 MSTORE DUP3 KECCAK256 ADD DUP1 SLOAD PUSH1 0x1 SWAP3 SWAP1 PUSH2 0xD75 SWAP1 DUP5 SWAP1 PUSH2 0x361A JUMP JUMPDEST SWAP3 POP POP DUP2 SWAP1 SSTORE POP PUSH1 0x1 PUSH1 0xA PUSH0 DUP3 DUP3 SLOAD PUSH2 0xD8E SWAP2 SWAP1 PUSH2 0x361A JUMP JUMPDEST SWAP1 SWAP2 SSTORE POP POP PUSH2 0x100 DUP2 ADD DUP1 MLOAD PUSH1 0x1 PUSH1 0x1 PUSH1 0xA0 SHL SUB AND PUSH0 SWAP1 DUP2 MSTORE PUSH1 0xC PUSH1 0x20 SWAP1 DUP2 MSTORE PUSH1 0x40 DUP3 KECCAK256 PUSH1 0xA DUP1 SLOAD PUSH1 0x1 SWAP3 DUP4 ADD DUP1 SLOAD SWAP4 DUP5 ADD DUP2 SSTORE DUP6 MSTORE SWAP3 SWAP1 SWAP4 KECCAK256 ADD SSTORE SWAP1 MLOAD SWAP1 SLOAD PUSH2 0xDD8 SWAP2 SWAP1 PUSH2 0x26E8 JUMP JUMPDEST PUSH1 0xB SLOAD PUSH1 0x60 DUP3 ADD MLOAD PUSH1 0x40 MLOAD PUSH4 0xA9059CBB PUSH1 0xE0 SHL DUP2 MSTORE CALLER PUSH1 0x4 DUP3 ADD MSTORE PUSH1 0x24 DUP2 ADD SWAP2 SWAP1 SWAP2 MSTORE PUSH1 0x1 PUSH1 0x1 PUSH1 0xA0 SHL SUB SWAP1 SWAP2 AND SWAP1 PUSH4 0xA9059CBB SWAP1 PUSH1 0x44 ADD PUSH1 0x20 PUSH1 0x40 MLOAD DUP1 DUP4 SUB DUP2 PUSH0 DUP8 GAS CALL ISZERO DUP1 ISZERO PUSH2 0xE2C JUMPI RETURNDATASIZE PUSH0 DUP1 RETURNDATACOPY RETURNDATASIZE PUSH0 REVERT JUMPDEST POP POP POP POP PUSH1 0x40 MLOAD RETURNDATASIZE PUSH1 0x1F NOT PUSH1 0x1F DUP3 ADD AND DUP3 ADD DUP1 PUSH1 0x40 MSTORE POP DUP2 ADD SWAP1 PUSH2 0xE50 SWAP2 SWAP1 PUSH2 0x3639 JUMP JUMPDEST POP JUMPDEST DUP1 PUSH2 0x100 ADD MLOAD PUSH1 0x1 PUSH1 0x1 PUSH1 0xA0 SHL SUB AND DUP7 PUSH32 0xC78810A99B0991266CC67AACF9662FC123A1797DD46074EE5BFC801031A617BC PUSH1 0x40 MLOAD PUSH1 0x40 MLOAD DUP1 SWAP2 SUB SWAP1 LOG3 PUSH1 0x1 SWAP5 POP POP POP POP POP PUSH1 0x1 PUSH1 0x7 SSTORE SWAP2 SWAP1 POP JUMP JUMPDEST PUSH2 0xEAA CALLER DUP3 PUSH2 0x2701 JUMP JUMPDEST PUSH2 0xEC6 JUMPI PUSH1 0x40 MLOAD PUSH3 0x461BCD PUSH1 0xE5 SHL DUP2 MSTORE PUSH1 0x4 ADD PUSH2 0x5EA SWAP1 PUSH2 0x3654 JUMP JUMPDEST PUSH2 0x889 DUP4 DUP4 DUP4 PUSH2 0x277E JUMP JUMPDEST PUSH0 DUP3 DUP2 MSTORE PUSH1 0xD PUSH1 0x20 MSTORE PUSH1 0x40 DUP2 KECCAK256 PUSH1 0x1 ADD SLOAD DUP4 SWAP1 PUSH1 0x1 PUSH1 0x1 PUSH1 0xA0 SHL SUB AND PUSH2 0xF34 JUMPI PUSH1 0x40 MLOAD PUSH3 0x461BCD PUSH1 0xE5 SHL DUP2 MSTORE PUSH1 0x20 PUSH1 0x4 DUP3 ADD MSTORE PUSH1 0x18 PUSH1 0x24 DUP3 ADD MSTORE PUSH24 0x129BD89CCE88129BD888191BD95CC81B9BDD08195E1A5CDD PUSH1 0x42 SHL PUSH1 0x44 DUP3 ADD MSTORE PUSH1 0x64 ADD PUSH2 0x5EA JUMP JUMPDEST PUSH0 DUP5 DUP2 MSTORE PUSH1 0xD PUSH1 0x20 MSTORE PUSH1 0x40 SWAP1 KECCAK256 PUSH1 0x4 ADD SLOAD DUP5 SWAP1 PUSH1 0xFF AND ISZERO PUSH2 0xF97 JUMPI PUSH1 0x40 MLOAD PUSH3 0x461BCD PUSH1 0xE5 SHL DUP2 MSTORE PUSH1 0x20 PUSH1 0x4 DUP3 ADD MSTORE PUSH1 0x1A PUSH1 0x24 DUP3 ADD MSTORE PUSH32 0x4A6F62733A204A6F62206D757374206E6F742073746172746564000000000000 PUSH1 0x44 DUP3 ADD MSTORE PUSH1 0x64 ADD PUSH2 0x5EA JUMP JUMPDEST PUSH0 DUP6 DUP2 MSTORE PUSH1 0xD PUSH1 0x20 MSTORE PUSH1 0x40 SWAP1 KECCAK256 PUSH1 0x1 ADD SLOAD CALLER SWAP1 PUSH1 0x1 PUSH1 0x1 PUSH1 0xA0 SHL SUB AND DUP2 EQ PUSH2 0x100B JUMPI PUSH1 0x40 MLOAD PUSH3 0x461BCD PUSH1 0xE5 SHL DUP2 MSTORE PUSH1 0x20 PUSH1 0x4 DUP3 ADD MSTORE PUSH1 0x21 PUSH1 0x24 DUP3 ADD MSTORE PUSH32 0x4A6F62733A204F6E6C792063726561746F722063616E20696E76697465206B6F PUSH1 0x44 DUP3 ADD MSTORE PUSH1 0x1B PUSH1 0xFA SHL PUSH1 0x64 DUP3 ADD MSTORE PUSH1 0x84 ADD PUSH2 0x5EA JUMP JUMPDEST PUSH1 0x1 PUSH1 0x1 PUSH1 0xA0 SHL SUB DUP6 AND PUSH0 DUP2 DUP2 MSTORE PUSH1 0xF PUSH1 0x20 SWAP1 DUP2 MSTORE PUSH1 0x40 DUP1 DUP4 KECCAK256 DUP11 DUP5 MSTORE DUP3 MSTORE DUP1 DUP4 KECCAK256 DUP1 SLOAD PUSH1 0xFF NOT AND PUSH1 0x1 SWAP1 DUP2 OR SWAP1 SWAP2 SSTORE DUP5 DUP5 MSTORE PUSH1 0xC DUP1 DUP5 MSTORE DUP3 DUP6 KECCAK256 PUSH1 0x6 ADD DUP1 SLOAD DUP1 DUP5 ADD DUP3 SSTORE DUP2 DUP8 MSTORE DUP6 DUP8 KECCAK256 SWAP1 DUP2 ADD DUP15 SWAP1 SSTORE DUP14 DUP8 MSTORE PUSH1 0xD DUP7 MSTORE DUP5 DUP8 KECCAK256 PUSH1 0x8 ADD DUP1 SLOAD DUP1 DUP7 ADD DUP3 SSTORE SWAP1 DUP9 MSTORE DUP7 DUP9 KECCAK256 ADD DUP1 SLOAD PUSH1 0x1 PUSH1 0x1 PUSH1 0xA0 SHL SUB NOT AND DUP10 OR SWAP1 SSTORE SWAP2 SWAP1 SWAP5 MSTORE DUP4 SLOAD SWAP2 DUP3 ADD DUP5 SSTORE SWAP3 DUP5 MSTORE SWAP1 SWAP2 ADD DUP10 SWAP1 SSTORE MLOAD DUP9 SWAP2 PUSH32 0x7318A8C4124A0CFDA064AD24F3756D19F253F9AD52DDEC58EFDFBAC1EB147DD0 SWAP2 LOG3 POP PUSH1 0x1 SWAP6 SWAP5 POP POP POP POP POP JUMP JUMPDEST PUSH0 DUP2 DUP2 MSTORE PUSH1 0xD PUSH1 0x20 MSTORE PUSH1 0x40 DUP2 KECCAK256 PUSH1 0x4 ADD SLOAD DUP3 SWAP1 PUSH1 0xFF AND ISZERO PUSH2 0x1130 JUMPI PUSH1 0x40 MLOAD PUSH3 0x461BCD PUSH1 0xE5 SHL DUP2 MSTORE PUSH1 0x20 PUSH1 0x4 DUP3 ADD MSTORE PUSH1 0x1A PUSH1 0x24 DUP3 ADD MSTORE PUSH32 0x4A6F62733A204A6F62206D757374206E6F742073746172746564000000000000 PUSH1 0x44 DUP3 ADD MSTORE PUSH1 0x64 ADD PUSH2 0x5EA JUMP JUMPDEST CALLER PUSH0 DUP2 DUP2 MSTORE PUSH1 0xF PUSH1 0x20 SWAP1 DUP2 MSTORE PUSH1 0x40 DUP1 DUP4 KECCAK256 DUP8 DUP5 MSTORE SWAP1 SWAP2 MSTORE SWAP1 KECCAK256 SLOAD PUSH1 0xFF AND ISZERO ISZERO PUSH1 0x1 EQ PUSH2 0x119E JUMPI PUSH1 0x40 MLOAD PUSH3 0x461BCD PUSH1 0xE5 SHL DUP2 MSTORE PUSH1 0x20 PUSH1 0x4 DUP3 ADD MSTORE PUSH1 0x1E PUSH1 0x24 DUP3 ADD MSTORE PUSH32 0x4A6F623A207369676E6572206E6F7420696E766974656420746F206A6F620000 PUSH1 0x44 DUP3 ADD MSTORE PUSH1 0x64 ADD PUSH2 0x5EA JUMP JUMPDEST PUSH0 DUP5 DUP2 MSTORE PUSH1 0xD PUSH1 0x20 SWAP1 DUP2 MSTORE PUSH1 0x40 DUP1 DUP4 KECCAK256 PUSH1 0x4 DUP2 ADD DUP1 SLOAD PUSH1 0xFF NOT AND PUSH1 0x1 SWAP1 DUP2 OR SWAP1 SWAP2 SSTORE PUSH1 0x7 SWAP1 SWAP2 ADD DUP1 SLOAD PUSH1 0x1 PUSH1 0x1 PUSH1 0xA0 SHL SUB DUP8 AND PUSH1 0x1 PUSH1 0x1 PUSH1 0xA0 SHL SUB NOT SWAP1 SWAP2 AND DUP2 OR SWAP1 SWAP2 SSTORE DUP1 DUP6 MSTORE PUSH1 0xC DUP5 MSTORE DUP3 DUP6 KECCAK256 PUSH1 0x2 ADD DUP1 SLOAD SWAP3 DUP4 ADD DUP2 SSTORE DUP6 MSTORE SWAP3 DUP5 KECCAK256 ADD DUP8 SWAP1 SSTORE MLOAD SWAP1 SWAP2 DUP7 SWAP2 PUSH32 0x15534970B35940BBA5CF89E4AC4162B21988099D0B43254FB4DF27D9973FA1E1 SWAP2 SWAP1 LOG3 PUSH1 0x1 SWAP3 POP POP JUMPDEST POP SWAP2 SWAP1 POP JUMP JUMPDEST PUSH0 DUP2 DUP2 MSTORE PUSH1 0xD PUSH1 0x20 MSTORE PUSH1 0x40 DUP2 KECCAK256 PUSH1 0x4 ADD SLOAD DUP3 SWAP1 PUSH2 0x100 SWAP1 DIV PUSH1 0xFF AND ISZERO PUSH2 0x129C JUMPI PUSH1 0x40 MLOAD PUSH3 0x461BCD PUSH1 0xE5 SHL DUP2 MSTORE PUSH1 0x20 PUSH1 0x4 DUP3 ADD MSTORE PUSH1 0x1C PUSH1 0x24 DUP3 ADD MSTORE PUSH32 0x4A6F62733A204A6F62206D757374206E6F7420636F6D706C6574656400000000 PUSH1 0x44 DUP3 ADD MSTORE PUSH1 0x64 ADD PUSH2 0x5EA JUMP JUMPDEST PUSH0 DUP4 DUP2 MSTORE PUSH1 0xD PUSH1 0x20 MSTORE PUSH1 0x40 SWAP1 KECCAK256 PUSH1 0x1 ADD SLOAD DUP4 SWAP1 PUSH1 0x1 PUSH1 0x1 PUSH1 0xA0 SHL SUB AND CALLER EQ DUP1 PUSH2 0x12DD JUMPI POP PUSH0 DUP2 DUP2 MSTORE PUSH1 0xD PUSH1 0x20 MSTORE PUSH1 0x40 SWAP1 KECCAK256 PUSH1 0x7 ADD SLOAD PUSH1 0x1 PUSH1 0x1 PUSH1 0xA0 SHL SUB AND CALLER EQ JUMPDEST PUSH2 0x12F9 JUMPI PUSH1 0x40 MLOAD PUSH3 0x461BCD PUSH1 0xE5 SHL DUP2 MSTORE PUSH1 0x4 ADD PUSH2 0x5EA SWAP1 PUSH2 0x35CA JUMP JUMPDEST PUSH0 DUP5 DUP2 MSTORE PUSH1 0xD PUSH1 0x20 SWAP1 DUP2 MSTORE PUSH1 0x40 DUP1 DUP4 KECCAK256 DUP2 MLOAD PUSH2 0x180 DUP2 ADD DUP4 MSTORE DUP2 SLOAD DUP2 MSTORE PUSH1 0x1 DUP3 ADD SLOAD PUSH1 0x1 PUSH1 0x1 PUSH1 0xA0 SHL SUB AND SWAP4 DUP2 ADD SWAP4 SWAP1 SWAP4 MSTORE PUSH1 0x2 DUP2 ADD SLOAD SWAP2 DUP4 ADD SWAP2 SWAP1 SWAP2 MSTORE PUSH1 0x3 DUP2 ADD SLOAD PUSH1 0x60 DUP4 ADD MSTORE PUSH1 0x4 DUP2 ADD SLOAD PUSH1 0xFF DUP1 DUP3 AND ISZERO ISZERO PUSH1 0x80 DUP6 ADD MSTORE PUSH2 0x100 SWAP1 SWAP2 DIV AND ISZERO ISZERO PUSH1 0xA0 DUP4 ADD MSTORE PUSH1 0x5 DUP2 ADD DUP1 SLOAD CALLER SWAP5 SWAP4 SWAP3 SWAP2 PUSH1 0xC0 DUP5 ADD SWAP2 PUSH2 0x1379 SWAP1 PUSH2 0x3598 JUMP JUMPDEST DUP1 PUSH1 0x1F ADD PUSH1 0x20 DUP1 SWAP2 DIV MUL PUSH1 0x20 ADD PUSH1 0x40 MLOAD SWAP1 DUP2 ADD PUSH1 0x40 MSTORE DUP1 SWAP3 SWAP2 SWAP1 DUP2 DUP2 MSTORE PUSH1 0x20 ADD DUP3 DUP1 SLOAD PUSH2 0x13A5 SWAP1 PUSH2 0x3598 JUMP JUMPDEST DUP1 ISZERO PUSH2 0x13F0 JUMPI DUP1 PUSH1 0x1F LT PUSH2 0x13C7 JUMPI PUSH2 0x100 DUP1 DUP4 SLOAD DIV MUL DUP4 MSTORE SWAP2 PUSH1 0x20 ADD SWAP2 PUSH2 0x13F0 JUMP JUMPDEST DUP3 ADD SWAP2 SWAP1 PUSH0 MSTORE PUSH1 0x20 PUSH0 KECCAK256 SWAP1 JUMPDEST DUP2 SLOAD DUP2 MSTORE SWAP1 PUSH1 0x1 ADD SWAP1 PUSH1 0x20 ADD DUP1 DUP4 GT PUSH2 0x13D3 JUMPI DUP3 SWAP1 SUB PUSH1 0x1F AND DUP3 ADD SWAP2 JUMPDEST POP POP POP POP POP DUP2 MSTORE PUSH1 0x20 ADD PUSH1 0x6 DUP3 ADD DUP1 SLOAD DUP1 PUSH1 0x20 MUL PUSH1 0x20 ADD PUSH1 0x40 MLOAD SWAP1 DUP2 ADD PUSH1 0x40 MSTORE DUP1 SWAP3 SWAP2 SWAP1 DUP2 DUP2 MSTORE PUSH1 0x20 ADD DUP3 DUP1 SLOAD DUP1 ISZERO PUSH2 0x1450 JUMPI PUSH1 0x20 MUL DUP3 ADD SWAP2 SWAP1 PUSH0 MSTORE PUSH1 0x20 PUSH0 KECCAK256 SWAP1 JUMPDEST DUP2 SLOAD PUSH1 0x1 PUSH1 0x1 PUSH1 0xA0 SHL SUB AND DUP2 MSTORE PUSH1 0x1 SWAP1 SWAP2 ADD SWAP1 PUSH1 0x20 ADD DUP1 DUP4 GT PUSH2 0x1432 JUMPI JUMPDEST POP POP POP SWAP2 DUP4 MSTORE POP POP PUSH1 0x7 DUP3 ADD SLOAD PUSH1 0x1 PUSH1 0x1 PUSH1 0xA0 SHL SUB AND PUSH1 0x20 DUP1 DUP4 ADD SWAP2 SWAP1 SWAP2 MSTORE PUSH1 0x8 DUP4 ADD DUP1 SLOAD PUSH1 0x40 DUP1 MLOAD DUP3 DUP6 MUL DUP2 ADD DUP6 ADD DUP3 MSTORE DUP3 DUP2 MSTORE SWAP5 ADD SWAP4 SWAP3 DUP4 ADD DUP3 DUP3 DUP1 ISZERO PUSH2 0x14C0 JUMPI PUSH1 0x20 MUL DUP3 ADD SWAP2 SWAP1 PUSH0 MSTORE PUSH1 0x20 PUSH0 KECCAK256 SWAP1 JUMPDEST DUP2 SLOAD PUSH1 0x1 PUSH1 0x1 PUSH1 0xA0 SHL SUB AND DUP2 MSTORE PUSH1 0x1 SWAP1 SWAP2 ADD SWAP1 PUSH1 0x20 ADD DUP1 DUP4 GT PUSH2 0x14A2 JUMPI JUMPDEST POP POP POP SWAP2 DUP4 MSTORE POP POP PUSH1 0x40 DUP1 MLOAD DUP1 DUP3 ADD SWAP2 DUP3 SWAP1 MSTORE PUSH1 0x20 SWAP1 SWAP3 ADD SWAP2 SWAP1 PUSH1 0x9 DUP5 ADD SWAP1 PUSH1 0x2 SWAP1 DUP3 PUSH0 DUP6 JUMPDEST DUP3 SLOAD PUSH2 0x100 DUP4 SWAP1 EXP SWAP1 DIV PUSH1 0xFF AND ISZERO ISZERO DUP2 MSTORE PUSH1 0x20 PUSH1 0x1 SWAP3 DUP4 ADD DUP2 DUP2 DIV SWAP5 DUP6 ADD SWAP5 SWAP1 SWAP4 SUB SWAP1 SWAP3 MUL SWAP2 ADD DUP1 DUP5 GT PUSH2 0x14E6 JUMPI POP POP POP SWAP3 DUP5 MSTORE POP POP PUSH1 0x40 DUP1 MLOAD DUP1 DUP3 ADD SWAP2 DUP3 SWAP1 MSTORE PUSH1 0x20 SWAP1 SWAP4 ADD SWAP3 SWAP2 POP PUSH1 0xA DUP5 ADD SWAP1 PUSH1 0x2 SWAP1 DUP3 PUSH0 DUP6 JUMPDEST DUP3 SLOAD PUSH2 0x100 DUP4 SWAP1 EXP SWAP1 DIV PUSH1 0xFF AND ISZERO ISZERO DUP2 MSTORE PUSH1 0x20 PUSH1 0x1 SWAP3 DUP4 ADD DUP2 DUP2 DIV SWAP5 DUP6 ADD SWAP5 SWAP1 SWAP4 SUB SWAP1 SWAP3 MUL SWAP2 ADD DUP1 DUP5 GT PUSH2 0x153B JUMPI SWAP1 POP POP POP POP POP POP DUP2 MSTORE POP POP SWAP1 POP DUP1 PUSH1 0x80 ADD MLOAD ISZERO ISZERO PUSH1 0x1 ISZERO ISZERO EQ PUSH2 0x15C9 JUMPI PUSH1 0x40 MLOAD PUSH3 0x461BCD PUSH1 0xE5 SHL DUP2 MSTORE PUSH1 0x20 PUSH1 0x4 DUP3 ADD MSTORE PUSH1 0x18 PUSH1 0x24 DUP3 ADD MSTORE PUSH24 0x129BD89CCE88129BD8881A5CC81B9BDD081CDD185C9D1959 PUSH1 0x42 SHL PUSH1 0x44 DUP3 ADD MSTORE PUSH1 0x64 ADD PUSH2 0x5EA JUMP JUMPDEST DUP1 PUSH1 0x20 ADD MLOAD PUSH1 0x1 PUSH1 0x1 PUSH1 0xA0 SHL SUB AND DUP3 PUSH1 0x1 PUSH1 0x1 PUSH1 0xA0 SHL SUB AND SUB PUSH2 0x15F5 JUMPI PUSH2 0x140 DUP2 ADD MLOAD PUSH1 0x1 SWAP1 MSTORE PUSH2 0x1622 JUMP JUMPDEST DUP1 PUSH2 0x100 ADD MLOAD PUSH1 0x1 PUSH1 0x1 PUSH1 0xA0 SHL SUB AND DUP3 PUSH1 0x1 PUSH1 0x1 PUSH1 0xA0 SHL SUB AND SUB PUSH2 0x1622 JUMPI PUSH2 0x140 DUP2 ADD MLOAD PUSH1 0x1 PUSH1 0x20 SWAP1 SWAP2 ADD MSTORE JUMPDEST PUSH2 0x140 DUP2 ADD MLOAD MLOAD DUP1 ISZERO PUSH2 0x163B JUMPI POP PUSH2 0x140 DUP2 ADD MLOAD PUSH1 0x20 ADD MLOAD JUMPDEST ISZERO PUSH2 0x166B JUMPI PUSH0 DUP7 DUP2 MSTORE PUSH1 0xD PUSH1 0x20 MSTORE PUSH1 0x40 SWAP1 KECCAK256 PUSH1 0x4 DUP2 ADD DUP1 SLOAD PUSH1 0xFF NOT AND SWAP1 SSTORE PUSH1 0x7 ADD DUP1 SLOAD PUSH1 0x1 PUSH1 0x1 PUSH1 0xA0 SHL SUB NOT AND SWAP1 SSTORE JUMPDEST PUSH1 0x40 MLOAD DUP7 SWAP1 PUSH32 0xD65F1725B53D7BEA5B4AD3D2EFB749458DCF6EAB615404A5C718B3573B6B1E5D SWAP1 PUSH0 SWAP1 LOG2 POP PUSH1 0x1 SWAP6 SWAP5 POP POP POP POP POP JUMP JUMPDEST PUSH2 0x16A9 PUSH2 0x2DB8 JUMP JUMPDEST CALLER PUSH0 DUP2 DUP2 MSTORE PUSH1 0xC PUSH1 0x20 MSTORE PUSH1 0x40 SWAP1 KECCAK256 SLOAD PUSH1 0x1 PUSH1 0x1 PUSH1 0xA0 SHL SUB AND ISZERO PUSH2 0x170E JUMPI PUSH1 0x40 MLOAD PUSH3 0x461BCD PUSH1 0xE5 SHL DUP2 MSTORE PUSH1 0x20 PUSH1 0x4 DUP3 ADD MSTORE PUSH1 0x1C PUSH1 0x24 DUP3 ADD MSTORE PUSH32 0x4A6F62733A2050726F66696C6520616C72656164792065786973747300000000 PUSH1 0x44 DUP3 ADD MSTORE PUSH1 0x64 ADD PUSH2 0x5EA JUMP JUMPDEST PUSH1 0x1 PUSH1 0x1 PUSH1 0xA0 SHL SUB DUP2 DUP2 AND DUP1 DUP5 MSTORE PUSH1 0x60 DUP5 ADD DUP6 SWAP1 MSTORE PUSH0 SWAP1 DUP2 MSTORE PUSH1 0xC PUSH1 0x20 SWAP1 DUP2 MSTORE PUSH1 0x40 SWAP1 SWAP2 KECCAK256 DUP5 MLOAD DUP2 SLOAD PUSH1 0x1 PUSH1 0x1 PUSH1 0xA0 SHL SUB NOT AND SWAP4 AND SWAP3 SWAP1 SWAP3 OR DUP3 SSTORE DUP1 DUP5 ADD MLOAD DUP1 MLOAD DUP6 SWAP4 SWAP3 PUSH2 0x1763 SWAP3 PUSH1 0x1 DUP6 ADD SWAP3 SWAP2 ADD SWAP1 PUSH2 0x2DFB JUMP JUMPDEST POP PUSH1 0x40 DUP3 ADD MLOAD DUP1 MLOAD PUSH2 0x177F SWAP2 PUSH1 0x2 DUP5 ADD SWAP2 PUSH1 0x20 SWAP1 SWAP2 ADD SWAP1 PUSH2 0x2DFB JUMP JUMPDEST POP PUSH1 0x60 DUP3 ADD MLOAD PUSH1 0x3 DUP3 ADD SSTORE PUSH1 0x80 DUP3 ADD MLOAD PUSH1 0x4 DUP3 ADD SSTORE PUSH1 0xA0 DUP3 ADD MLOAD DUP1 MLOAD PUSH2 0x17AF SWAP2 PUSH1 0x5 DUP5 ADD SWAP2 PUSH1 0x20 SWAP1 SWAP2 ADD SWAP1 PUSH2 0x2DFB JUMP JUMPDEST POP PUSH1 0xC0 DUP3 ADD MLOAD DUP1 MLOAD PUSH2 0x17CB SWAP2 PUSH1 0x6 DUP5 ADD SWAP2 PUSH1 0x20 SWAP1 SWAP2 ADD SWAP1 PUSH2 0x2DFB JUMP JUMPDEST POP POP PUSH1 0x40 MLOAD DUP5 SWAP2 POP PUSH1 0x1 PUSH1 0x1 PUSH1 0xA0 SHL SUB DUP4 AND SWAP1 PUSH32 0xE4389AB9C67CCE68E65561D8FC2FABF4D88B4C66A0874E1B7980682DE4168189 SWAP1 PUSH0 SWAP1 LOG3 POP SWAP2 SWAP1 POP JUMP JUMPDEST PUSH2 0x889 DUP4 DUP4 DUP4 PUSH1 0x40 MLOAD DUP1 PUSH1 0x20 ADD PUSH1 0x40 MSTORE DUP1 PUSH0 DUP2 MSTORE POP PUSH2 0x2278 JUMP JUMPDEST PUSH1 0xD PUSH1 0x20 MSTORE PUSH0 SWAP1 DUP2 MSTORE PUSH1 0x40 SWAP1 KECCAK256 DUP1 SLOAD PUSH1 0x1 DUP3 ADD SLOAD PUSH1 0x2 DUP4 ADD SLOAD PUSH1 0x3 DUP5 ADD SLOAD PUSH1 0x4 DUP6 ADD SLOAD PUSH1 0x5 DUP7 ADD DUP1 SLOAD SWAP6 SWAP7 PUSH1 0x1 PUSH1 0x1 PUSH1 0xA0 SHL SUB SWAP1 SWAP6 AND SWAP6 SWAP4 SWAP5 SWAP3 SWAP4 PUSH1 0xFF DUP1 DUP5 AND SWAP5 PUSH2 0x100 SWAP1 SWAP5 DIV AND SWAP3 SWAP2 SWAP1 PUSH2 0x1877 SWAP1 PUSH2 0x3598 JUMP JUMPDEST DUP1 PUSH1 0x1F ADD PUSH1 0x20 DUP1 SWAP2 DIV MUL PUSH1 0x20 ADD PUSH1 0x40 MLOAD SWAP1 DUP2 ADD PUSH1 0x40 MSTORE DUP1 SWAP3 SWAP2 SWAP1 DUP2 DUP2 MSTORE PUSH1 0x20 ADD DUP3 DUP1 SLOAD PUSH2 0x18A3 SWAP1 PUSH2 0x3598 JUMP JUMPDEST DUP1 ISZERO PUSH2 0x18EE JUMPI DUP1 PUSH1 0x1F LT PUSH2 0x18C5 JUMPI PUSH2 0x100 DUP1 DUP4 SLOAD DIV MUL DUP4 MSTORE SWAP2 PUSH1 0x20 ADD SWAP2 PUSH2 0x18EE JUMP JUMPDEST DUP3 ADD SWAP2 SWAP1 PUSH0 MSTORE PUSH1 0x20 PUSH0 KECCAK256 SWAP1 JUMPDEST DUP2 SLOAD DUP2 MSTORE SWAP1 PUSH1 0x1 ADD SWAP1 PUSH1 0x20 ADD DUP1 DUP4 GT PUSH2 0x18D1 JUMPI DUP3 SWAP1 SUB PUSH1 0x1F AND DUP3 ADD SWAP2 JUMPDEST POP POP POP PUSH1 0x7 SWAP1 SWAP4 ADD SLOAD SWAP2 SWAP3 POP POP PUSH1 0x1 PUSH1 0x1 PUSH1 0xA0 SHL SUB AND DUP9 JUMP JUMPDEST PUSH0 DUP2 DUP2 MSTORE PUSH1 0x2 PUSH1 0x20 MSTORE PUSH1 0x40 DUP2 KECCAK256 SLOAD PUSH1 0x1 PUSH1 0x1 PUSH1 0xA0 SHL SUB AND DUP1 PUSH2 0x4F8 JUMPI PUSH1 0x40 MLOAD PUSH3 0x461BCD PUSH1 0xE5 SHL DUP2 MSTORE PUSH1 0x20 PUSH1 0x4 DUP3 ADD MSTORE PUSH1 0x18 PUSH1 0x24 DUP3 ADD MSTORE PUSH24 0x115490CDCC8C4E881A5B9D985B1A59081D1BDAD95B881251 PUSH1 0x42 SHL PUSH1 0x44 DUP3 ADD MSTORE PUSH1 0x64 ADD PUSH2 0x5EA JUMP JUMPDEST PUSH0 PUSH1 0x1 PUSH1 0x1 PUSH1 0xA0 SHL SUB DUP3 AND PUSH2 0x19CF JUMPI PUSH1 0x40 MLOAD PUSH3 0x461BCD PUSH1 0xE5 SHL DUP2 MSTORE PUSH1 0x20 PUSH1 0x4 DUP3 ADD MSTORE PUSH1 0x29 PUSH1 0x24 DUP3 ADD MSTORE PUSH32 0x4552433732313A2061646472657373207A65726F206973206E6F742061207661 PUSH1 0x44 DUP3 ADD MSTORE PUSH9 0x3634B21037BBB732B9 PUSH1 0xB9 SHL PUSH1 0x64 DUP3 ADD MSTORE PUSH1 0x84 ADD PUSH2 0x5EA JUMP JUMPDEST POP PUSH1 0x1 PUSH1 0x1 PUSH1 0xA0 SHL SUB AND PUSH0 SWAP1 DUP2 MSTORE PUSH1 0x3 PUSH1 0x20 MSTORE PUSH1 0x40 SWAP1 KECCAK256 SLOAD SWAP1 JUMP JUMPDEST PUSH2 0x19F2 PUSH2 0x28ED JUMP JUMPDEST PUSH2 0x19FB PUSH0 PUSH2 0x2947 JUMP JUMPDEST JUMP JUMPDEST PUSH2 0x1A05 PUSH2 0x2E44 JUMP JUMPDEST PUSH0 DUP3 DUP2 MSTORE PUSH1 0xD PUSH1 0x20 SWAP1 DUP2 MSTORE PUSH1 0x40 SWAP2 DUP3 SWAP1 KECCAK256 DUP3 MLOAD PUSH2 0x180 DUP2 ADD DUP5 MSTORE DUP2 SLOAD DUP2 MSTORE PUSH1 0x1 DUP3 ADD SLOAD PUSH1 0x1 PUSH1 0x1 PUSH1 0xA0 SHL SUB AND SWAP3 DUP2 ADD SWAP3 SWAP1 SWAP3 MSTORE PUSH1 0x2 DUP2 ADD SLOAD SWAP3 DUP3 ADD SWAP3 SWAP1 SWAP3 MSTORE PUSH1 0x3 DUP3 ADD SLOAD PUSH1 0x60 DUP3 ADD MSTORE PUSH1 0x4 DUP3 ADD SLOAD PUSH1 0xFF DUP1 DUP3 AND ISZERO ISZERO PUSH1 0x80 DUP5 ADD MSTORE PUSH2 0x100 SWAP1 SWAP2 DIV AND ISZERO ISZERO PUSH1 0xA0 DUP3 ADD MSTORE PUSH1 0x5 DUP3 ADD DUP1 SLOAD SWAP2 SWAP3 SWAP2 PUSH1 0xC0 DUP5 ADD SWAP2 SWAP1 PUSH2 0x1A85 SWAP1 PUSH2 0x3598 JUMP JUMPDEST DUP1 PUSH1 0x1F ADD PUSH1 0x20 DUP1 SWAP2 DIV MUL PUSH1 0x20 ADD PUSH1 0x40 MLOAD SWAP1 DUP2 ADD PUSH1 0x40 MSTORE DUP1 SWAP3 SWAP2 SWAP1 DUP2 DUP2 MSTORE PUSH1 0x20 ADD DUP3 DUP1 SLOAD PUSH2 0x1AB1 SWAP1 PUSH2 0x3598 JUMP JUMPDEST DUP1 ISZERO PUSH2 0x1AFC JUMPI DUP1 PUSH1 0x1F LT PUSH2 0x1AD3 JUMPI PUSH2 0x100 DUP1 DUP4 SLOAD DIV MUL DUP4 MSTORE SWAP2 PUSH1 0x20 ADD SWAP2 PUSH2 0x1AFC JUMP JUMPDEST DUP3 ADD SWAP2 SWAP1 PUSH0 MSTORE PUSH1 0x20 PUSH0 KECCAK256 SWAP1 JUMPDEST DUP2 SLOAD DUP2 MSTORE SWAP1 PUSH1 0x1 ADD SWAP1 PUSH1 0x20 ADD DUP1 DUP4 GT PUSH2 0x1ADF JUMPI DUP3 SWAP1 SUB PUSH1 0x1F AND DUP3 ADD SWAP2 JUMPDEST POP POP POP POP POP DUP2 MSTORE PUSH1 0x20 ADD PUSH1 0x6 DUP3 ADD DUP1 SLOAD DUP1 PUSH1 0x20 MUL PUSH1 0x20 ADD PUSH1 0x40 MLOAD SWAP1 DUP2 ADD PUSH1 0x40 MSTORE DUP1 SWAP3 SWAP2 SWAP1 DUP2 DUP2 MSTORE PUSH1 0x20 ADD DUP3 DUP1 SLOAD DUP1 ISZERO PUSH2 0x1B5C JUMPI PUSH1 0x20 MUL DUP3 ADD SWAP2 SWAP1 PUSH0 MSTORE PUSH1 0x20 PUSH0 KECCAK256 SWAP1 JUMPDEST DUP2 SLOAD PUSH1 0x1 PUSH1 0x1 PUSH1 0xA0 SHL SUB AND DUP2 MSTORE PUSH1 0x1 SWAP1 SWAP2 ADD SWAP1 PUSH1 0x20 ADD DUP1 DUP4 GT PUSH2 0x1B3E JUMPI JUMPDEST POP POP POP SWAP2 DUP4 MSTORE POP POP PUSH1 0x7 DUP3 ADD SLOAD PUSH1 0x1 PUSH1 0x1 PUSH1 0xA0 SHL SUB AND PUSH1 0x20 DUP1 DUP4 ADD SWAP2 SWAP1 SWAP2 MSTORE PUSH1 0x8 DUP4 ADD DUP1 SLOAD PUSH1 0x40 DUP1 MLOAD DUP3 DUP6 MUL DUP2 ADD DUP6 ADD DUP3 MSTORE DUP3 DUP2 MSTORE SWAP5 ADD SWAP4 SWAP3 DUP4 ADD DUP3 DUP3 DUP1 ISZERO PUSH2 0x1BCC JUMPI PUSH1 0x20 MUL DUP3 ADD SWAP2 SWAP1 PUSH0 MSTORE PUSH1 0x20 PUSH0 KECCAK256 SWAP1 JUMPDEST DUP2 SLOAD PUSH1 0x1 PUSH1 0x1 PUSH1 0xA0 SHL SUB AND DUP2 MSTORE PUSH1 0x1 SWAP1 SWAP2 ADD SWAP1 PUSH1 0x20 ADD DUP1 DUP4 GT PUSH2 0x1BAE JUMPI JUMPDEST POP POP POP SWAP2 DUP4 MSTORE POP POP PUSH1 0x40 DUP1 MLOAD DUP1 DUP3 ADD SWAP2 DUP3 SWAP1 MSTORE PUSH1 0x20 SWAP1 SWAP3 ADD SWAP2 SWAP1 PUSH1 0x9 DUP5 ADD SWAP1 PUSH1 0x2 SWAP1 DUP3 PUSH0 DUP6 JUMPDEST DUP3 SLOAD PUSH2 0x100 DUP4 SWAP1 EXP SWAP1 DIV PUSH1 0xFF AND ISZERO ISZERO DUP2 MSTORE PUSH1 0x20 PUSH1 0x1 SWAP3 DUP4 ADD DUP2 DUP2 DIV SWAP5 DUP6 ADD SWAP5 SWAP1 SWAP4 SUB SWAP1 SWAP3 MUL SWAP2 ADD DUP1 DUP5 GT PUSH2 0x1BF2 JUMPI POP POP POP SWAP3 DUP5 MSTORE POP POP PUSH1 0x40 DUP1 MLOAD DUP1 DUP3 ADD SWAP2 DUP3 SWAP1 MSTORE PUSH1 0x20 SWAP1 SWAP4 ADD SWAP3 SWAP2 POP PUSH1 0xA DUP5 ADD SWAP1 PUSH1 0x2 SWAP1 DUP3 PUSH0 DUP6 JUMPDEST DUP3 SLOAD PUSH2 0x100 DUP4 SWAP1 EXP SWAP1 DIV PUSH1 0xFF AND ISZERO ISZERO DUP2 MSTORE PUSH1 0x20 PUSH1 0x1 SWAP3 DUP4 ADD DUP2 DUP2 DIV SWAP5 DUP6 ADD SWAP5 SWAP1 SWAP4 SUB SWAP1 SWAP3 MUL SWAP2 ADD DUP1 DUP5 GT PUSH2 0x1C47 JUMPI SWAP1 POP JUMPDEST POP POP POP POP POP DUP2 MSTORE POP POP SWAP1 POP SWAP2 SWAP1 POP JUMP JUMPDEST PUSH1 0x60 PUSH1 0x1 DUP1 SLOAD PUSH2 0x50C SWAP1 PUSH2 0x3598 JUMP JUMPDEST PUSH2 0x1CA2 CALLER DUP4 DUP4 PUSH2 0x2998 JUMP JUMPDEST POP POP JUMP JUMPDEST PUSH2 0x1CAE PUSH2 0x2E44 JUMP JUMPDEST PUSH1 0x2 PUSH1 0x7 SLOAD SUB PUSH2 0x1D00 JUMPI PUSH1 0x40 MLOAD PUSH3 0x461BCD PUSH1 0xE5 SHL DUP2 MSTORE PUSH1 0x20 PUSH1 0x4 DUP3 ADD MSTORE PUSH1 0x1F PUSH1 0x24 DUP3 ADD MSTORE PUSH32 0x5265656E7472616E637947756172643A207265656E7472616E742063616C6C00 PUSH1 0x44 DUP3 ADD MSTORE PUSH1 0x64 ADD PUSH2 0x5EA JUMP JUMPDEST PUSH1 0x2 PUSH1 0x7 SSTORE DUP5 ISZERO DUP1 ISZERO SWAP1 PUSH2 0x1D13 JUMPI POP PUSH0 DUP5 GT JUMPDEST DUP1 ISZERO PUSH2 0x1D91 JUMPI POP PUSH1 0xB SLOAD PUSH1 0x40 MLOAD PUSH4 0x70A08231 PUSH1 0xE0 SHL DUP2 MSTORE CALLER PUSH1 0x4 DUP3 ADD MSTORE PUSH1 0x1 PUSH1 0x1 PUSH1 0xA0 SHL SUB SWAP1 SWAP2 AND SWAP1 PUSH4 0x70A08231 SWAP1 PUSH1 0x24 ADD PUSH1 0x20 PUSH1 0x40 MLOAD DUP1 DUP4 SUB DUP2 DUP7 GAS STATICCALL ISZERO DUP1 ISZERO PUSH2 0x1D60 JUMPI RETURNDATASIZE PUSH0 DUP1 RETURNDATACOPY RETURNDATASIZE PUSH0 REVERT JUMPDEST POP POP POP POP PUSH1 0x40 MLOAD RETURNDATASIZE PUSH1 0x1F NOT PUSH1 0x1F DUP3 ADD AND DUP3 ADD DUP1 PUSH1 0x40 MSTORE POP DUP2 ADD SWAP1 PUSH2 0x1D84 SWAP2 SWAP1 PUSH2 0x36A1 JUMP JUMPDEST PUSH2 0x1D8E DUP6 DUP8 PUSH2 0x361A JUMP JUMPDEST GT ISZERO JUMPDEST PUSH2 0x1DD4 JUMPI PUSH1 0x40 MLOAD PUSH3 0x461BCD PUSH1 0xE5 SHL DUP2 MSTORE PUSH1 0x20 PUSH1 0x4 DUP3 ADD MSTORE PUSH1 0x14 PUSH1 0x24 DUP3 ADD MSTORE PUSH20 0x2537B1399D1024B73B30B634B210373AB6B132B9 PUSH1 0x61 SHL PUSH1 0x44 DUP3 ADD MSTORE PUSH1 0x64 ADD PUSH2 0x5EA JUMP JUMPDEST PUSH1 0x9 SLOAD PUSH0 SWAP1 DUP2 MSTORE PUSH1 0xD PUSH1 0x20 MSTORE PUSH1 0x40 SWAP1 KECCAK256 PUSH1 0x1 ADD SLOAD PUSH1 0x1 PUSH1 0x1 PUSH1 0xA0 SHL SUB AND ISZERO PUSH2 0x1E3E JUMPI PUSH1 0x40 MLOAD PUSH3 0x461BCD PUSH1 0xE5 SHL DUP2 MSTORE PUSH1 0x20 PUSH1 0x4 DUP3 ADD MSTORE PUSH1 0x17 PUSH1 0x24 DUP3 ADD MSTORE PUSH32 0x4A6F62733A204A6F6220616C7265616479206578697374000000000000000000 PUSH1 0x44 DUP3 ADD MSTORE PUSH1 0x64 ADD PUSH2 0x5EA JUMP JUMPDEST PUSH1 0x1 PUSH1 0x9 PUSH0 DUP3 DUP3 SLOAD PUSH2 0x1E50 SWAP2 SWAP1 PUSH2 0x361A JUMP JUMPDEST SWAP1 SWAP2 SSTORE POP POP PUSH1 0x9 SLOAD DUP2 MSTORE CALLER PUSH1 0x20 DUP1 DUP4 ADD SWAP2 SWAP1 SWAP2 MSTORE PUSH1 0x40 DUP1 DUP4 ADD DUP8 SWAP1 MSTORE PUSH1 0x60 DUP4 ADD DUP7 SWAP1 MSTORE DUP1 MLOAD PUSH1 0x1F DUP6 ADD DUP4 SWAP1 DIV DUP4 MUL DUP2 ADD DUP4 ADD SWAP1 SWAP2 MSTORE DUP4 DUP2 MSTORE SWAP1 DUP5 SWAP1 DUP5 SWAP1 DUP2 SWAP1 DUP5 ADD DUP4 DUP3 DUP1 DUP3 DUP5 CALLDATACOPY PUSH0 SWAP3 ADD DUP3 SWAP1 MSTORE POP PUSH1 0xC0 DUP7 ADD SWAP5 DUP6 MSTORE PUSH1 0x9 SLOAD DUP2 MSTORE PUSH1 0xD PUSH1 0x20 SWAP1 DUP2 MSTORE PUSH1 0x40 SWAP2 DUP3 SWAP1 KECCAK256 DUP8 MLOAD DUP2 SSTORE SWAP1 DUP8 ADD MLOAD PUSH1 0x1 DUP3 ADD DUP1 SLOAD PUSH1 0x1 PUSH1 0x1 PUSH1 0xA0 SHL SUB SWAP1 SWAP3 AND PUSH1 0x1 PUSH1 0x1 PUSH1 0xA0 SHL SUB NOT SWAP1 SWAP3 AND SWAP2 SWAP1 SWAP2 OR SWAP1 SSTORE SWAP1 DUP7 ADD MLOAD PUSH1 0x2 DUP3 ADD SSTORE PUSH1 0x60 DUP7 ADD MLOAD PUSH1 0x3 DUP3 ADD SSTORE PUSH1 0x80 DUP7 ADD MLOAD PUSH1 0x4 DUP3 ADD DUP1 SLOAD PUSH1 0xA0 DUP10 ADD MLOAD ISZERO ISZERO PUSH2 0x100 MUL PUSH2 0xFF00 NOT SWAP4 ISZERO ISZERO SWAP4 SWAP1 SWAP4 AND PUSH2 0xFFFF NOT SWAP1 SWAP2 AND OR SWAP2 SWAP1 SWAP2 OR SWAP1 SSTORE SWAP4 MLOAD DUP6 SWAP5 SWAP4 POP PUSH1 0x5 DUP5 ADD SWAP3 POP PUSH2 0x1F3B SWAP2 POP DUP3 PUSH2 0x3703 JUMP JUMPDEST POP PUSH1 0xE0 DUP3 ADD MLOAD DUP1 MLOAD PUSH2 0x1F57 SWAP2 PUSH1 0x6 DUP5 ADD SWAP2 PUSH1 0x20 SWAP1 SWAP2 ADD SWAP1 PUSH2 0x2EBF JUMP JUMPDEST POP PUSH2 0x100 DUP3 ADD MLOAD PUSH1 0x7 DUP3 ADD DUP1 SLOAD PUSH1 0x1 PUSH1 0x1 PUSH1 0xA0 SHL SUB NOT AND PUSH1 0x1 PUSH1 0x1 PUSH1 0xA0 SHL SUB SWAP1 SWAP3 AND SWAP2 SWAP1 SWAP2 OR SWAP1 SSTORE PUSH2 0x120 DUP3 ADD MLOAD DUP1 MLOAD PUSH2 0x1F9B SWAP2 PUSH1 0x8 DUP5 ADD SWAP2 PUSH1 0x20 SWAP1 SWAP2 ADD SWAP1 PUSH2 0x2EBF JUMP JUMPDEST POP PUSH2 0x140 DUP3 ADD MLOAD PUSH2 0x1FB2 SWAP1 PUSH1 0x9 DUP4 ADD SWAP1 PUSH1 0x2 PUSH2 0x2F12 JUMP JUMPDEST POP PUSH2 0x160 DUP3 ADD MLOAD PUSH2 0x1FC9 SWAP1 PUSH1 0xA DUP4 ADD SWAP1 PUSH1 0x2 PUSH2 0x2F12 JUMP JUMPDEST POP POP PUSH1 0xB SLOAD PUSH1 0x1 PUSH1 0x1 PUSH1 0xA0 SHL SUB AND SWAP1 POP PUSH4 0x23B872DD CALLER ADDRESS PUSH2 0x1FEA DUP9 DUP11 PUSH2 0x361A JUMP JUMPDEST PUSH1 0x40 MLOAD PUSH1 0x1 PUSH1 0x1 PUSH1 0xE0 SHL SUB NOT PUSH1 0xE0 DUP7 SWAP1 SHL AND DUP2 MSTORE PUSH1 0x1 PUSH1 0x1 PUSH1 0xA0 SHL SUB SWAP4 DUP5 AND PUSH1 0x4 DUP3 ADD MSTORE SWAP3 SWAP1 SWAP2 AND PUSH1 0x24 DUP4 ADD MSTORE PUSH1 0x44 DUP3 ADD MSTORE PUSH1 0x64 ADD PUSH1 0x20 PUSH1 0x40 MLOAD DUP1 DUP4 SUB DUP2 PUSH0 DUP8 GAS CALL ISZERO DUP1 ISZERO PUSH2 0x203B JUMPI RETURNDATASIZE PUSH0 DUP1 RETURNDATACOPY RETURNDATASIZE PUSH0 REVERT JUMPDEST POP POP POP POP PUSH1 0x40 MLOAD RETURNDATASIZE PUSH1 0x1F NOT PUSH1 0x1F DUP3 ADD AND DUP3 ADD DUP1 PUSH1 0x40 MSTORE POP DUP2 ADD SWAP1 PUSH2 0x205F SWAP2 SWAP1 PUSH2 0x3639 JUMP JUMPDEST POP PUSH1 0x9 SLOAD PUSH1 0x40 DUP1 MLOAD DUP8 DUP2 MSTORE PUSH1 0x20 DUP2 ADD DUP8 SWAP1 MSTORE SWAP1 DUP2 ADD SWAP2 SWAP1 SWAP2 MSTORE CALLER SWAP1 PUSH32 0x4F9800E62C9B4277E866BD1064681B7A614CB058A97040FD71521F3268BDD749 SWAP1 PUSH1 0x60 ADD PUSH1 0x40 MLOAD DUP1 SWAP2 SUB SWAP1 LOG2 PUSH1 0x1 PUSH1 0x7 SSTORE SWAP5 SWAP4 POP POP POP POP JUMP JUMPDEST PUSH0 DUP3 DUP2 MSTORE PUSH1 0xD PUSH1 0x20 MSTORE PUSH1 0x40 DUP2 KECCAK256 PUSH1 0x1 ADD SLOAD PUSH1 0x1 PUSH1 0x1 PUSH1 0xA0 SHL SUB AND CALLER EQ PUSH2 0x211C JUMPI PUSH1 0x40 MLOAD PUSH3 0x461BCD PUSH1 0xE5 SHL DUP2 MSTORE PUSH1 0x20 PUSH1 0x4 DUP3 ADD MSTORE PUSH1 0x1C PUSH1 0x24 DUP3 ADD MSTORE PUSH32 0x4A6F62733A204D7573742062652063726561746F72206F66206A6F6200000000 PUSH1 0x44 DUP3 ADD MSTORE PUSH1 0x64 ADD PUSH2 0x5EA JUMP JUMPDEST PUSH1 0x1 PUSH1 0x1 PUSH1 0xA0 SHL SUB DUP3 AND PUSH0 SWAP1 DUP2 MSTORE PUSH1 0xE PUSH1 0x20 SWAP1 DUP2 MSTORE PUSH1 0x40 DUP1 DUP4 KECCAK256 DUP7 DUP5 MSTORE SWAP1 SWAP2 MSTORE SWAP1 KECCAK256 SLOAD PUSH1 0xFF AND PUSH2 0x218E JUMPI PUSH1 0x40 MLOAD PUSH3 0x461BCD PUSH1 0xE5 SHL DUP2 MSTORE PUSH1 0x20 PUSH1 0x4 DUP3 ADD MSTORE PUSH1 0x1E PUSH1 0x24 DUP3 ADD MSTORE PUSH32 0x4A6F623A204170706C6963616E742069736E2774206170706C79206A6F620000 PUSH1 0x44 DUP3 ADD MSTORE PUSH1 0x64 ADD PUSH2 0x5EA JUMP JUMPDEST PUSH0 DUP4 DUP2 MSTORE PUSH1 0xD PUSH1 0x20 MSTORE PUSH1 0x40 SWAP1 KECCAK256 PUSH1 0x4 ADD SLOAD PUSH1 0xFF AND ISZERO PUSH2 0x21E5 JUMPI PUSH1 0x40 MLOAD PUSH3 0x461BCD PUSH1 0xE5 SHL DUP2 MSTORE PUSH1 0x20 PUSH1 0x4 DUP3 ADD MSTORE PUSH1 0x13 PUSH1 0x24 DUP3 ADD MSTORE PUSH19 0x129BD88E88129BD8881899481CDD185C9D1959 PUSH1 0x6A SHL PUSH1 0x44 DUP3 ADD MSTORE PUSH1 0x64 ADD PUSH2 0x5EA JUMP JUMPDEST PUSH0 DUP4 DUP2 MSTORE PUSH1 0xD PUSH1 0x20 SWAP1 DUP2 MSTORE PUSH1 0x40 DUP1 DUP4 KECCAK256 PUSH1 0x4 DUP2 ADD DUP1 SLOAD PUSH1 0xFF NOT AND PUSH1 0x1 SWAP1 DUP2 OR SWAP1 SWAP2 SSTORE PUSH1 0x7 SWAP1 SWAP2 ADD DUP1 SLOAD PUSH1 0x1 PUSH1 0x1 PUSH1 0xA0 SHL SUB DUP9 AND PUSH1 0x1 PUSH1 0x1 PUSH1 0xA0 SHL SUB NOT SWAP1 SWAP2 AND DUP2 OR SWAP1 SWAP2 SSTORE DUP1 DUP6 MSTORE PUSH1 0xC DUP5 MSTORE DUP3 DUP6 KECCAK256 PUSH1 0x2 ADD DUP1 SLOAD SWAP3 DUP4 ADD DUP2 SSTORE DUP6 MSTORE SWAP3 DUP5 KECCAK256 ADD DUP7 SWAP1 SSTORE MLOAD SWAP1 SWAP2 DUP6 SWAP2 PUSH32 0x15534970B35940BBA5CF89E4AC4162B21988099D0B43254FB4DF27D9973FA1E1 SWAP2 SWAP1 LOG3 POP PUSH1 0x1 SWAP3 SWAP2 POP POP JUMP JUMPDEST PUSH2 0x2282 CALLER DUP4 PUSH2 0x2701 JUMP JUMPDEST PUSH2 0x229E JUMPI PUSH1 0x40 MLOAD PUSH3 0x461BCD PUSH1 0xE5 SHL DUP2 MSTORE PUSH1 0x4 ADD PUSH2 0x5EA SWAP1 PUSH2 0x3654 JUMP JUMPDEST PUSH2 0x22AA DUP5 DUP5 DUP5 DUP5 PUSH2 0x2A65 JUMP JUMPDEST POP POP POP POP JUMP JUMPDEST PUSH1 0x60 PUSH0 PUSH1 0x8 DUP1 SLOAD PUSH2 0x22C0 SWAP1 PUSH2 0x3598 JUMP JUMPDEST SWAP1 POP GT PUSH2 0x22E6 JUMPI PUSH1 0x40 MLOAD DUP1 PUSH1 0x40 ADD PUSH1 0x40 MSTORE DUP1 PUSH1 0x1 DUP2 MSTORE PUSH1 0x20 ADD PUSH1 0x1 PUSH1 0xFD SHL DUP2 MSTORE POP PUSH2 0x4F8 JUMP JUMPDEST PUSH1 0x8 DUP1 SLOAD PUSH2 0x22F3 SWAP1 PUSH2 0x3598 JUMP JUMPDEST DUP1 PUSH1 0x1F ADD PUSH1 0x20 DUP1 SWAP2 DIV MUL PUSH1 0x20 ADD PUSH1 0x40 MLOAD SWAP1 DUP2 ADD PUSH1 0x40 MSTORE DUP1 SWAP3 SWAP2 SWAP1 DUP2 DUP2 MSTORE PUSH1 0x20 ADD DUP3 DUP1 SLOAD PUSH2 0x231F SWAP1 PUSH2 0x3598 JUMP JUMPDEST DUP1 ISZERO PUSH2 0x236A JUMPI DUP1 PUSH1 0x1F LT PUSH2 0x2341 JUMPI PUSH2 0x100 DUP1 DUP4 SLOAD DIV MUL DUP4 MSTORE SWAP2 PUSH1 0x20 ADD SWAP2 PUSH2 0x236A JUMP JUMPDEST DUP3 ADD SWAP2 SWAP1 PUSH0 MSTORE PUSH1 0x20 PUSH0 KECCAK256 SWAP1 JUMPDEST DUP2 SLOAD DUP2 MSTORE SWAP1 PUSH1 0x1 ADD SWAP1 PUSH1 0x20 ADD DUP1 DUP4 GT PUSH2 0x234D JUMPI DUP3 SWAP1 SUB PUSH1 0x1F AND DUP3 ADD SWAP2 JUMPDEST POP POP POP POP POP SWAP3 SWAP2 POP POP JUMP JUMPDEST PUSH1 0x8 DUP1 SLOAD PUSH2 0x2382 SWAP1 PUSH2 0x3598 JUMP JUMPDEST DUP1 PUSH1 0x1F ADD PUSH1 0x20 DUP1 SWAP2 DIV MUL PUSH1 0x20 ADD PUSH1 0x40 MLOAD SWAP1 DUP2 ADD PUSH1 0x40 MSTORE DUP1 SWAP3 SWAP2 SWAP1 DUP2 DUP2 MSTORE PUSH1 0x20 ADD DUP3 DUP1 SLOAD PUSH2 0x23AE SWAP1 PUSH2 0x3598 JUMP JUMPDEST DUP1 ISZERO PUSH2 0x23F9 JUMPI DUP1 PUSH1 0x1F LT PUSH2 0x23D0 JUMPI PUSH2 0x100 DUP1 DUP4 SLOAD DIV MUL DUP4 MSTORE SWAP2 PUSH1 0x20 ADD SWAP2 PUSH2 0x23F9 JUMP JUMPDEST DUP3 ADD SWAP2 SWAP1 PUSH0 MSTORE PUSH1 0x20 PUSH0 KECCAK256 SWAP1 JUMPDEST DUP2 SLOAD DUP2 MSTORE SWAP1 PUSH1 0x1 ADD SWAP1 PUSH1 0x20 ADD DUP1 DUP4 GT PUSH2 0x23DC JUMPI DUP3 SWAP1 SUB PUSH1 0x1F AND DUP3 ADD SWAP2 JUMPDEST POP POP POP POP POP DUP2 JUMP JUMPDEST PUSH2 0x2409 PUSH2 0x2DB8 JUMP JUMPDEST PUSH1 0x1 PUSH1 0x1 PUSH1 0xA0 SHL SUB DUP1 DUP4 AND PUSH0 SWAP1 DUP2 MSTORE PUSH1 0xC PUSH1 0x20 SWAP1 DUP2 MSTORE PUSH1 0x40 SWAP2 DUP3 SWAP1 KECCAK256 DUP3 MLOAD PUSH1 0xE0 DUP2 ADD DUP5 MSTORE DUP2 SLOAD SWAP1 SWAP5 AND DUP5 MSTORE PUSH1 0x1 DUP2 ADD DUP1 SLOAD DUP5 MLOAD DUP2 DUP6 MUL DUP2 ADD DUP6 ADD SWAP1 SWAP6 MSTORE DUP1 DUP6 MSTORE SWAP2 SWAP4 DUP6 DUP5 ADD SWAP4 SWAP1 SWAP3 SWAP1 DUP4 ADD DUP3 DUP3 DUP1 ISZERO PUSH2 0x247F JUMPI PUSH1 0x20 MUL DUP3 ADD SWAP2 SWAP1 PUSH0 MSTORE PUSH1 0x20 PUSH0 KECCAK256 SWAP1 JUMPDEST DUP2 SLOAD DUP2 MSTORE PUSH1 0x20 ADD SWAP1 PUSH1 0x1 ADD SWAP1 DUP1 DUP4 GT PUSH2 0x246B JUMPI JUMPDEST POP POP POP POP POP DUP2 MSTORE PUSH1 0x20 ADD PUSH1 0x2 DUP3 ADD DUP1 SLOAD DUP1 PUSH1 0x20 MUL PUSH1 0x20 ADD PUSH1 0x40 MLOAD SWAP1 DUP2 ADD PUSH1 0x40 MSTORE DUP1 SWAP3 SWAP2 SWAP1 DUP2 DUP2 MSTORE PUSH1 0x20 ADD DUP3 DUP1 SLOAD DUP1 ISZERO PUSH2 0x24D5 JUMPI PUSH1 0x20 MUL DUP3 ADD SWAP2 SWAP1 PUSH0 MSTORE PUSH1 0x20 PUSH0 KECCAK256 SWAP1 JUMPDEST DUP2 SLOAD DUP2 MSTORE PUSH1 0x20 ADD SWAP1 PUSH1 0x1 ADD SWAP1 DUP1 DUP4 GT PUSH2 0x24C1 JUMPI JUMPDEST POP POP POP POP POP DUP2 MSTORE PUSH1 0x20 ADD PUSH1 0x3 DUP3 ADD SLOAD DUP2 MSTORE PUSH1 0x20 ADD PUSH1 0x4 DUP3 ADD SLOAD DUP2 MSTORE PUSH1 0x20 ADD PUSH1 0x5 DUP3 ADD DUP1 SLOAD DUP1 PUSH1 0x20 MUL PUSH1 0x20 ADD PUSH1 0x40 MLOAD SWAP1 DUP2 ADD PUSH1 0x40 MSTORE DUP1 SWAP3 SWAP2 SWAP1 DUP2 DUP2 MSTORE PUSH1 0x20 ADD DUP3 DUP1 SLOAD DUP1 ISZERO PUSH2 0x253F JUMPI PUSH1 0x20 MUL DUP3 ADD SWAP2 SWAP1 PUSH0 MSTORE PUSH1 0x20 PUSH0 KECCAK256 SWAP1 JUMPDEST DUP2 SLOAD DUP2 MSTORE PUSH1 0x20 ADD SWAP1 PUSH1 0x1 ADD SWAP1 DUP1 DUP4 GT PUSH2 0x252B JUMPI JUMPDEST POP POP POP POP POP DUP2 MSTORE PUSH1 0x20 ADD PUSH1 0x6 DUP3 ADD DUP1 SLOAD DUP1 PUSH1 0x20 MUL PUSH1 0x20 ADD PUSH1 0x40 MLOAD SWAP1 DUP2 ADD PUSH1 0x40 MSTORE DUP1 SWAP3 SWAP2 SWAP1 DUP2 DUP2 MSTORE PUSH1 0x20 ADD DUP3 DUP1 SLOAD DUP1 ISZERO PUSH2 0x1C78 JUMPI PUSH1 0x20 MUL DUP3 ADD SWAP2 SWAP1 PUSH0 MSTORE PUSH1 0x20 PUSH0 KECCAK256 SWAP1 JUMPDEST DUP2 SLOAD DUP2 MSTORE PUSH1 0x20 ADD SWAP1 PUSH1 0x1 ADD SWAP1 DUP1 DUP4 GT PUSH2 0x2581 JUMPI POP POP POP POP POP DUP2 MSTORE POP POP SWAP1 POP SWAP2 SWAP1 POP JUMP JUMPDEST PUSH2 0x25AC PUSH2 0x28ED JUMP JUMPDEST PUSH1 0x1 PUSH1 0x1 PUSH1 0xA0 SHL SUB DUP2 AND PUSH2 0x2611 JUMPI PUSH1 0x40 MLOAD PUSH3 0x461BCD PUSH1 0xE5 SHL DUP2 MSTORE PUSH1 0x20 PUSH1 0x4 DUP3 ADD MSTORE PUSH1 0x26 PUSH1 0x24 DUP3 ADD MSTORE PUSH32 0x4F776E61626C653A206E6577206F776E657220697320746865207A65726F2061 PUSH1 0x44 DUP3 ADD MSTORE PUSH6 0x646472657373 PUSH1 0xD0 SHL PUSH1 0x64 DUP3 ADD MSTORE PUSH1 0x84 ADD PUSH2 0x5EA JUMP JUMPDEST PUSH2 0x261A DUP2 PUSH2 0x2947 JUMP JUMPDEST POP JUMP JUMPDEST PUSH0 DUP2 DUP2 MSTORE PUSH1 0x2 PUSH1 0x20 MSTORE PUSH1 0x40 SWAP1 KECCAK256 SLOAD PUSH1 0x1 PUSH1 0x1 PUSH1 0xA0 SHL SUB AND PUSH2 0x261A JUMPI PUSH1 0x40 MLOAD PUSH3 0x461BCD PUSH1 0xE5 SHL DUP2 MSTORE PUSH1 0x20 PUSH1 0x4 DUP3 ADD MSTORE PUSH1 0x18 PUSH1 0x24 DUP3 ADD MSTORE PUSH24 0x115490CDCC8C4E881A5B9D985B1A59081D1BDAD95B881251 PUSH1 0x42 SHL PUSH1 0x44 DUP3 ADD MSTORE PUSH1 0x64 ADD PUSH2 0x5EA JUMP JUMPDEST PUSH0 DUP2 DUP2 MSTORE PUSH1 0x4 PUSH1 0x20 MSTORE PUSH1 0x40 SWAP1 KECCAK256 DUP1 SLOAD PUSH1 0x1 PUSH1 0x1 PUSH1 0xA0 SHL SUB NOT AND PUSH1 0x1 PUSH1 0x1 PUSH1 0xA0 SHL SUB DUP5 AND SWAP1 DUP2 OR SWAP1 SWAP2 SSTORE DUP2 SWAP1 PUSH2 0x26AF DUP3 PUSH2 0x1907 JUMP JUMPDEST PUSH1 0x1 PUSH1 0x1 PUSH1 0xA0 SHL SUB AND PUSH32 0x8C5BE1E5EBEC7D5BD14F71427D1E84F3DD0314C0F7B2291E5B200AC8C7C3B925 PUSH1 0x40 MLOAD PUSH1 0x40 MLOAD DUP1 SWAP2 SUB SWAP1 LOG4 POP POP JUMP JUMPDEST PUSH2 0x1CA2 DUP3 DUP3 PUSH1 0x40 MLOAD DUP1 PUSH1 0x20 ADD PUSH1 0x40 MSTORE DUP1 PUSH0 DUP2 MSTORE POP PUSH2 0x2A98 JUMP JUMPDEST PUSH0 DUP1 PUSH2 0x270C DUP4 PUSH2 0x1907 JUMP JUMPDEST SWAP1 POP DUP1 PUSH1 0x1 PUSH1 0x1 PUSH1 0xA0 SHL SUB AND DUP5 PUSH1 0x1 PUSH1 0x1 PUSH1 0xA0 SHL SUB AND EQ DUP1 PUSH2 0x2752 JUMPI POP PUSH1 0x1 PUSH1 0x1 PUSH1 0xA0 SHL SUB DUP1 DUP3 AND PUSH0 SWAP1 DUP2 MSTORE PUSH1 0x5 PUSH1 0x20 SWAP1 DUP2 MSTORE PUSH1 0x40 DUP1 DUP4 KECCAK256 SWAP4 DUP9 AND DUP4 MSTORE SWAP3 SWAP1 MSTORE KECCAK256 SLOAD PUSH1 0xFF AND JUMPDEST DUP1 PUSH2 0x2776 JUMPI POP DUP4 PUSH1 0x1 PUSH1 0x1 PUSH1 0xA0 SHL SUB AND PUSH2 0x276B DUP5 PUSH2 0x755 JUMP JUMPDEST PUSH1 0x1 PUSH1 0x1 PUSH1 0xA0 SHL SUB AND EQ JUMPDEST SWAP5 SWAP4 POP POP POP POP JUMP JUMPDEST DUP3 PUSH1 0x1 PUSH1 0x1 PUSH1 0xA0 SHL SUB AND PUSH2 0x2791 DUP3 PUSH2 0x1907 JUMP JUMPDEST PUSH1 0x1 PUSH1 0x1 PUSH1 0xA0 SHL SUB AND EQ PUSH2 0x27B7 JUMPI PUSH1 0x40 MLOAD PUSH3 0x461BCD PUSH1 0xE5 SHL DUP2 MSTORE PUSH1 0x4 ADD PUSH2 0x5EA SWAP1 PUSH2 0x37C3 JUMP JUMPDEST PUSH1 0x1 PUSH1 0x1 PUSH1 0xA0 SHL SUB DUP3 AND PUSH2 0x2819 JUMPI PUSH1 0x40 MLOAD PUSH3 0x461BCD PUSH1 0xE5 SHL DUP2 MSTORE PUSH1 0x20 PUSH1 0x4 DUP3 ADD MSTORE PUSH1 0x24 DUP1 DUP3 ADD MSTORE PUSH32 0x4552433732313A207472616E7366657220746F20746865207A65726F20616464 PUSH1 0x44 DUP3 ADD MSTORE PUSH4 0x72657373 PUSH1 0xE0 SHL PUSH1 0x64 DUP3 ADD MSTORE PUSH1 0x84 ADD PUSH2 0x5EA JUMP JUMPDEST PUSH2 0x2826 DUP4 DUP4 DUP4 PUSH1 0x1 PUSH2 0x2ACA JUMP JUMPDEST DUP3 PUSH1 0x1 PUSH1 0x1 PUSH1 0xA0 SHL SUB AND PUSH2 0x2839 DUP3 PUSH2 0x1907 JUMP JUMPDEST PUSH1 0x1 PUSH1 0x1 PUSH1 0xA0 SHL SUB AND EQ PUSH2 0x285F JUMPI PUSH1 0x40 MLOAD PUSH3 0x461BCD PUSH1 0xE5 SHL DUP2 MSTORE PUSH1 0x4 ADD PUSH2 0x5EA SWAP1 PUSH2 0x37C3 JUMP JUMPDEST PUSH0 DUP2 DUP2 MSTORE PUSH1 0x4 PUSH1 0x20 SWAP1 DUP2 MSTORE PUSH1 0x40 DUP1 DUP4 KECCAK256 DUP1 SLOAD PUSH1 0x1 PUSH1 0x1 PUSH1 0xA0 SHL SUB NOT SWAP1 DUP2 AND SWAP1 SWAP2 SSTORE PUSH1 0x1 PUSH1 0x1 PUSH1 0xA0 SHL SUB DUP8 DUP2 AND DUP1 DUP7 MSTORE PUSH1 0x3 DUP6 MSTORE DUP4 DUP7 KECCAK256 DUP1 SLOAD PUSH0 NOT ADD SWAP1 SSTORE SWAP1 DUP8 AND DUP1 DUP7 MSTORE DUP4 DUP7 KECCAK256 DUP1 SLOAD PUSH1 0x1 ADD SWAP1 SSTORE DUP7 DUP7 MSTORE PUSH1 0x2 SWAP1 SWAP5 MSTORE DUP3 DUP6 KECCAK256 DUP1 SLOAD SWAP1 SWAP3 AND DUP5 OR SWAP1 SWAP2 SSTORE SWAP1 MLOAD DUP5 SWAP4 PUSH32 0xDDF252AD1BE2C89B69C2B068FC378DAA952BA7F163C4A11628F55A4DF523B3EF SWAP2 LOG4 POP POP POP JUMP JUMPDEST PUSH1 0x6 SLOAD PUSH1 0x1 PUSH1 0x1 PUSH1 0xA0 SHL SUB AND CALLER EQ PUSH2 0x19FB JUMPI PUSH1 0x40 MLOAD PUSH3 0x461BCD PUSH1 0xE5 SHL DUP2 MSTORE PUSH1 0x20 PUSH1 0x4 DUP3 ADD DUP2 SWAP1 MSTORE PUSH1 0x24 DUP3 ADD MSTORE PUSH32 0x4F776E61626C653A2063616C6C6572206973206E6F7420746865206F776E6572 PUSH1 0x44 DUP3 ADD MSTORE PUSH1 0x64 ADD PUSH2 0x5EA JUMP JUMPDEST PUSH1 0x6 DUP1 SLOAD PUSH1 0x1 PUSH1 0x1 PUSH1 0xA0 SHL SUB DUP4 DUP2 AND PUSH1 0x1 PUSH1 0x1 PUSH1 0xA0 SHL SUB NOT DUP4 AND DUP2 OR SWAP1 SWAP4 SSTORE PUSH1 0x40 MLOAD SWAP2 AND SWAP2 SWAP1 DUP3 SWAP1 PUSH32 0x8BE0079C531659141344CD1FD0A4F28419497F9722A3DAAFE3B4186F6B6457E0 SWAP1 PUSH0 SWAP1 LOG3 POP POP JUMP JUMPDEST DUP2 PUSH1 0x1 PUSH1 0x1 PUSH1 0xA0 SHL SUB AND DUP4 PUSH1 0x1 PUSH1 0x1 PUSH1 0xA0 SHL SUB AND SUB PUSH2 0x29F9 JUMPI PUSH1 0x40 MLOAD PUSH3 0x461BCD PUSH1 0xE5 SHL DUP2 MSTORE PUSH1 0x20 PUSH1 0x4 DUP3 ADD MSTORE PUSH1 0x19 PUSH1 0x24 DUP3 ADD MSTORE PUSH32 0x4552433732313A20617070726F766520746F2063616C6C657200000000000000 PUSH1 0x44 DUP3 ADD MSTORE PUSH1 0x64 ADD PUSH2 0x5EA JUMP JUMPDEST PUSH1 0x1 PUSH1 0x1 PUSH1 0xA0 SHL SUB DUP4 DUP2 AND PUSH0 DUP2 DUP2 MSTORE PUSH1 0x5 PUSH1 0x20 SWAP1 DUP2 MSTORE PUSH1 0x40 DUP1 DUP4 KECCAK256 SWAP5 DUP8 AND DUP1 DUP5 MSTORE SWAP5 DUP3 MSTORE SWAP2 DUP3 SWAP1 KECCAK256 DUP1 SLOAD PUSH1 0xFF NOT AND DUP7 ISZERO ISZERO SWAP1 DUP2 OR SWAP1 SWAP2 SSTORE SWAP2 MLOAD SWAP2 DUP3 MSTORE PUSH32 0x17307EAB39AB6107E8899845AD3D59BD9653F200F220920489CA2B5937696C31 SWAP2 ADD PUSH1 0x40 MLOAD DUP1 SWAP2 SUB SWAP1 LOG3 POP POP POP JUMP JUMPDEST PUSH2 0x2A70 DUP5 DUP5 DUP5 PUSH2 0x277E JUMP JUMPDEST PUSH2 0x2A7C DUP5 DUP5 DUP5 DUP5 PUSH2 0x2B26 JUMP JUMPDEST PUSH2 0x22AA JUMPI PUSH1 0x40 MLOAD PUSH3 0x461BCD PUSH1 0xE5 SHL DUP2 MSTORE PUSH1 0x4 ADD PUSH2 0x5EA SWAP1 PUSH2 0x3808 JUMP JUMPDEST PUSH2 0x2AA2 DUP4 DUP4 PUSH2 0x2C23 JUMP JUMPDEST PUSH2 0x2AAE PUSH0 DUP5 DUP5 DUP5 PUSH2 0x2B26 JUMP JUMPDEST PUSH2 0x889 JUMPI PUSH1 0x40 MLOAD PUSH3 0x461BCD PUSH1 0xE5 SHL DUP2 MSTORE PUSH1 0x4 ADD PUSH2 0x5EA SWAP1 PUSH2 0x3808 JUMP JUMPDEST PUSH1 0x1 PUSH1 0x1 PUSH1 0xA0 SHL SUB DUP5 AND ISZERO PUSH2 0x2B21 JUMPI PUSH1 0x40 MLOAD PUSH3 0x461BCD PUSH1 0xE5 SHL DUP2 MSTORE PUSH1 0x20 PUSH1 0x4 DUP3 ADD MSTORE PUSH1 0x1C PUSH1 0x24 DUP3 ADD MSTORE PUSH32 0x4A6F62733A20546F6B656E206E6F74207472616E7366657261626C6500000000 PUSH1 0x44 DUP3 ADD MSTORE PUSH1 0x64 ADD PUSH2 0x5EA JUMP JUMPDEST PUSH2 0x22AA JUMP JUMPDEST PUSH0 PUSH1 0x1 PUSH1 0x1 PUSH1 0xA0 SHL SUB DUP5 AND EXTCODESIZE ISZERO PUSH2 0x2C18 JUMPI PUSH1 0x40 MLOAD PUSH4 0xA85BD01 PUSH1 0xE1 SHL DUP2 MSTORE PUSH1 0x1 PUSH1 0x1 PUSH1 0xA0 SHL SUB DUP6 AND SWAP1 PUSH4 0x150B7A02 SWAP1 PUSH2 0x2B69 SWAP1 CALLER SWAP1 DUP10 SWAP1 DUP9 SWAP1 DUP9 SWAP1 PUSH1 0x4 ADD PUSH2 0x385A JUMP JUMPDEST PUSH1 0x20 PUSH1 0x40 MLOAD DUP1 DUP4 SUB DUP2 PUSH0 DUP8 GAS CALL SWAP3 POP POP POP DUP1 ISZERO PUSH2 0x2BA3 JUMPI POP PUSH1 0x40 DUP1 MLOAD PUSH1 0x1F RETURNDATASIZE SWAP1 DUP2 ADD PUSH1 0x1F NOT AND DUP3 ADD SWAP1 SWAP3 MSTORE PUSH2 0x2BA0 SWAP2 DUP2 ADD SWAP1 PUSH2 0x3896 JUMP JUMPDEST PUSH1 0x1 JUMPDEST PUSH2 0x2BFE JUMPI RETURNDATASIZE DUP1 DUP1 ISZERO PUSH2 0x2BD0 JUMPI PUSH1 0x40 MLOAD SWAP2 POP PUSH1 0x1F NOT PUSH1 0x3F RETURNDATASIZE ADD AND DUP3 ADD PUSH1 0x40 MSTORE RETURNDATASIZE DUP3 MSTORE RETURNDATASIZE PUSH0 PUSH1 0x20 DUP5 ADD RETURNDATACOPY PUSH2 0x2BD5 JUMP JUMPDEST PUSH1 0x60 SWAP2 POP JUMPDEST POP DUP1 MLOAD PUSH0 SUB PUSH2 0x2BF6 JUMPI PUSH1 0x40 MLOAD PUSH3 0x461BCD PUSH1 0xE5 SHL DUP2 MSTORE PUSH1 0x4 ADD PUSH2 0x5EA SWAP1 PUSH2 0x3808 JUMP JUMPDEST DUP1 MLOAD DUP2 PUSH1 0x20 ADD REVERT JUMPDEST PUSH1 0x1 PUSH1 0x1 PUSH1 0xE0 SHL SUB NOT AND PUSH4 0xA85BD01 PUSH1 0xE1 SHL EQ SWAP1 POP PUSH2 0x2776 JUMP JUMPDEST POP PUSH1 0x1 SWAP5 SWAP4 POP POP POP POP JUMP JUMPDEST PUSH1 0x1 PUSH1 0x1 PUSH1 0xA0 SHL SUB DUP3 AND PUSH2 0x2C79 JUMPI PUSH1 0x40 MLOAD PUSH3 0x461BCD PUSH1 0xE5 SHL DUP2 MSTORE PUSH1 0x20 PUSH1 0x4 DUP3 ADD DUP2 SWAP1 MSTORE PUSH1 0x24 DUP3 ADD MSTORE PUSH32 0x4552433732313A206D696E7420746F20746865207A65726F2061646472657373 PUSH1 0x44 DUP3 ADD MSTORE PUSH1 0x64 ADD PUSH2 0x5EA JUMP JUMPDEST PUSH0 DUP2 DUP2 MSTORE PUSH1 0x2 PUSH1 0x20 MSTORE PUSH1 0x40 SWAP1 KECCAK256 SLOAD PUSH1 0x1 PUSH1 0x1 PUSH1 0xA0 SHL SUB AND ISZERO PUSH2 0x2CDD JUMPI PUSH1 0x40 MLOAD PUSH3 0x461BCD PUSH1 0xE5 SHL DUP2 MSTORE PUSH1 0x20 PUSH1 0x4 DUP3 ADD MSTORE PUSH1 0x1C PUSH1 0x24 DUP3 ADD MSTORE PUSH32 0x4552433732313A20746F6B656E20616C7265616479206D696E74656400000000 PUSH1 0x44 DUP3 ADD MSTORE PUSH1 0x64 ADD PUSH2 0x5EA JUMP JUMPDEST PUSH2 0x2CEA PUSH0 DUP4 DUP4 PUSH1 0x1 PUSH2 0x2ACA JUMP JUMPDEST PUSH0 DUP2 DUP2 MSTORE PUSH1 0x2 PUSH1 0x20 MSTORE PUSH1 0x40 SWAP1 KECCAK256 SLOAD PUSH1 0x1 PUSH1 0x1 PUSH1 0xA0 SHL SUB AND ISZERO PUSH2 0x2D4E JUMPI PUSH1 0x40 MLOAD PUSH3 0x461BCD PUSH1 0xE5 SHL DUP2 MSTORE PUSH1 0x20 PUSH1 0x4 DUP3 ADD MSTORE PUSH1 0x1C PUSH1 0x24 DUP3 ADD MSTORE PUSH32 0x4552433732313A20746F6B656E20616C7265616479206D696E74656400000000 PUSH1 0x44 DUP3 ADD MSTORE PUSH1 0x64 ADD PUSH2 0x5EA JUMP JUMPDEST PUSH1 0x1 PUSH1 0x1 PUSH1 0xA0 SHL SUB DUP3 AND PUSH0 DUP2 DUP2 MSTORE PUSH1 0x3 PUSH1 0x20 SWAP1 DUP2 MSTORE PUSH1 0x40 DUP1 DUP4 KECCAK256 DUP1 SLOAD PUSH1 0x1 ADD SWAP1 SSTORE DUP5 DUP4 MSTORE PUSH1 0x2 SWAP1 SWAP2 MSTORE DUP1 DUP3 KECCAK256 DUP1 SLOAD PUSH1 0x1 PUSH1 0x1 PUSH1 0xA0 SHL SUB NOT AND DUP5 OR SWAP1 SSTORE MLOAD DUP4 SWAP3 SWAP2 SWAP1 PUSH32 0xDDF252AD1BE2C89B69C2B068FC378DAA952BA7F163C4A11628F55A4DF523B3EF SWAP1 DUP3 SWAP1 LOG4 POP POP JUMP JUMPDEST PUSH1 0x40 MLOAD DUP1 PUSH1 0xE0 ADD PUSH1 0x40 MSTORE DUP1 PUSH0 PUSH1 0x1 PUSH1 0x1 PUSH1 0xA0 SHL SUB AND DUP2 MSTORE PUSH1 0x20 ADD PUSH1 0x60 DUP2 MSTORE PUSH1 0x20 ADD PUSH1 0x60 DUP2 MSTORE PUSH1 0x20 ADD PUSH0 DUP2 MSTORE PUSH1 0x20 ADD PUSH0 DUP2 MSTORE PUSH1 0x20 ADD PUSH1 0x60 DUP2 MSTORE PUSH1 0x20 ADD PUSH1 0x60 DUP2 MSTORE POP SWAP1 JUMP JUMPDEST DUP3 DUP1 SLOAD DUP3 DUP3 SSTORE SWAP1 PUSH0 MSTORE PUSH1 0x20 PUSH0 KECCAK256 SWAP1 DUP2 ADD SWAP3 DUP3 ISZERO PUSH2 0x2E34 JUMPI SWAP2 PUSH1 0x20 MUL DUP3 ADD JUMPDEST DUP3 DUP2 GT ISZERO PUSH2 0x2E34 JUMPI DUP3 MLOAD DUP3 SSTORE SWAP2 PUSH1 0x20 ADD SWAP2 SWAP1 PUSH1 0x1 ADD SWAP1 PUSH2 0x2E19 JUMP JUMPDEST POP PUSH2 0x2E40 SWAP3 SWAP2 POP PUSH2 0x2F98 JUMP JUMPDEST POP SWAP1 JUMP JUMPDEST PUSH1 0x40 MLOAD DUP1 PUSH2 0x180 ADD PUSH1 0x40 MSTORE DUP1 PUSH0 DUP2 MSTORE PUSH1 0x20 ADD PUSH0 PUSH1 0x1 PUSH1 0x1 PUSH1 0xA0 SHL SUB AND DUP2 MSTORE PUSH1 0x20 ADD PUSH0 DUP2 MSTORE PUSH1 0x20 ADD PUSH0 DUP2 MSTORE PUSH1 0x20 ADD PUSH0 ISZERO ISZERO DUP2 MSTORE PUSH1 0x20 ADD PUSH0 ISZERO ISZERO DUP2 MSTORE PUSH1 0x20 ADD PUSH1 0x60 DUP2 MSTORE PUSH1 0x20 ADD PUSH1 0x60 DUP2 MSTORE PUSH1 0x20 ADD PUSH0 PUSH1 0x1 PUSH1 0x1 PUSH1 0xA0 SHL SUB AND DUP2 MSTORE PUSH1 0x20 ADD PUSH1 0x60 DUP2 MSTORE PUSH1 0x20 ADD PUSH2 0x2EAD PUSH2 0x2FAC JUMP JUMPDEST DUP2 MSTORE PUSH1 0x20 ADD PUSH2 0x2EBA PUSH2 0x2FAC JUMP JUMPDEST SWAP1 MSTORE SWAP1 JUMP JUMPDEST DUP3 DUP1 SLOAD DUP3 DUP3 SSTORE SWAP1 PUSH0 MSTORE PUSH1 0x20 PUSH0 KECCAK256 SWAP1 DUP2 ADD SWAP3 DUP3 ISZERO PUSH2 0x2E34 JUMPI SWAP2 PUSH1 0x20 MUL DUP3 ADD JUMPDEST DUP3 DUP2 GT ISZERO PUSH2 0x2E34 JUMPI DUP3 MLOAD DUP3 SLOAD PUSH1 0x1 PUSH1 0x1 PUSH1 0xA0 SHL SUB NOT AND PUSH1 0x1 PUSH1 0x1 PUSH1 0xA0 SHL SUB SWAP1 SWAP2 AND OR DUP3 SSTORE PUSH1 0x20 SWAP1 SWAP3 ADD SWAP2 PUSH1 0x1 SWAP1 SWAP2 ADD SWAP1 PUSH2 0x2EDD JUMP JUMPDEST PUSH1 0x1 DUP4 ADD SWAP2 DUP4 SWAP1 DUP3 ISZERO PUSH2 0x2E34 JUMPI SWAP2 PUSH1 0x20 MUL DUP3 ADD PUSH0 JUMPDEST DUP4 DUP3 GT ISZERO PUSH2 0x2F63 JUMPI DUP4 MLOAD DUP4 DUP3 PUSH2 0x100 EXP DUP2 SLOAD DUP2 PUSH1 0xFF MUL NOT AND SWAP1 DUP4 ISZERO ISZERO MUL OR SWAP1 SSTORE POP SWAP3 PUSH1 0x20 ADD SWAP3 PUSH1 0x1 ADD PUSH1 0x20 DUP2 PUSH0 ADD DIV SWAP3 DUP4 ADD SWAP3 PUSH1 0x1 SUB MUL PUSH2 0x2F27 JUMP JUMPDEST DUP1 ISZERO PUSH2 0x2F8F JUMPI DUP3 DUP2 PUSH2 0x100 EXP DUP2 SLOAD SWAP1 PUSH1 0xFF MUL NOT AND SWAP1 SSTORE PUSH1 0x1 ADD PUSH1 0x20 DUP2 PUSH0 ADD DIV SWAP3 DUP4 ADD SWAP3 PUSH1 0x1 SUB MUL PUSH2 0x2F63 JUMP JUMPDEST POP POP PUSH2 0x2E40 SWAP3 SWAP2 POP JUMPDEST JUMPDEST DUP1 DUP3 GT ISZERO PUSH2 0x2E40 JUMPI PUSH0 DUP2 SSTORE PUSH1 0x1 ADD PUSH2 0x2F99 JUMP JUMPDEST PUSH1 0x40 MLOAD DUP1 PUSH1 0x40 ADD PUSH1 0x40 MSTORE DUP1 PUSH1 0x2 SWAP1 PUSH1 0x20 DUP3 MUL DUP1 CALLDATASIZE DUP4 CALLDATACOPY POP SWAP2 SWAP3 SWAP2 POP POP JUMP JUMPDEST PUSH1 0x1 PUSH1 0x1 PUSH1 0xE0 SHL SUB NOT DUP2 AND DUP2 EQ PUSH2 0x261A JUMPI PUSH0 DUP1 REVERT JUMPDEST PUSH0 PUSH1 0x20 DUP3 DUP5 SUB SLT ISZERO PUSH2 0x2FEF JUMPI PUSH0 DUP1 REVERT JUMPDEST DUP2 CALLDATALOAD PUSH2 0x2FFA DUP2 PUSH2 0x2FCA JUMP JUMPDEST SWAP4 SWAP3 POP POP POP JUMP JUMPDEST PUSH0 DUP2 MLOAD DUP1 DUP5 MSTORE PUSH0 JUMPDEST DUP2 DUP2 LT ISZERO PUSH2 0x3025 JUMPI PUSH1 0x20 DUP2 DUP6 ADD DUP2 ADD MLOAD DUP7 DUP4 ADD DUP3 ADD MSTORE ADD PUSH2 0x3009 JUMP JUMPDEST POP PUSH0 PUSH1 0x20 DUP3 DUP7 ADD ADD MSTORE PUSH1 0x20 PUSH1 0x1F NOT PUSH1 0x1F DUP4 ADD AND DUP6 ADD ADD SWAP2 POP POP SWAP3 SWAP2 POP POP JUMP JUMPDEST PUSH1 0x20 DUP2 MSTORE PUSH0 PUSH2 0x2FFA PUSH1 0x20 DUP4 ADD DUP5 PUSH2 0x3001 JUMP JUMPDEST PUSH0 PUSH1 0x20 DUP3 DUP5 SUB SLT ISZERO PUSH2 0x3066 JUMPI PUSH0 DUP1 REVERT JUMPDEST POP CALLDATALOAD SWAP2 SWAP1 POP JUMP JUMPDEST DUP1 CALLDATALOAD PUSH1 0x1 PUSH1 0x1 PUSH1 0xA0 SHL SUB DUP2 AND DUP2 EQ PUSH2 0x3083 JUMPI PUSH0 DUP1 REVERT JUMPDEST SWAP2 SWAP1 POP JUMP JUMPDEST PUSH0 PUSH1 0x20 DUP3 DUP5 SUB SLT ISZERO PUSH2 0x3098 JUMPI PUSH0 DUP1 REVERT JUMPDEST PUSH2 0x2FFA DUP3 PUSH2 0x306D JUMP JUMPDEST PUSH0 DUP1 PUSH1 0x40 DUP4 DUP6 SUB SLT ISZERO PUSH2 0x30B2 JUMPI PUSH0 DUP1 REVERT JUMPDEST PUSH2 0x30BB DUP4 PUSH2 0x306D JUMP JUMPDEST SWAP5 PUSH1 0x20 SWAP4 SWAP1 SWAP4 ADD CALLDATALOAD SWAP4 POP POP POP JUMP JUMPDEST PUSH0 DUP1 PUSH0 PUSH1 0x60 DUP5 DUP7 SUB SLT ISZERO PUSH2 0x30DB JUMPI PUSH0 DUP1 REVERT JUMPDEST PUSH2 0x30E4 DUP5 PUSH2 0x306D JUMP JUMPDEST SWAP3 POP PUSH2 0x30F2 PUSH1 0x20 DUP6 ADD PUSH2 0x306D JUMP JUMPDEST SWAP2 POP PUSH1 0x40 DUP5 ADD CALLDATALOAD SWAP1 POP SWAP3 POP SWAP3 POP SWAP3 JUMP JUMPDEST PUSH0 DUP1 PUSH1 0x40 DUP4 DUP6 SUB SLT ISZERO PUSH2 0x3113 JUMPI PUSH0 DUP1 REVERT JUMPDEST DUP3 CALLDATALOAD SWAP2 POP PUSH2 0x3123 PUSH1 0x20 DUP5 ADD PUSH2 0x306D JUMP JUMPDEST SWAP1 POP SWAP3 POP SWAP3 SWAP1 POP JUMP JUMPDEST PUSH0 DUP2 MLOAD DUP1 DUP5 MSTORE PUSH1 0x20 DUP1 DUP6 ADD SWAP5 POP PUSH1 0x20 DUP5 ADD PUSH0 JUMPDEST DUP4 DUP2 LT ISZERO PUSH2 0x315B JUMPI DUP2 MLOAD DUP8 MSTORE SWAP6 DUP3 ADD SWAP6 SWAP1 DUP3 ADD SWAP1 PUSH1 0x1 ADD PUSH2 0x313F JUMP JUMPDEST POP SWAP5 SWAP6 SWAP5 POP POP POP POP POP JUMP JUMPDEST PUSH1 0x20 DUP1 DUP3 MSTORE DUP3 MLOAD PUSH1 0x1 PUSH1 0x1 PUSH1 0xA0 SHL SUB AND DUP3 DUP3 ADD MSTORE DUP3 ADD MLOAD PUSH1 0xE0 PUSH1 0x40 DUP4 ADD MSTORE PUSH0 SWAP1 PUSH2 0x3194 PUSH2 0x100 DUP5 ADD DUP3 PUSH2 0x312C JUMP JUMPDEST SWAP1 POP PUSH1 0x40 DUP5 ADD MLOAD PUSH1 0x1F NOT DUP1 DUP6 DUP5 SUB ADD PUSH1 0x60 DUP7 ADD MSTORE PUSH2 0x31B2 DUP4 DUP4 PUSH2 0x312C JUMP JUMPDEST SWAP3 POP PUSH1 0x60 DUP7 ADD MLOAD PUSH1 0x80 DUP7 ADD MSTORE PUSH1 0x80 DUP7 ADD MLOAD PUSH1 0xA0 DUP7 ADD MSTORE PUSH1 0xA0 DUP7 ADD MLOAD SWAP2 POP DUP1 DUP6 DUP5 SUB ADD PUSH1 0xC0 DUP7 ADD MSTORE PUSH2 0x31E3 DUP4 DUP4 PUSH2 0x312C JUMP JUMPDEST SWAP3 POP PUSH1 0xC0 DUP7 ADD MLOAD SWAP2 POP DUP1 DUP6 DUP5 SUB ADD PUSH1 0xE0 DUP7 ADD MSTORE POP PUSH2 0x3201 DUP3 DUP3 PUSH2 0x312C JUMP JUMPDEST SWAP6 SWAP5 POP POP POP POP POP JUMP JUMPDEST PUSH0 PUSH2 0x100 DUP11 DUP4 MSTORE PUSH1 0x1 DUP1 PUSH1 0xA0 SHL SUB DUP1 DUP12 AND PUSH1 0x20 DUP6 ADD MSTORE DUP10 PUSH1 0x40 DUP6 ADD MSTORE DUP9 PUSH1 0x60 DUP6 ADD MSTORE DUP8 ISZERO ISZERO PUSH1 0x80 DUP6 ADD MSTORE DUP7 ISZERO ISZERO PUSH1 0xA0 DUP6 ADD MSTORE DUP2 PUSH1 0xC0 DUP6 ADD MSTORE PUSH2 0x324E DUP3 DUP6 ADD DUP8 PUSH2 0x3001 JUMP JUMPDEST SWAP3 POP DUP1 DUP6 AND PUSH1 0xE0 DUP6 ADD MSTORE POP POP SWAP10 SWAP9 POP POP POP POP POP POP POP POP POP JUMP JUMPDEST PUSH0 DUP2 MLOAD DUP1 DUP5 MSTORE PUSH1 0x20 DUP1 DUP6 ADD SWAP5 POP PUSH1 0x20 DUP5 ADD PUSH0 JUMPDEST DUP4 DUP2 LT ISZERO PUSH2 0x315B JUMPI DUP2 MLOAD PUSH1 0x1 PUSH1 0x1 PUSH1 0xA0 SHL SUB AND DUP8 MSTORE SWAP6 DUP3 ADD SWAP6 SWAP1 DUP3 ADD SWAP1 PUSH1 0x1 ADD PUSH2 0x327A JUMP JUMPDEST DUP1 PUSH0 JUMPDEST PUSH1 0x2 DUP2 LT ISZERO PUSH2 0x22AA JUMPI DUP2 MLOAD ISZERO ISZERO DUP5 MSTORE PUSH1 0x20 SWAP4 DUP5 ADD SWAP4 SWAP1 SWAP2 ADD SWAP1 PUSH1 0x1 ADD PUSH2 0x32A2 JUMP JUMPDEST PUSH1 0x20 DUP2 MSTORE DUP2 MLOAD PUSH1 0x20 DUP3 ADD MSTORE PUSH0 PUSH1 0x20 DUP4 ADD MLOAD PUSH2 0x32E9 PUSH1 0x40 DUP5 ADD DUP3 PUSH1 0x1 PUSH1 0x1 PUSH1 0xA0 SHL SUB AND SWAP1 MSTORE JUMP JUMPDEST POP PUSH1 0x40 DUP4 ADD MLOAD PUSH1 0x60 DUP4 ADD MSTORE PUSH1 0x60 DUP4 ADD MLOAD PUSH1 0x80 DUP4 ADD MSTORE PUSH1 0x80 DUP4 ADD MLOAD PUSH2 0x3311 PUSH1 0xA0 DUP5 ADD DUP3 ISZERO ISZERO SWAP1 MSTORE JUMP JUMPDEST POP PUSH1 0xA0 DUP4 ADD MLOAD DUP1 ISZERO ISZERO PUSH1 0xC0 DUP5 ADD MSTORE POP PUSH1 0xC0 DUP4 ADD MLOAD PUSH2 0x1C0 PUSH1 0xE0 DUP5 ADD MSTORE PUSH2 0x333B PUSH2 0x1E0 DUP5 ADD DUP3 PUSH2 0x3001 JUMP JUMPDEST SWAP1 POP PUSH1 0xE0 DUP5 ADD MLOAD PUSH1 0x1F NOT PUSH2 0x100 DUP2 DUP7 DUP6 SUB ADD DUP2 DUP8 ADD MSTORE PUSH2 0x335B DUP5 DUP5 PUSH2 0x3267 JUMP JUMPDEST SWAP4 POP DUP1 DUP8 ADD MLOAD SWAP3 POP POP PUSH2 0x120 PUSH2 0x337B DUP2 DUP8 ADD DUP5 PUSH1 0x1 PUSH1 0x1 PUSH1 0xA0 SHL SUB AND SWAP1 MSTORE JUMP JUMPDEST DUP1 DUP8 ADD MLOAD SWAP3 POP POP PUSH2 0x140 DUP2 DUP7 DUP6 SUB ADD DUP2 DUP8 ADD MSTORE PUSH2 0x3398 DUP5 DUP5 PUSH2 0x3267 JUMP JUMPDEST SWAP4 POP DUP1 DUP8 ADD MLOAD SWAP3 POP POP POP PUSH2 0x160 PUSH2 0x33B1 DUP2 DUP7 ADD DUP4 PUSH2 0x329F JUMP JUMPDEST DUP6 ADD MLOAD SWAP1 POP PUSH2 0x33C4 PUSH2 0x1A0 DUP6 ADD DUP3 PUSH2 0x329F JUMP JUMPDEST POP SWAP4 SWAP3 POP POP POP JUMP JUMPDEST DUP1 ISZERO ISZERO DUP2 EQ PUSH2 0x261A JUMPI PUSH0 DUP1 REVERT JUMPDEST PUSH0 DUP1 PUSH1 0x40 DUP4 DUP6 SUB SLT ISZERO PUSH2 0x33EA JUMPI PUSH0 DUP1 REVERT JUMPDEST PUSH2 0x33F3 DUP4 PUSH2 0x306D JUMP JUMPDEST SWAP2 POP PUSH1 0x20 DUP4 ADD CALLDATALOAD PUSH2 0x3403 DUP2 PUSH2 0x33CC JUMP JUMPDEST DUP1 SWAP2 POP POP SWAP3 POP SWAP3 SWAP1 POP JUMP JUMPDEST PUSH0 DUP1 PUSH0 DUP1 PUSH1 0x60 DUP6 DUP8 SUB SLT ISZERO PUSH2 0x3421 JUMPI PUSH0 DUP1 REVERT JUMPDEST DUP5 CALLDATALOAD SWAP4 POP PUSH1 0x20 DUP6 ADD CALLDATALOAD SWAP3 POP PUSH1 0x40 DUP6 ADD CALLDATALOAD PUSH8 0xFFFFFFFFFFFFFFFF DUP1 DUP3 GT ISZERO PUSH2 0x3446 JUMPI PUSH0 DUP1 REVERT JUMPDEST DUP2 DUP8 ADD SWAP2 POP DUP8 PUSH1 0x1F DUP4 ADD SLT PUSH2 0x3459 JUMPI PUSH0 DUP1 REVERT JUMPDEST DUP2 CALLDATALOAD DUP2 DUP2 GT ISZERO PUSH2 0x3467 JUMPI PUSH0 DUP1 REVERT JUMPDEST DUP9 PUSH1 0x20 DUP3 DUP6 ADD ADD GT ISZERO PUSH2 0x3478 JUMPI PUSH0 DUP1 REVERT JUMPDEST SWAP6 SWAP9 SWAP5 SWAP8 POP POP PUSH1 0x20 ADD SWAP5 POP POP POP JUMP JUMPDEST PUSH4 0x4E487B71 PUSH1 0xE0 SHL PUSH0 MSTORE PUSH1 0x41 PUSH1 0x4 MSTORE PUSH1 0x24 PUSH0 REVERT JUMPDEST PUSH0 DUP1 PUSH0 DUP1 PUSH1 0x80 DUP6 DUP8 SUB SLT ISZERO PUSH2 0x34AE JUMPI PUSH0 DUP1 REVERT JUMPDEST PUSH2 0x34B7 DUP6 PUSH2 0x306D JUMP JUMPDEST SWAP4 POP PUSH2 0x34C5 PUSH1 0x20 DUP7 ADD PUSH2 0x306D JUMP JUMPDEST SWAP3 POP PUSH1 0x40 DUP6 ADD CALLDATALOAD SWAP2 POP PUSH1 0x60 DUP6 ADD CALLDATALOAD PUSH8 0xFFFFFFFFFFFFFFFF DUP1 DUP3 GT ISZERO PUSH2 0x34E8 JUMPI PUSH0 DUP1 REVERT JUMPDEST DUP2 DUP8 ADD SWAP2 POP DUP8 PUSH1 0x1F DUP4 ADD SLT PUSH2 0x34FB JUMPI PUSH0 DUP1 REVERT JUMPDEST DUP2 CALLDATALOAD DUP2 DUP2 GT ISZERO PUSH2 0x350D JUMPI PUSH2 0x350D PUSH2 0x3487 JUMP JUMPDEST PUSH1 0x40 MLOAD PUSH1 0x1F DUP3 ADD PUSH1 0x1F NOT SWAP1 DUP2 AND PUSH1 0x3F ADD AND DUP2 ADD SWAP1 DUP4 DUP3 GT DUP2 DUP4 LT OR ISZERO PUSH2 0x3535 JUMPI PUSH2 0x3535 PUSH2 0x3487 JUMP JUMPDEST DUP2 PUSH1 0x40 MSTORE DUP3 DUP2 MSTORE DUP11 PUSH1 0x20 DUP5 DUP8 ADD ADD GT ISZERO PUSH2 0x354D JUMPI PUSH0 DUP1 REVERT JUMPDEST DUP3 PUSH1 0x20 DUP7 ADD PUSH1 0x20 DUP4 ADD CALLDATACOPY PUSH0 PUSH1 0x20 DUP5 DUP4 ADD ADD MSTORE DUP1 SWAP6 POP POP POP POP POP POP SWAP3 SWAP6 SWAP2 SWAP5 POP SWAP3 POP JUMP JUMPDEST PUSH0 DUP1 PUSH1 0x40 DUP4 DUP6 SUB SLT ISZERO PUSH2 0x3581 JUMPI PUSH0 DUP1 REVERT JUMPDEST PUSH2 0x358A DUP4 PUSH2 0x306D JUMP JUMPDEST SWAP2 POP PUSH2 0x3123 PUSH1 0x20 DUP5 ADD PUSH2 0x306D JUMP JUMPDEST PUSH1 0x1 DUP2 DUP2 SHR SWAP1 DUP3 AND DUP1 PUSH2 0x35AC JUMPI PUSH1 0x7F DUP3 AND SWAP2 POP JUMPDEST PUSH1 0x20 DUP3 LT DUP2 SUB PUSH2 0x122E JUMPI PUSH4 0x4E487B71 PUSH1 0xE0 SHL PUSH0 MSTORE PUSH1 0x22 PUSH1 0x4 MSTORE PUSH1 0x24 PUSH0 REVERT JUMPDEST PUSH1 0x20 DUP1 DUP3 MSTORE PUSH1 0x30 SWAP1 DUP3 ADD MSTORE PUSH32 0x4A6F62733A204F6E6C792063726561746F72206F72204B4F4C2063616E20636F PUSH1 0x40 DUP3 ADD MSTORE PUSH16 0x373334B9369031B7B6B83632BA34B7B7 PUSH1 0x81 SHL PUSH1 0x60 DUP3 ADD MSTORE PUSH1 0x80 ADD SWAP1 JUMP JUMPDEST DUP1 DUP3 ADD DUP1 DUP3 GT ISZERO PUSH2 0x4F8 JUMPI PUSH4 0x4E487B71 PUSH1 0xE0 SHL PUSH0 MSTORE PUSH1 0x11 PUSH1 0x4 MSTORE PUSH1 0x24 PUSH0 REVERT JUMPDEST PUSH0 PUSH1 0x20 DUP3 DUP5 SUB SLT ISZERO PUSH2 0x3649 JUMPI PUSH0 DUP1 REVERT JUMPDEST DUP2 MLOAD PUSH2 0x2FFA DUP2 PUSH2 0x33CC JUMP JUMPDEST PUSH1 0x20 DUP1 DUP3 MSTORE PUSH1 0x2D SWAP1 DUP3 ADD MSTORE PUSH32 0x4552433732313A2063616C6C6572206973206E6F7420746F6B656E206F776E65 PUSH1 0x40 DUP3 ADD MSTORE PUSH13 0x1C881BDC88185C1C1C9BDD9959 PUSH1 0x9A SHL PUSH1 0x60 DUP3 ADD MSTORE PUSH1 0x80 ADD SWAP1 JUMP JUMPDEST PUSH0 PUSH1 0x20 DUP3 DUP5 SUB SLT ISZERO PUSH2 0x36B1 JUMPI PUSH0 DUP1 REVERT JUMPDEST POP MLOAD SWAP2 SWAP1 POP JUMP JUMPDEST PUSH1 0x1F DUP3 GT ISZERO PUSH2 0x889 JUMPI DUP1 PUSH0 MSTORE PUSH1 0x20 PUSH0 KECCAK256 PUSH1 0x1F DUP5 ADD PUSH1 0x5 SHR DUP2 ADD PUSH1 0x20 DUP6 LT ISZERO PUSH2 0x36DD JUMPI POP DUP1 JUMPDEST PUSH1 0x1F DUP5 ADD PUSH1 0x5 SHR DUP3 ADD SWAP2 POP JUMPDEST DUP2 DUP2 LT ISZERO PUSH2 0x36FC JUMPI PUSH0 DUP2 SSTORE PUSH1 0x1 ADD PUSH2 0x36E9 JUMP JUMPDEST POP POP POP POP POP JUMP JUMPDEST DUP2 MLOAD PUSH8 0xFFFFFFFFFFFFFFFF DUP2 GT ISZERO PUSH2 0x371D JUMPI PUSH2 0x371D PUSH2 0x3487 JUMP JUMPDEST PUSH2 0x3731 DUP2 PUSH2 0x372B DUP5 SLOAD PUSH2 0x3598 JUMP JUMPDEST DUP5 PUSH2 0x36B8 JUMP JUMPDEST PUSH1 0x20 DUP1 PUSH1 0x1F DUP4 GT PUSH1 0x1 DUP2 EQ PUSH2 0x3764 JUMPI PUSH0 DUP5 ISZERO PUSH2 0x374D JUMPI POP DUP6 DUP4 ADD MLOAD JUMPDEST PUSH0 NOT PUSH1 0x3 DUP7 SWAP1 SHL SHR NOT AND PUSH1 0x1 DUP6 SWAP1 SHL OR DUP6 SSTORE PUSH2 0x37BB JUMP JUMPDEST PUSH0 DUP6 DUP2 MSTORE PUSH1 0x20 DUP2 KECCAK256 PUSH1 0x1F NOT DUP7 AND SWAP2 JUMPDEST DUP3 DUP2 LT ISZERO PUSH2 0x3792 JUMPI DUP9 DUP7 ADD MLOAD DUP3 SSTORE SWAP5 DUP5 ADD SWAP5 PUSH1 0x1 SWAP1 SWAP2 ADD SWAP1 DUP5 ADD PUSH2 0x3773 JUMP JUMPDEST POP DUP6 DUP3 LT ISZERO PUSH2 0x37AF JUMPI DUP8 DUP6 ADD MLOAD PUSH0 NOT PUSH1 0x3 DUP9 SWAP1 SHL PUSH1 0xF8 AND SHR NOT AND DUP2 SSTORE JUMPDEST POP POP PUSH1 0x1 DUP5 PUSH1 0x1 SHL ADD DUP6 SSTORE JUMPDEST POP POP POP POP POP POP JUMP JUMPDEST PUSH1 0x20 DUP1 DUP3 MSTORE PUSH1 0x25 SWAP1 DUP3 ADD MSTORE PUSH32 0x4552433732313A207472616E736665722066726F6D20696E636F727265637420 PUSH1 0x40 DUP3 ADD MSTORE PUSH5 0x37BBB732B9 PUSH1 0xD9 SHL PUSH1 0x60 DUP3 ADD MSTORE PUSH1 0x80 ADD SWAP1 JUMP JUMPDEST PUSH1 0x20 DUP1 DUP3 MSTORE PUSH1 0x32 SWAP1 DUP3 ADD MSTORE PUSH32 0x4552433732313A207472616E7366657220746F206E6F6E204552433732315265 PUSH1 0x40 DUP3 ADD MSTORE PUSH18 0x31B2B4BB32B91034B6B83632B6B2B73A32B9 PUSH1 0x71 SHL PUSH1 0x60 DUP3 ADD MSTORE PUSH1 0x80 ADD SWAP1 JUMP JUMPDEST PUSH1 0x1 PUSH1 0x1 PUSH1 0xA0 SHL SUB DUP6 DUP2 AND DUP3 MSTORE DUP5 AND PUSH1 0x20 DUP3 ADD MSTORE PUSH1 0x40 DUP2 ADD DUP4 SWAP1 MSTORE PUSH1 0x80 PUSH1 0x60 DUP3 ADD DUP2 SWAP1 MSTORE PUSH0 SWAP1 PUSH2 0x388C SWAP1 DUP4 ADD DUP5 PUSH2 0x3001 JUMP JUMPDEST SWAP7 SWAP6 POP POP POP POP POP POP JUMP JUMPDEST PUSH0 PUSH1 0x20 DUP3 DUP5 SUB SLT ISZERO PUSH2 0x38A6 JUMPI PUSH0 DUP1 REVERT JUMPDEST DUP2 MLOAD PUSH2 0x2FFA DUP2 PUSH2 0x2FCA JUMP INVALID LOG2 PUSH5 0x6970667358 0x22 SLT KECCAK256 CALLDATALOAD PUSH31 0x14CFF4F4718AC72EA6187D9C7B173E4AD31FB3280EB0F7FA3969F1E8A8DF64 PUSH20 0x6F6C634300081800330000000000000000000000 "
		},
		"gasEstimates": {
			"creation": {
				"codeDepositCost": "2913400",
				"executionCost": "infinite",
				"totalCost": "infinite"
			},
			"external": {
				"acceptJobs(uint256)": "101418",
				"applyJobs(uint256)": "127930",
				"approve(address,uint256)": "infinite",
				"balanceOf(address)": "2653",
				"baseTokenURI()": "infinite",
				"cancelJobs(uint256)": "infinite",
				"completeJobs(uint256)": "infinite",
				"createJobs(uint256,uint256,string)": "infinite",
				"createProfile(uint256)": "infinite",
				"getApproved(uint256)": "4765",
				"getJobInfo(uint256)": "infinite",
				"getKolInfo(address)": "infinite",
				"inviteKol(uint256,address)": "174386",
				"isApprovedForAll(address,address)": "infinite",
				"jobInfo(uint256)": "infinite",
				"kolsInfo(address)": "6901",
				"name()": "infinite",
				"owner()": "2397",
				"ownerOf(uint256)": "2581",
				"renounceOwnership()": "infinite",
				"safeTransferFrom(address,address,uint256)": "infinite",
				"safeTransferFrom(address,address,uint256,bytes)": "infinite",
				"setApprovalForAll(address,bool)": "26820",
				"startJobs(uint256,address)": "103708",
				"supportsInterface(bytes4)": "554",
				"symbol()": "infinite",
				"tokenURI(uint256)": "infinite",
				"transferFrom(address,address,uint256)": "infinite",
				"transferOwnership(address)": "28443"
			},
			"internal": {
				"_beforeTokenTransfer(address,address,uint256,uint256)": "infinite"
			}
		},
		"methodIdentifiers": {
			"acceptJobs(uint256)": "2474639c",
			"applyJobs(uint256)": "080f404d",
			"approve(address,uint256)": "095ea7b3",
			"balanceOf(address)": "70a08231",
			"baseTokenURI()": "d547cfb7",
			"cancelJobs(uint256)": "2e80f70a",
			"completeJobs(uint256)": "0adce2d0",
			"createJobs(uint256,uint256,string)": "a36b5fde",
			"createProfile(uint256)": "33bc3ccf",
			"getApproved(uint256)": "081812fc",
			"getJobInfo(uint256)": "7f4497d8",
			"getKolInfo(address)": "ead62196",
			"inviteKol(uint256,address)": "23db9ded",
			"isApprovedForAll(address,address)": "e985e9c5",
			"jobInfo(uint256)": "5ce5ee69",
			"kolsInfo(address)": "081cc7ac",
			"name()": "06fdde03",
			"owner()": "8da5cb5b",
			"ownerOf(uint256)": "6352211e",
			"renounceOwnership()": "715018a6",
			"safeTransferFrom(address,address,uint256)": "42842e0e",
			"safeTransferFrom(address,address,uint256,bytes)": "b88d4fde",
			"setApprovalForAll(address,bool)": "a22cb465",
			"startJobs(uint256,address)": "ad7b2c76",
			"supportsInterface(bytes4)": "01ffc9a7",
			"symbol()": "95d89b41",
			"tokenURI(uint256)": "c87b56dd",
			"transferFrom(address,address,uint256)": "23b872dd",
			"transferOwnership(address)": "f2fde38b"
		}
	},
	"abi": [
		{
			"inputs": [
				{
					"internalType": "string",
					"name": "_tokenName",
					"type": "string"
				},
				{
					"internalType": "string",
					"name": "_tokenSymbol",
					"type": "string"
				},
				{
					"internalType": "address",
					"name": "_rewardToken",
					"type": "address"
				}
			],
			"stateMutability": "nonpayable",
			"type": "constructor"
		},
		{
			"anonymous": false,
			"inputs": [
				{
					"indexed": true,
					"internalType": "address",
					"name": "owner",
					"type": "address"
				},
				{
					"indexed": true,
					"internalType": "address",
					"name": "approved",
					"type": "address"
				},
				{
					"indexed": true,
					"internalType": "uint256",
					"name": "tokenId",
					"type": "uint256"
				}
			],
			"name": "Approval",
			"type": "event"
		},
		{
			"anonymous": false,
			"inputs": [
				{
					"indexed": true,
					"internalType": "address",
					"name": "owner",
					"type": "address"
				},
				{
					"indexed": true,
					"internalType": "address",
					"name": "operator",
					"type": "address"
				},
				{
					"indexed": false,
					"internalType": "bool",
					"name": "approved",
					"type": "bool"
				}
			],
			"name": "ApprovalForAll",
			"type": "event"
		},
		{
			"anonymous": false,
			"inputs": [
				{
					"indexed": true,
					"internalType": "uint256",
					"name": "jobId",
					"type": "uint256"
				}
			],
			"name": "CancelJob",
			"type": "event"
		},
		{
			"anonymous": false,
			"inputs": [
				{
					"indexed": true,
					"internalType": "uint256",
					"name": "jobId",
					"type": "uint256"
				},
				{
					"indexed": true,
					"internalType": "address",
					"name": "kolAddress",
					"type": "address"
				}
			],
			"name": "CompletedJob",
			"type": "event"
		},
		{
			"anonymous": false,
			"inputs": [
				{
					"indexed": true,
					"internalType": "address",
					"name": "creator",
					"type": "address"
				},
				{
					"indexed": false,
					"internalType": "uint256",
					"name": "budget",
					"type": "uint256"
				},
				{
					"indexed": false,
					"internalType": "uint256",
					"name": "reward",
					"type": "uint256"
				},
				{
					"indexed": false,
					"internalType": "uint256",
					"name": "jobId",
					"type": "uint256"
				}
			],
			"name": "CreateJob",
			"type": "event"
		},
		{
			"anonymous": false,
			"inputs": [
				{
					"indexed": true,
					"internalType": "address",
					"name": "kolAddress",
					"type": "address"
				},
				{
					"indexed": true,
					"internalType": "uint256",
					"name": "price",
					"type": "uint256"
				}
			],
			"name": "CreateProfile",
			"type": "event"
		},
		{
			"anonymous": false,
			"inputs": [
				{
					"indexed": true,
					"internalType": "uint256",
					"name": "jobId",
					"type": "uint256"
				},
				{
					"indexed": true,
					"internalType": "address",
					"name": "kolAddress",
					"type": "address"
				}
			],
			"name": "InviteKol",
			"type": "event"
		},
		{
			"anonymous": false,
			"inputs": [
				{
					"indexed": true,
					"internalType": "address",
					"name": "kolAddress",
					"type": "address"
				},
				{
					"indexed": true,
					"internalType": "uint256",
					"name": "jobId",
					"type": "uint256"
				}
			],
			"name": "JobApplied",
			"type": "event"
		},
		{
			"anonymous": false,
			"inputs": [
				{
					"indexed": true,
					"internalType": "address",
					"name": "previousOwner",
					"type": "address"
				},
				{
					"indexed": true,
					"internalType": "address",
					"name": "newOwner",
					"type": "address"
				}
			],
			"name": "OwnershipTransferred",
			"type": "event"
		},
		{
			"anonymous": false,
			"inputs": [
				{
					"indexed": true,
					"internalType": "uint256",
					"name": "jobId",
					"type": "uint256"
				},
				{
					"indexed": true,
					"internalType": "address",
					"name": "kolAddress",
					"type": "address"
				}
			],
			"name": "StartJob",
			"type": "event"
		},
		{
			"anonymous": false,
			"inputs": [
				{
					"indexed": true,
					"internalType": "address",
					"name": "from",
					"type": "address"
				},
				{
					"indexed": true,
					"internalType": "address",
					"name": "to",
					"type": "address"
				},
				{
					"indexed": true,
					"internalType": "uint256",
					"name": "tokenId",
					"type": "uint256"
				}
			],
			"name": "Transfer",
			"type": "event"
		},
		{
			"inputs": [
				{
					"internalType": "uint256",
					"name": "_jobId",
					"type": "uint256"
				}
			],
			"name": "acceptJobs",
			"outputs": [
				{
					"internalType": "bool",
					"name": "",
					"type": "bool"
				}
			],
			"stateMutability": "nonpayable",
			"type": "function"
		},
		{
			"inputs": [
				{
					"internalType": "uint256",
					"name": "_jobId",
					"type": "uint256"
				}
			],
			"name": "applyJobs",
			"outputs": [
				{
					"internalType": "bool",
					"name": "",
					"type": "bool"
				}
			],
			"stateMutability": "nonpayable",
			"type": "function"
		},
		{
			"inputs": [
				{
					"internalType": "address",
					"name": "to",
					"type": "address"
				},
				{
					"internalType": "uint256",
					"name": "tokenId",
					"type": "uint256"
				}
			],
			"name": "approve",
			"outputs": [],
			"stateMutability": "nonpayable",
			"type": "function"
		},
		{
			"inputs": [
				{
					"internalType": "address",
					"name": "owner",
					"type": "address"
				}
			],
			"name": "balanceOf",
			"outputs": [
				{
					"internalType": "uint256",
					"name": "",
					"type": "uint256"
				}
			],
			"stateMutability": "view",
			"type": "function"
		},
		{
			"inputs": [],
			"name": "baseTokenURI",
			"outputs": [
				{
					"internalType": "string",
					"name": "",
					"type": "string"
				}
			],
			"stateMutability": "view",
			"type": "function"
		},
		{
			"inputs": [
				{
					"internalType": "uint256",
					"name": "_jobId",
					"type": "uint256"
				}
			],
			"name": "cancelJobs",
			"outputs": [
				{
					"internalType": "bool",
					"name": "",
					"type": "bool"
				}
			],
			"stateMutability": "nonpayable",
			"type": "function"
		},
		{
			"inputs": [
				{
					"internalType": "uint256",
					"name": "_jobId",
					"type": "uint256"
				}
			],
			"name": "completeJobs",
			"outputs": [
				{
					"internalType": "bool",
					"name": "",
					"type": "bool"
				}
			],
			"stateMutability": "nonpayable",
			"type": "function"
		},
		{
			"inputs": [
				{
					"internalType": "uint256",
					"name": "budget",
					"type": "uint256"
				},
				{
					"internalType": "uint256",
					"name": "reward",
					"type": "uint256"
				},
				{
					"internalType": "string",
					"name": "detail",
					"type": "string"
				}
			],
			"name": "createJobs",
			"outputs": [
				{
					"components": [
						{
							"internalType": "uint256",
							"name": "id",
							"type": "uint256"
						},
						{
							"internalType": "address",
							"name": "creator",
							"type": "address"
						},
						{
							"internalType": "uint256",
							"name": "budget",
							"type": "uint256"
						},
						{
							"internalType": "uint256",
							"name": "reward",
							"type": "uint256"
						},
						{
							"internalType": "bool",
							"name": "isStart",
							"type": "bool"
						},
						{
							"internalType": "bool",
							"name": "isCompleted",
							"type": "bool"
						},
						{
							"internalType": "string",
							"name": "detail",
							"type": "string"
						},
						{
							"internalType": "address[]",
							"name": "listApplicants",
							"type": "address[]"
						},
						{
							"internalType": "address",
							"name": "kol",
							"type": "address"
						},
						{
							"internalType": "address[]",
							"name": "listInvitationKols",
							"type": "address[]"
						},
						{
							"internalType": "bool[2]",
							"name": "cancelApproval",
							"type": "bool[2]"
						},
						{
							"internalType": "bool[2]",
							"name": "completedApproval",
							"type": "bool[2]"
						}
					],
					"internalType": "struct IJobs.JobInfo",
					"name": "job",
					"type": "tuple"
				}
			],
			"stateMutability": "nonpayable",
			"type": "function"
		},
		{
			"inputs": [
				{
					"internalType": "uint256",
					"name": "price",
					"type": "uint256"
				}
			],
			"name": "createProfile",
			"outputs": [
				{
					"components": [
						{
							"internalType": "address",
							"name": "kolAddress",
							"type": "address"
						},
						{
							"internalType": "uint256[]",
							"name": "tokenIds",
							"type": "uint256[]"
						},
						{
							"internalType": "uint256[]",
							"name": "jobsIds",
							"type": "uint256[]"
						},
						{
							"internalType": "uint256",
							"name": "price",
							"type": "uint256"
						},
						{
							"internalType": "uint256",
							"name": "creditPoints",
							"type": "uint256"
						},
						{
							"internalType": "uint256[]",
							"name": "listAppliedJobs",
							"type": "uint256[]"
						},
						{
							"internalType": "uint256[]",
							"name": "listInvitationJobs",
							"type": "uint256[]"
						}
					],
					"internalType": "struct IJobs.KolsInfo",
					"name": "kol",
					"type": "tuple"
				}
			],
			"stateMutability": "nonpayable",
			"type": "function"
		},
		{
			"inputs": [
				{
					"internalType": "uint256",
					"name": "tokenId",
					"type": "uint256"
				}
			],
			"name": "getApproved",
			"outputs": [
				{
					"internalType": "address",
					"name": "",
					"type": "address"
				}
			],
			"stateMutability": "view",
			"type": "function"
		},
		{
			"inputs": [
				{
					"internalType": "uint256",
					"name": "_jobId",
					"type": "uint256"
				}
			],
			"name": "getJobInfo",
			"outputs": [
				{
					"components": [
						{
							"internalType": "uint256",
							"name": "id",
							"type": "uint256"
						},
						{
							"internalType": "address",
							"name": "creator",
							"type": "address"
						},
						{
							"internalType": "uint256",
							"name": "budget",
							"type": "uint256"
						},
						{
							"internalType": "uint256",
							"name": "reward",
							"type": "uint256"
						},
						{
							"internalType": "bool",
							"name": "isStart",
							"type": "bool"
						},
						{
							"internalType": "bool",
							"name": "isCompleted",
							"type": "bool"
						},
						{
							"internalType": "string",
							"name": "detail",
							"type": "string"
						},
						{
							"internalType": "address[]",
							"name": "listApplicants",
							"type": "address[]"
						},
						{
							"internalType": "address",
							"name": "kol",
							"type": "address"
						},
						{
							"internalType": "address[]",
							"name": "listInvitationKols",
							"type": "address[]"
						},
						{
							"internalType": "bool[2]",
							"name": "cancelApproval",
							"type": "bool[2]"
						},
						{
							"internalType": "bool[2]",
							"name": "completedApproval",
							"type": "bool[2]"
						}
					],
					"internalType": "struct IJobs.JobInfo",
					"name": "info",
					"type": "tuple"
				}
			],
			"stateMutability": "view",
			"type": "function"
		},
		{
			"inputs": [
				{
					"internalType": "address",
					"name": "kol",
					"type": "address"
				}
			],
			"name": "getKolInfo",
			"outputs": [
				{
					"components": [
						{
							"internalType": "address",
							"name": "kolAddress",
							"type": "address"
						},
						{
							"internalType": "uint256[]",
							"name": "tokenIds",
							"type": "uint256[]"
						},
						{
							"internalType": "uint256[]",
							"name": "jobsIds",
							"type": "uint256[]"
						},
						{
							"internalType": "uint256",
							"name": "price",
							"type": "uint256"
						},
						{
							"internalType": "uint256",
							"name": "creditPoints",
							"type": "uint256"
						},
						{
							"internalType": "uint256[]",
							"name": "listAppliedJobs",
							"type": "uint256[]"
						},
						{
							"internalType": "uint256[]",
							"name": "listInvitationJobs",
							"type": "uint256[]"
						}
					],
					"internalType": "struct IJobs.KolsInfo",
					"name": "info",
					"type": "tuple"
				}
			],
			"stateMutability": "view",
			"type": "function"
		},
		{
			"inputs": [
				{
					"internalType": "uint256",
					"name": "_jobId",
					"type": "uint256"
				},
				{
					"internalType": "address",
					"name": "kolAddress",
					"type": "address"
				}
			],
			"name": "inviteKol",
			"outputs": [
				{
					"internalType": "bool",
					"name": "",
					"type": "bool"
				}
			],
			"stateMutability": "nonpayable",
			"type": "function"
		},
		{
			"inputs": [
				{
					"internalType": "address",
					"name": "owner",
					"type": "address"
				},
				{
					"internalType": "address",
					"name": "operator",
					"type": "address"
				}
			],
			"name": "isApprovedForAll",
			"outputs": [
				{
					"internalType": "bool",
					"name": "",
					"type": "bool"
				}
			],
			"stateMutability": "view",
			"type": "function"
		},
		{
			"inputs": [
				{
					"internalType": "uint256",
					"name": "",
					"type": "uint256"
				}
			],
			"name": "jobInfo",
			"outputs": [
				{
					"internalType": "uint256",
					"name": "id",
					"type": "uint256"
				},
				{
					"internalType": "address",
					"name": "creator",
					"type": "address"
				},
				{
					"internalType": "uint256",
					"name": "budget",
					"type": "uint256"
				},
				{
					"internalType": "uint256",
					"name": "reward",
					"type": "uint256"
				},
				{
					"internalType": "bool",
					"name": "isStart",
					"type": "bool"
				},
				{
					"internalType": "bool",
					"name": "isCompleted",
					"type": "bool"
				},
				{
					"internalType": "string",
					"name": "detail",
					"type": "string"
				},
				{
					"internalType": "address",
					"name": "kol",
					"type": "address"
				}
			],
			"stateMutability": "view",
			"type": "function"
		},
		{
			"inputs": [
				{
					"internalType": "address",
					"name": "",
					"type": "address"
				}
			],
			"name": "kolsInfo",
			"outputs": [
				{
					"internalType": "address",
					"name": "kolAddress",
					"type": "address"
				},
				{
					"internalType": "uint256",
					"name": "price",
					"type": "uint256"
				},
				{
					"internalType": "uint256",
					"name": "creditPoints",
					"type": "uint256"
				}
			],
			"stateMutability": "view",
			"type": "function"
		},
		{
			"inputs": [],
			"name": "name",
			"outputs": [
				{
					"internalType": "string",
					"name": "",
					"type": "string"
				}
			],
			"stateMutability": "view",
			"type": "function"
		},
		{
			"inputs": [],
			"name": "owner",
			"outputs": [
				{
					"internalType": "address",
					"name": "",
					"type": "address"
				}
			],
			"stateMutability": "view",
			"type": "function"
		},
		{
			"inputs": [
				{
					"internalType": "uint256",
					"name": "tokenId",
					"type": "uint256"
				}
			],
			"name": "ownerOf",
			"outputs": [
				{
					"internalType": "address",
					"name": "",
					"type": "address"
				}
			],
			"stateMutability": "view",
			"type": "function"
		},
		{
			"inputs": [],
			"name": "renounceOwnership",
			"outputs": [],
			"stateMutability": "nonpayable",
			"type": "function"
		},
		{
			"inputs": [
				{
					"internalType": "address",
					"name": "from",
					"type": "address"
				},
				{
					"internalType": "address",
					"name": "to",
					"type": "address"
				},
				{
					"internalType": "uint256",
					"name": "tokenId",
					"type": "uint256"
				}
			],
			"name": "safeTransferFrom",
			"outputs": [],
			"stateMutability": "nonpayable",
			"type": "function"
		},
		{
			"inputs": [
				{
					"internalType": "address",
					"name": "from",
					"type": "address"
				},
				{
					"internalType": "address",
					"name": "to",
					"type": "address"
				},
				{
					"internalType": "uint256",
					"name": "tokenId",
					"type": "uint256"
				},
				{
					"internalType": "bytes",
					"name": "data",
					"type": "bytes"
				}
			],
			"name": "safeTransferFrom",
			"outputs": [],
			"stateMutability": "nonpayable",
			"type": "function"
		},
		{
			"inputs": [
				{
					"internalType": "address",
					"name": "operator",
					"type": "address"
				},
				{
					"internalType": "bool",
					"name": "approved",
					"type": "bool"
				}
			],
			"name": "setApprovalForAll",
			"outputs": [],
			"stateMutability": "nonpayable",
			"type": "function"
		},
		{
			"inputs": [
				{
					"internalType": "uint256",
					"name": "_jobId",
					"type": "uint256"
				},
				{
					"internalType": "address",
					"name": "kolAddress",
					"type": "address"
				}
			],
			"name": "startJobs",
			"outputs": [
				{
					"internalType": "bool",
					"name": "",
					"type": "bool"
				}
			],
			"stateMutability": "nonpayable",
			"type": "function"
		},
		{
			"inputs": [
				{
					"internalType": "bytes4",
					"name": "interfaceId",
					"type": "bytes4"
				}
			],
			"name": "supportsInterface",
			"outputs": [
				{
					"internalType": "bool",
					"name": "",
					"type": "bool"
				}
			],
			"stateMutability": "view",
			"type": "function"
		},
		{
			"inputs": [],
			"name": "symbol",
			"outputs": [
				{
					"internalType": "string",
					"name": "",
					"type": "string"
				}
			],
			"stateMutability": "view",
			"type": "function"
		},
		{
			"inputs": [
				{
					"internalType": "uint256",
					"name": "_tokenId",
					"type": "uint256"
				}
			],
			"name": "tokenURI",
			"outputs": [
				{
					"internalType": "string",
					"name": "",
					"type": "string"
				}
			],
			"stateMutability": "view",
			"type": "function"
		},
		{
			"inputs": [
				{
					"internalType": "address",
					"name": "from",
					"type": "address"
				},
				{
					"internalType": "address",
					"name": "to",
					"type": "address"
				},
				{
					"internalType": "uint256",
					"name": "tokenId",
					"type": "uint256"
				}
			],
			"name": "transferFrom",
			"outputs": [],
			"stateMutability": "nonpayable",
			"type": "function"
		},
		{
			"inputs": [
				{
					"internalType": "address",
					"name": "newOwner",
					"type": "address"
				}
			],
			"name": "transferOwnership",
			"outputs": [],
			"stateMutability": "nonpayable",
			"type": "function"
		}
	]
}